{
  "contractName": "ChickItem",
  "abi": [
    {
      "inputs": [
        {
          "internalType": "address",
          "name": "_accessControl",
          "type": "address"
        }
      ],
      "stateMutability": "nonpayable",
      "type": "constructor"
    },
    {
      "anonymous": false,
      "inputs": [
        {
          "indexed": true,
          "internalType": "uint256",
          "name": "tokenId",
          "type": "uint256"
        },
        {
          "indexed": false,
          "internalType": "bool",
          "name": "isPulletPossible",
          "type": "bool"
        },
        {
          "indexed": false,
          "internalType": "bool",
          "name": "isSale",
          "type": "bool"
        },
        {
          "indexed": false,
          "internalType": "uint256",
          "name": "price",
          "type": "uint256"
        },
        {
          "indexed": false,
          "internalType": "uint256",
          "name": "day",
          "type": "uint256"
        },
        {
          "indexed": false,
          "internalType": "uint256",
          "name": "statsIndex",
          "type": "uint256"
        }
      ],
      "name": "AddItem",
      "type": "event"
    },
    {
      "anonymous": false,
      "inputs": [
        {
          "indexed": true,
          "internalType": "address",
          "name": "account",
          "type": "address"
        },
        {
          "indexed": true,
          "internalType": "address",
          "name": "operator",
          "type": "address"
        },
        {
          "indexed": false,
          "internalType": "bool",
          "name": "approved",
          "type": "bool"
        }
      ],
      "name": "ApprovalForAll",
      "type": "event"
    },
    {
      "anonymous": false,
      "inputs": [
        {
          "indexed": true,
          "internalType": "address",
          "name": "operator",
          "type": "address"
        },
        {
          "indexed": true,
          "internalType": "address",
          "name": "from",
          "type": "address"
        },
        {
          "indexed": true,
          "internalType": "address",
          "name": "to",
          "type": "address"
        },
        {
          "indexed": false,
          "internalType": "uint256[]",
          "name": "ids",
          "type": "uint256[]"
        },
        {
          "indexed": false,
          "internalType": "uint256[]",
          "name": "values",
          "type": "uint256[]"
        }
      ],
      "name": "TransferBatch",
      "type": "event"
    },
    {
      "anonymous": false,
      "inputs": [
        {
          "indexed": true,
          "internalType": "address",
          "name": "operator",
          "type": "address"
        },
        {
          "indexed": true,
          "internalType": "address",
          "name": "from",
          "type": "address"
        },
        {
          "indexed": true,
          "internalType": "address",
          "name": "to",
          "type": "address"
        },
        {
          "indexed": false,
          "internalType": "uint256",
          "name": "id",
          "type": "uint256"
        },
        {
          "indexed": false,
          "internalType": "uint256",
          "name": "value",
          "type": "uint256"
        }
      ],
      "name": "TransferSingle",
      "type": "event"
    },
    {
      "anonymous": false,
      "inputs": [
        {
          "indexed": false,
          "internalType": "string",
          "name": "value",
          "type": "string"
        },
        {
          "indexed": true,
          "internalType": "uint256",
          "name": "id",
          "type": "uint256"
        }
      ],
      "name": "URI",
      "type": "event"
    },
    {
      "anonymous": false,
      "inputs": [
        {
          "indexed": true,
          "internalType": "uint256",
          "name": "tokenId",
          "type": "uint256"
        },
        {
          "indexed": false,
          "internalType": "uint256",
          "name": "day",
          "type": "uint256"
        }
      ],
      "name": "UpdateDay",
      "type": "event"
    },
    {
      "anonymous": false,
      "inputs": [
        {
          "indexed": true,
          "internalType": "uint256",
          "name": "tokenId",
          "type": "uint256"
        },
        {
          "indexed": false,
          "internalType": "bool",
          "name": "isPulletPossible",
          "type": "bool"
        }
      ],
      "name": "UpdateIsPulletPossible",
      "type": "event"
    },
    {
      "anonymous": false,
      "inputs": [
        {
          "indexed": true,
          "internalType": "uint256",
          "name": "tokenId",
          "type": "uint256"
        },
        {
          "indexed": false,
          "internalType": "bool",
          "name": "isSale",
          "type": "bool"
        }
      ],
      "name": "UpdateIsSale",
      "type": "event"
    },
    {
      "anonymous": false,
      "inputs": [
        {
          "indexed": true,
          "internalType": "uint256",
          "name": "tokenId",
          "type": "uint256"
        },
        {
          "indexed": false,
          "internalType": "uint256",
          "name": "price",
          "type": "uint256"
        }
      ],
      "name": "UpdatePrice",
      "type": "event"
    },
    {
      "inputs": [],
      "name": "accessControl",
      "outputs": [
        {
          "internalType": "contract ICFNAccessControl",
          "name": "",
          "type": "address"
        }
      ],
      "stateMutability": "view",
      "type": "function"
    },
    {
      "inputs": [
        {
          "internalType": "address",
          "name": "account",
          "type": "address"
        },
        {
          "internalType": "uint256",
          "name": "id",
          "type": "uint256"
        }
      ],
      "name": "balanceOf",
      "outputs": [
        {
          "internalType": "uint256",
          "name": "",
          "type": "uint256"
        }
      ],
      "stateMutability": "view",
      "type": "function"
    },
    {
      "inputs": [
        {
          "internalType": "address[]",
          "name": "accounts",
          "type": "address[]"
        },
        {
          "internalType": "uint256[]",
          "name": "ids",
          "type": "uint256[]"
        }
      ],
      "name": "balanceOfBatch",
      "outputs": [
        {
          "internalType": "uint256[]",
          "name": "",
          "type": "uint256[]"
        }
      ],
      "stateMutability": "view",
      "type": "function"
    },
    {
      "inputs": [
        {
          "internalType": "address",
          "name": "account",
          "type": "address"
        },
        {
          "internalType": "address",
          "name": "operator",
          "type": "address"
        }
      ],
      "name": "isApprovedForAll",
      "outputs": [
        {
          "internalType": "bool",
          "name": "",
          "type": "bool"
        }
      ],
      "stateMutability": "view",
      "type": "function"
    },
    {
      "inputs": [
        {
          "internalType": "uint256",
          "name": "",
          "type": "uint256"
        }
      ],
      "name": "itemList",
      "outputs": [
        {
          "internalType": "uint256",
          "name": "",
          "type": "uint256"
        }
      ],
      "stateMutability": "view",
      "type": "function"
    },
    {
      "inputs": [],
      "name": "name",
      "outputs": [
        {
          "internalType": "string",
          "name": "",
          "type": "string"
        }
      ],
      "stateMutability": "view",
      "type": "function"
    },
    {
      "inputs": [
        {
          "internalType": "address",
          "name": "operator",
          "type": "address"
        },
        {
          "internalType": "bool",
          "name": "approved",
          "type": "bool"
        }
      ],
      "name": "setApprovalForAll",
      "outputs": [],
      "stateMutability": "nonpayable",
      "type": "function"
    },
    {
      "inputs": [
        {
          "internalType": "bytes4",
          "name": "interfaceId",
          "type": "bytes4"
        }
      ],
      "name": "supportsInterface",
      "outputs": [
        {
          "internalType": "bool",
          "name": "",
          "type": "bool"
        }
      ],
      "stateMutability": "view",
      "type": "function"
    },
    {
      "inputs": [],
      "name": "symbol",
      "outputs": [
        {
          "internalType": "string",
          "name": "",
          "type": "string"
        }
      ],
      "stateMutability": "view",
      "type": "function"
    },
    {
      "inputs": [
        {
          "internalType": "uint256",
          "name": "",
          "type": "uint256"
        }
      ],
      "name": "tokenURIs",
      "outputs": [
        {
          "internalType": "uint256",
          "name": "tokenId",
          "type": "uint256"
        },
        {
          "internalType": "bool",
          "name": "isPulletPossible",
          "type": "bool"
        },
        {
          "internalType": "bool",
          "name": "isSale",
          "type": "bool"
        },
        {
          "internalType": "uint256",
          "name": "price",
          "type": "uint256"
        },
        {
          "internalType": "uint256",
          "name": "day",
          "type": "uint256"
        },
        {
          "internalType": "uint256",
          "name": "statsIndex",
          "type": "uint256"
        }
      ],
      "stateMutability": "view",
      "type": "function"
    },
    {
      "inputs": [
        {
          "internalType": "address",
          "name": "_ca",
          "type": "address"
        }
      ],
      "name": "setAccessControl",
      "outputs": [],
      "stateMutability": "nonpayable",
      "type": "function"
    },
    {
      "inputs": [
        {
          "internalType": "string",
          "name": "_newUri",
          "type": "string"
        }
      ],
      "name": "setURI",
      "outputs": [],
      "stateMutability": "nonpayable",
      "type": "function"
    },
    {
      "inputs": [
        {
          "components": [
            {
              "internalType": "uint256",
              "name": "tokenId",
              "type": "uint256"
            },
            {
              "internalType": "bool",
              "name": "isPulletPossible",
              "type": "bool"
            },
            {
              "internalType": "bool",
              "name": "isSale",
              "type": "bool"
            },
            {
              "internalType": "uint256",
              "name": "price",
              "type": "uint256"
            },
            {
              "internalType": "uint256",
              "name": "day",
              "type": "uint256"
            },
            {
              "internalType": "uint256",
              "name": "statsIndex",
              "type": "uint256"
            }
          ],
          "internalType": "struct ItemTypes.ChickItem",
          "name": "item",
          "type": "tuple"
        }
      ],
      "name": "addItems",
      "outputs": [],
      "stateMutability": "nonpayable",
      "type": "function"
    },
    {
      "inputs": [
        {
          "internalType": "uint256",
          "name": "_tokenId",
          "type": "uint256"
        },
        {
          "internalType": "bool",
          "name": "_isPulletPossible",
          "type": "bool"
        }
      ],
      "name": "setIsPulletPossible",
      "outputs": [],
      "stateMutability": "nonpayable",
      "type": "function"
    },
    {
      "inputs": [
        {
          "internalType": "uint256",
          "name": "_tokenId",
          "type": "uint256"
        },
        {
          "internalType": "bool",
          "name": "_isSale",
          "type": "bool"
        }
      ],
      "name": "setIsSaleItem",
      "outputs": [],
      "stateMutability": "nonpayable",
      "type": "function"
    },
    {
      "inputs": [
        {
          "internalType": "uint256",
          "name": "_tokenId",
          "type": "uint256"
        },
        {
          "internalType": "uint256",
          "name": "_price",
          "type": "uint256"
        }
      ],
      "name": "setPriceItem",
      "outputs": [],
      "stateMutability": "nonpayable",
      "type": "function"
    },
    {
      "inputs": [
        {
          "internalType": "uint256",
          "name": "_tokenId",
          "type": "uint256"
        },
        {
          "internalType": "uint256",
          "name": "_day",
          "type": "uint256"
        }
      ],
      "name": "setDayItem",
      "outputs": [],
      "stateMutability": "nonpayable",
      "type": "function"
    },
    {
      "inputs": [],
      "name": "getItemList",
      "outputs": [
        {
          "internalType": "uint256[]",
          "name": "",
          "type": "uint256[]"
        }
      ],
      "stateMutability": "view",
      "type": "function"
    },
    {
      "inputs": [
        {
          "internalType": "uint256",
          "name": "tokenId",
          "type": "uint256"
        }
      ],
      "name": "uri",
      "outputs": [
        {
          "internalType": "string",
          "name": "",
          "type": "string"
        }
      ],
      "stateMutability": "view",
      "type": "function"
    },
    {
      "inputs": [
        {
          "internalType": "address",
          "name": "account",
          "type": "address"
        },
        {
          "internalType": "uint256",
          "name": "id",
          "type": "uint256"
        },
        {
          "internalType": "uint256",
          "name": "value",
          "type": "uint256"
        }
      ],
      "name": "burn",
      "outputs": [],
      "stateMutability": "nonpayable",
      "type": "function"
    },
    {
      "inputs": [
        {
          "internalType": "address",
          "name": "_to",
          "type": "address"
        },
        {
          "internalType": "uint256",
          "name": "_id",
          "type": "uint256"
        },
        {
          "internalType": "uint256",
          "name": "_amount",
          "type": "uint256"
        },
        {
          "internalType": "bytes",
          "name": "_data",
          "type": "bytes"
        }
      ],
      "name": "mint",
      "outputs": [],
      "stateMutability": "nonpayable",
      "type": "function"
    },
    {
      "inputs": [
        {
          "internalType": "address",
          "name": "_to",
          "type": "address"
        },
        {
          "internalType": "uint256[]",
          "name": "_ids",
          "type": "uint256[]"
        },
        {
          "internalType": "uint256[]",
          "name": "_amounts",
          "type": "uint256[]"
        },
        {
          "internalType": "bytes",
          "name": "_data",
          "type": "bytes"
        }
      ],
      "name": "mintBatch",
      "outputs": [],
      "stateMutability": "nonpayable",
      "type": "function"
    },
    {
      "inputs": [
        {
          "internalType": "address",
          "name": "from",
          "type": "address"
        },
        {
          "internalType": "address",
          "name": "to",
          "type": "address"
        },
        {
          "internalType": "uint256",
          "name": "id",
          "type": "uint256"
        },
        {
          "internalType": "uint256",
          "name": "amount",
          "type": "uint256"
        },
        {
          "internalType": "bytes",
          "name": "data",
          "type": "bytes"
        }
      ],
      "name": "safeTransferFrom",
      "outputs": [],
      "stateMutability": "nonpayable",
      "type": "function"
    },
    {
      "inputs": [
        {
          "internalType": "address",
          "name": "from",
          "type": "address"
        },
        {
          "internalType": "address",
          "name": "to",
          "type": "address"
        },
        {
          "internalType": "uint256[]",
          "name": "ids",
          "type": "uint256[]"
        },
        {
          "internalType": "uint256[]",
          "name": "amounts",
          "type": "uint256[]"
        },
        {
          "internalType": "bytes",
          "name": "data",
          "type": "bytes"
        }
      ],
      "name": "safeBatchTransferFrom",
      "outputs": [],
      "stateMutability": "nonpayable",
      "type": "function"
    }
  ],
  "bytecode": "0x60c0604052600a608081905269436869636b204974656d60b01b60a09081526200002d9160049190620000f0565b506040805180820190915260038082526221a4a760e91b60209092019182526200005a91600591620000f0565b503480156200006857600080fd5b506040516200318e3803806200318e8339810160408190526200008b9162000196565b6040518060600160405280602481526020016200316a60249139620000b081620000d7565b50600380546001600160a01b0319166001600160a01b039290921691909117905562000205565b8051620000ec906002906020840190620000f0565b5050565b828054620000fe90620001c8565b90600052602060002090601f0160209004810192826200012257600085556200016d565b82601f106200013d57805160ff19168380011785556200016d565b828001600101855582156200016d579182015b828111156200016d57825182559160200191906001019062000150565b506200017b9291506200017f565b5090565b5b808211156200017b576000815560010162000180565b600060208284031215620001a957600080fd5b81516001600160a01b0381168114620001c157600080fd5b9392505050565b600181811c90821680620001dd57607f821691505b60208210811415620001ff57634e487b7160e01b600052602260045260246000fd5b50919050565b612f5580620002156000396000f3fe608060405234801561001057600080fd5b50600436106101575760003560e01c806366b718ba116100c3578063a55df2721161007c578063a55df2721461034e578063c7b5ff1314610361578063d70078db14610374578063e985e9c514610387578063f242432a146103c3578063f5298aca146103d657600080fd5b806366b718ba146102815780636c8b703f14610294578063731133e91461030d5780637f75cfcc1461032057806395d89b4114610333578063a22cb4651461033b57600080fd5b806313007d551161011557806313007d55146101f757806319129e5a146102225780631f7fdffa146102355780632eb2c2d6146102485780633d4d36001461025b5780634e1273f41461026e57600080fd5b8062fdd58e1461015c57806301ffc9a71461018257806302fe5305146101a5578063063b2e5b146101ba57806306fdde03146101cf5780630e89341c146101e4575b600080fd5b61016f61016a366004612603565b6103e9565b6040519081526020015b60405180910390f35b6101956101903660046127c0565b61047f565b6040519015158152602001610179565b6101b86101b33660046127fa565b6104d1565b005b6101c2610576565b6040516101799190612a0c565b6101d76105ce565b6040516101799190612a4d565b6101d76101f2366004612863565b61065c565b60035461020a906001600160a01b031681565b6040516001600160a01b039091168152602001610179565b6101b86102303660046123d6565b6106e3565b6101b8610243366004612533565b61079e565b6101b8610256366004612424565b610959565b61016f610269366004612863565b610aa3565b6101c261027c3660046126b5565b610ac4565b6101b861028f36600461287c565b610bee565b6102da6102a2366004612863565b60066020526000908152604090208054600182015460028301546003840154600490940154929360ff80841694610100909404169286565b604080519687529415156020870152921515938501939093526060840152608083019190915260a082015260c001610179565b6101b861031b366004612660565b610d0d565b6101b861032e36600461284b565b610e9a565b6101d76110b3565b6101b86103493660046125cc565b6110c0565b6101b861035c36600461287c565b6110cb565b6101b861036f3660046128a1565b6111e8565b6101b86103823660046128a1565b6112f3565b6101956103953660046123f1565b6001600160a01b03918216600090815260016020908152604080832093909416825291909152205460ff1690565b6101b86103d13660046124ce565b6113fe565b6101b86103e436600461262d565b61153f565b60006001600160a01b0383166104595760405162461bcd60e51b815260206004820152602a60248201527f455243313135353a2061646472657373207a65726f206973206e6f742061207660448201526930b634b21037bbb732b960b11b60648201526084015b60405180910390fd5b506000908152602081815260408083206001600160a01b03949094168352929052205490565b60006001600160e01b03198216636cdb3d1360e11b14806104b057506001600160e01b031982166303a24d0760e21b145b806104cb57506301ffc9a760e01b6001600160e01b03198316145b92915050565b600354604051633f1e317960e11b81523360048201819052916001600160a01b031690637e3c62f29060240160206040518083038186803b15801561051557600080fd5b505afa158015610529573d6000803e3d6000fd5b505050506040513d601f19601f8201168201806040525081019061054d91906127a3565b6105695760405162461bcd60e51b815260040161045090612aa8565b610572826115c9565b5050565b606060078054806020026020016040519081016040528092919081815260200182805480156105c457602002820191906000526020600020905b8154815260200190600101908083116105b0575b5050505050905090565b600480546105db90612d23565b80601f016020809104026020016040519081016040528092919081815260200182805461060790612d23565b80156106545780601f1061062957610100808354040283529160200191610654565b820191906000526020600020905b81548152906001019060200180831161063757829003601f168201915b505050505081565b6000818152600660205260409020546060906106aa5760405162461bcd60e51b815260206004820152600d60248201526c556e646566696e65642055726960981b6044820152606401610450565b6106b3826115dc565b6106bc83611670565b6040516020016106cd92919061292a565b6040516020818303038152906040529050919050565b600354604051633f1e317960e11b81523360048201819052916001600160a01b031690637e3c62f29060240160206040518083038186803b15801561072757600080fd5b505afa15801561073b573d6000803e3d6000fd5b505050506040513d601f19601f8201168201806040525081019061075f91906127a3565b61077b5760405162461bcd60e51b815260040161045090612aa8565b50600380546001600160a01b0319166001600160a01b0392909216919091179055565b600354604051633f1e317960e11b81523360048201819052916001600160a01b031690637e3c62f29060240160206040518083038186803b1580156107e257600080fd5b505afa1580156107f6573d6000803e3d6000fd5b505050506040513d601f19601f8201168201806040525081019061081a91906127a3565b6108365760405162461bcd60e51b815260040161045090612aa8565b600354604051636aacbfd760e11b81526001600160a01b0380881660048301528792169063d5597fae9060240160206040518083038186803b15801561087b57600080fd5b505afa15801561088f573d6000803e3d6000fd5b505050506040513d601f19601f820116820180604052508101906108b391906127a3565b156108d05760405162461bcd60e51b815260040161045090612bbc565b60066000866000815181106108e7576108e7612db6565b6020026020010151815260200190815260200160002060000154600014156109455760405162461bcd60e51b8152602060048201526011602482015270155b9919599a5b995908151bdad95b9259607a1b6044820152606401610450565b61095186868686611705565b505050505050565b600354604051636aacbfd760e11b81526001600160a01b0380881660048301528792169063d5597fae9060240160206040518083038186803b15801561099e57600080fd5b505afa1580156109b2573d6000803e3d6000fd5b505050506040513d601f19601f820116820180604052508101906109d691906127a3565b156109f35760405162461bcd60e51b815260040161045090612bbc565b600354604051636aacbfd760e11b81526001600160a01b0380881660048301528792169063d5597fae9060240160206040518083038186803b158015610a3857600080fd5b505afa158015610a4c573d6000803e3d6000fd5b505050506040513d601f19601f82011682018060405250810190610a7091906127a3565b15610a8d5760405162461bcd60e51b815260040161045090612bbc565b610a9a8787878787611857565b50505050505050565b60078181548110610ab357600080fd5b600091825260209091200154905081565b60608151835114610b295760405162461bcd60e51b815260206004820152602960248201527f455243313135353a206163636f756e747320616e6420696473206c656e677468604482015268040dad2e6dac2e8c6d60bb1b6064820152608401610450565b6000835167ffffffffffffffff811115610b4557610b45612dcc565b604051908082528060200260200182016040528015610b6e578160200160208202803683370190505b50905060005b8451811015610be657610bb9858281518110610b9257610b92612db6565b6020026020010151858381518110610bac57610bac612db6565b60200260200101516103e9565b828281518110610bcb57610bcb612db6565b6020908102919091010152610bdf81612d85565b9050610b74565b509392505050565b600354604051633f1e317960e11b81523360048201819052916001600160a01b031690637e3c62f29060240160206040518083038186803b158015610c3257600080fd5b505afa158015610c46573d6000803e3d6000fd5b505050506040513d601f19601f82011682018060405250810190610c6a91906127a3565b610c865760405162461bcd60e51b815260040161045090612aa8565b600083815260066020526040902054610cb15760405162461bcd60e51b815260040161045090612c06565b600083815260066020908152604091829020600101805460ff1916851515908117909155915191825284917f25d88a4579fae70138513cf189955a8e787694bc32ba221c174ab522fa5a3b1091015b60405180910390a2505050565b600354604051633f1e317960e11b81523360048201819052916001600160a01b031690637e3c62f29060240160206040518083038186803b158015610d5157600080fd5b505afa158015610d65573d6000803e3d6000fd5b505050506040513d601f19601f82011682018060405250810190610d8991906127a3565b610da55760405162461bcd60e51b815260040161045090612aa8565b600354604051636aacbfd760e11b81526001600160a01b0380881660048301528792169063d5597fae9060240160206040518083038186803b158015610dea57600080fd5b505afa158015610dfe573d6000803e3d6000fd5b505050506040513d601f19601f82011682018060405250810190610e2291906127a3565b15610e3f5760405162461bcd60e51b815260040161045090612bbc565b600085815260066020526040902054610e8e5760405162461bcd60e51b8152602060048201526011602482015270155b9919599a5b995908151bdad95b9259607a1b6044820152606401610450565b6109518686868661189c565b600354604051633f1e317960e11b81523360048201819052916001600160a01b031690637e3c62f29060240160206040518083038186803b158015610ede57600080fd5b505afa158015610ef2573d6000803e3d6000fd5b505050506040513d601f19601f82011682018060405250810190610f1691906127a3565b610f325760405162461bcd60e51b815260040161045090612aa8565b813560009081526006602052604090205415610f815760405162461bcd60e51b815260206004820152600e60248201526d416c72656164792065786973747360901b6044820152606401610450565b8135610fcf5760405162461bcd60e51b815260206004820152601960248201527f4d7573742062652067726561746572207468616e207a65726f000000000000006044820152606401610450565b813560009081526006602052604090208290610feb8282612e88565b50506007805460018101825560009190915282357fa66cc928b5edb82af9bd49922954155ab7b0942694bea4ce44661d9a8736c6889091018190557f81e25f7c77d4af14841664ad6abad9f847b1e22a0a955425880028e1e67ab7846110576040850160208601612786565b6110676060860160408701612786565b856060013586608001358760a001356040516110a79594939291909415158552921515602085015260408401919091526060830152608082015260a00190565b60405180910390a25050565b600580546105db90612d23565b61057233838361196d565b600354604051633f1e317960e11b81523360048201819052916001600160a01b031690637e3c62f29060240160206040518083038186803b15801561110f57600080fd5b505afa158015611123573d6000803e3d6000fd5b505050506040513d601f19601f8201168201806040525081019061114791906127a3565b6111635760405162461bcd60e51b815260040161045090612aa8565b60008381526006602052604090205461118e5760405162461bcd60e51b815260040161045090612c06565b6000838152600660205260409081902060010180548415156101000261ff00199091161790555183907fbe8b8b18ca73b15d4ef6644161fddcb0f1374540278f3c3a7115c02a44b5268c90610d0090851515815260200190565b600354604051633f1e317960e11b81523360048201819052916001600160a01b031690637e3c62f29060240160206040518083038186803b15801561122c57600080fd5b505afa158015611240573d6000803e3d6000fd5b505050506040513d601f19601f8201168201806040525081019061126491906127a3565b6112805760405162461bcd60e51b815260040161045090612aa8565b6000838152600660205260409020546112ab5760405162461bcd60e51b815260040161045090612c06565b600083815260066020526040908190206002018390555183907f8b49109cd5767f43f65aaaae99075135a684e87312ed89a5e0d69e96bed715cb90610d009085815260200190565b600354604051633f1e317960e11b81523360048201819052916001600160a01b031690637e3c62f29060240160206040518083038186803b15801561133757600080fd5b505afa15801561134b573d6000803e3d6000fd5b505050506040513d601f19601f8201168201806040525081019061136f91906127a3565b61138b5760405162461bcd60e51b815260040161045090612aa8565b6000838152600660205260409020546113b65760405162461bcd60e51b815260040161045090612c06565b600083815260066020526040908190206003018390555183907f29cf34552dadbee2bc86a6573d57e765071e59b49ed8b771f46ab2cfbf40517c90610d009085815260200190565b600354604051636aacbfd760e11b81526001600160a01b0380881660048301528792169063d5597fae9060240160206040518083038186803b15801561144357600080fd5b505afa158015611457573d6000803e3d6000fd5b505050506040513d601f19601f8201168201806040525081019061147b91906127a3565b156114985760405162461bcd60e51b815260040161045090612bbc565b600354604051636aacbfd760e11b81526001600160a01b0380881660048301528792169063d5597fae9060240160206040518083038186803b1580156114dd57600080fd5b505afa1580156114f1573d6000803e3d6000fd5b505050506040513d601f19601f8201168201806040525081019061151591906127a3565b156115325760405162461bcd60e51b815260040161045090612bbc565b610a9a8787878787611a4e565b6001600160a01b03831633148061155b575061155b8333610395565b6115b95760405162461bcd60e51b815260206004820152602960248201527f455243313135353a2063616c6c6572206973206e6f74206f776e6572206e6f7260448201526808185c1c1c9bdd995960ba1b6064820152608401610450565b6115c4838383611a93565b505050565b8051610572906002906020840190612225565b6060600280546115eb90612d23565b80601f016020809104026020016040519081016040528092919081815260200182805461161790612d23565b80156116645780601f1061163957610100808354040283529160200191611664565b820191906000526020600020905b81548152906001019060200180831161164757829003601f168201915b50505050509050919050565b6060600061167d83611c0f565b600101905060008167ffffffffffffffff81111561169d5761169d612dcc565b6040519080825280601f01601f1916602001820160405280156116c7576020820181803683370190505b5090508181016020015b600019016f181899199a1a9b1b9c1cb0b131b232b360811b600a86061a8153600a850494508461170057610be6565b6116d1565b6001600160a01b03841661172b5760405162461bcd60e51b815260040161045090612c76565b815183511461174c5760405162461bcd60e51b815260040161045090612c2e565b3360005b84518110156117e85783818151811061176b5761176b612db6565b602002602001015160008087848151811061178857611788612db6565b602002602001015181526020019081526020016000206000886001600160a01b03166001600160a01b0316815260200190815260200160002060008282546117d09190612cdb565b909155508190506117e081612d85565b915050611750565b50846001600160a01b031660006001600160a01b0316826001600160a01b03167f4a39dc06d4c0dbc64b70af90fd698a233a518aa5d07e595d983b8c0526c8f7fb8787604051611839929190612a1f565b60405180910390a461185081600087878787611ce7565b5050505050565b6001600160a01b03851633148061187357506118738533610395565b61188f5760405162461bcd60e51b815260040161045090612adf565b6118508585858585611e52565b6001600160a01b0384166118c25760405162461bcd60e51b815260040161045090612c76565b3360006118ce85611fe6565b905060006118db85611fe6565b90506000868152602081815260408083206001600160a01b038b1684529091528120805487929061190d908490612cdb565b909155505060408051878152602081018790526001600160a01b03808a1692600092918716917fc3d58168c5ae7397731d063d5bbf3d657854427343f4c083240f7aacaa2d0f62910160405180910390a4610a9a83600089898989612031565b816001600160a01b0316836001600160a01b031614156119e15760405162461bcd60e51b815260206004820152602960248201527f455243313135353a2073657474696e6720617070726f76616c20737461747573604482015268103337b91039b2b63360b91b6064820152608401610450565b6001600160a01b03838116600081815260016020908152604080832094871680845294825291829020805460ff191686151590811790915591519182527f17307eab39ab6107e8899845ad3d59bd9653f200f220920489ca2b5937696c31910160405180910390a3505050565b6001600160a01b038516331480611a6a5750611a6a8533610395565b611a865760405162461bcd60e51b815260040161045090612adf565b61185085858585856120fb565b6001600160a01b038316611af55760405162461bcd60e51b815260206004820152602360248201527f455243313135353a206275726e2066726f6d20746865207a65726f206164647260448201526265737360e81b6064820152608401610450565b336000611b0184611fe6565b90506000611b0e84611fe6565b60408051602080820183526000918290528882528181528282206001600160a01b038b1683529052205490915084811015611b975760405162461bcd60e51b8152602060048201526024808201527f455243313135353a206275726e20616d6f756e7420657863656564732062616c604482015263616e636560e01b6064820152608401610450565b6000868152602081815260408083206001600160a01b038b81168086529184528285208a8703905582518b81529384018a90529092908816917fc3d58168c5ae7397731d063d5bbf3d657854427343f4c083240f7aacaa2d0f62910160405180910390a4604080516020810190915260009052610a9a565b60008072184f03e93ff9f4daa797ed6e38ed64bf6a1f0160401b8310611c4e5772184f03e93ff9f4daa797ed6e38ed64bf6a1f0160401b830492506040015b6d04ee2d6d415b85acef81000000008310611c7a576d04ee2d6d415b85acef8100000000830492506020015b662386f26fc100008310611c9857662386f26fc10000830492506010015b6305f5e1008310611cb0576305f5e100830492506008015b6127108310611cc457612710830492506004015b60648310611cd6576064830492506002015b600a83106104cb5760010192915050565b6001600160a01b0384163b156109515760405163bc197c8160e01b81526001600160a01b0385169063bc197c8190611d2b9089908990889088908890600401612969565b602060405180830381600087803b158015611d4557600080fd5b505af1925050508015611d75575060408051601f3d908101601f19168201909252611d72918101906127dd565b60015b611e2257611d81612de2565b806308c379a01415611dbb5750611d96612dfe565b80611da15750611dbd565b8060405162461bcd60e51b81526004016104509190612a4d565b505b60405162461bcd60e51b815260206004820152603460248201527f455243313135353a207472616e7366657220746f206e6f6e2d455243313135356044820152732932b1b2b4bb32b91034b6b83632b6b2b73a32b960611b6064820152608401610450565b6001600160e01b0319811663bc197c8160e01b14610a9a5760405162461bcd60e51b815260040161045090612a60565b8151835114611e735760405162461bcd60e51b815260040161045090612c2e565b6001600160a01b038416611e995760405162461bcd60e51b815260040161045090612b2d565b3360005b8451811015611f80576000858281518110611eba57611eba612db6565b602002602001015190506000858381518110611ed857611ed8612db6565b602090810291909101810151600084815280835260408082206001600160a01b038e168352909352919091205490915081811015611f285760405162461bcd60e51b815260040161045090612b72565b6000838152602081815260408083206001600160a01b038e8116855292528083208585039055908b16825281208054849290611f65908490612cdb565b9250508190555050505080611f7990612d85565b9050611e9d565b50846001600160a01b0316866001600160a01b0316826001600160a01b03167f4a39dc06d4c0dbc64b70af90fd698a233a518aa5d07e595d983b8c0526c8f7fb8787604051611fd0929190612a1f565b60405180910390a4610951818787878787611ce7565b6040805160018082528183019092526060916000919060208083019080368337019050509050828160008151811061202057612020612db6565b602090810291909101015292915050565b6001600160a01b0384163b156109515760405163f23a6e6160e01b81526001600160a01b0385169063f23a6e619061207590899089908890889088906004016129c7565b602060405180830381600087803b15801561208f57600080fd5b505af19250505080156120bf575060408051601f3d908101601f191682019092526120bc918101906127dd565b60015b6120cb57611d81612de2565b6001600160e01b0319811663f23a6e6160e01b14610a9a5760405162461bcd60e51b815260040161045090612a60565b6001600160a01b0384166121215760405162461bcd60e51b815260040161045090612b2d565b33600061212d85611fe6565b9050600061213a85611fe6565b90506000868152602081815260408083206001600160a01b038c1684529091529020548581101561217d5760405162461bcd60e51b815260040161045090612b72565b6000878152602081815260408083206001600160a01b038d8116855292528083208985039055908a168252812080548892906121ba908490612cdb565b909155505060408051888152602081018890526001600160a01b03808b16928c821692918816917fc3d58168c5ae7397731d063d5bbf3d657854427343f4c083240f7aacaa2d0f62910160405180910390a461221a848a8a8a8a8a612031565b505050505050505050565b82805461223190612d23565b90600052602060002090601f0160209004810192826122535760008555612299565b82601f1061226c57805160ff1916838001178555612299565b82800160010185558215612299579182015b8281111561229957825182559160200191906001019061227e565b506122a59291506122a9565b5090565b5b808211156122a557600081556001016122aa565b600067ffffffffffffffff8311156122d8576122d8612dcc565b6040516122ef601f8501601f191660200182612d58565b80915083815284848401111561230457600080fd5b83836020830137600060208583010152509392505050565b80356001600160a01b038116811461233357600080fd5b919050565b600082601f83011261234957600080fd5b8135602061235682612cb7565b6040516123638282612d58565b8381528281019150858301600585901b8701840188101561238357600080fd5b60005b858110156123a257813584529284019290840190600101612386565b5090979650505050505050565b600082601f8301126123c057600080fd5b6123cf838335602085016122be565b9392505050565b6000602082840312156123e857600080fd5b6123cf8261231c565b6000806040838503121561240457600080fd5b61240d8361231c565b915061241b6020840161231c565b90509250929050565b600080600080600060a0868803121561243c57600080fd5b6124458661231c565b94506124536020870161231c565b9350604086013567ffffffffffffffff8082111561247057600080fd5b61247c89838a01612338565b9450606088013591508082111561249257600080fd5b61249e89838a01612338565b935060808801359150808211156124b457600080fd5b506124c1888289016123af565b9150509295509295909350565b600080600080600060a086880312156124e657600080fd5b6124ef8661231c565b94506124fd6020870161231c565b93506040860135925060608601359150608086013567ffffffffffffffff81111561252757600080fd5b6124c1888289016123af565b6000806000806080858703121561254957600080fd5b6125528561231c565b9350602085013567ffffffffffffffff8082111561256f57600080fd5b61257b88838901612338565b9450604087013591508082111561259157600080fd5b61259d88838901612338565b935060608701359150808211156125b357600080fd5b506125c0878288016123af565b91505092959194509250565b600080604083850312156125df57600080fd5b6125e88361231c565b915060208301356125f881612ef8565b809150509250929050565b6000806040838503121561261657600080fd5b61261f8361231c565b946020939093013593505050565b60008060006060848603121561264257600080fd5b61264b8461231c565b95602085013595506040909401359392505050565b6000806000806080858703121561267657600080fd5b61267f8561231c565b93506020850135925060408501359150606085013567ffffffffffffffff8111156126a957600080fd5b6125c0878288016123af565b600080604083850312156126c857600080fd5b823567ffffffffffffffff808211156126e057600080fd5b818501915085601f8301126126f457600080fd5b8135602061270182612cb7565b60405161270e8282612d58565b8381528281019150858301600585901b870184018b101561272e57600080fd5b600096505b84871015612758576127448161231c565b835260019690960195918301918301612733565b509650508601359250508082111561276f57600080fd5b5061277c85828601612338565b9150509250929050565b60006020828403121561279857600080fd5b81356123cf81612ef8565b6000602082840312156127b557600080fd5b81516123cf81612ef8565b6000602082840312156127d257600080fd5b81356123cf81612f09565b6000602082840312156127ef57600080fd5b81516123cf81612f09565b60006020828403121561280c57600080fd5b813567ffffffffffffffff81111561282357600080fd5b8201601f8101841361283457600080fd5b612843848235602084016122be565b949350505050565b600060c0828403121561285d57600080fd5b50919050565b60006020828403121561287557600080fd5b5035919050565b6000806040838503121561288f57600080fd5b8235915060208301356125f881612ef8565b600080604083850312156128b457600080fd5b50508035926020909101359150565b600081518084526020808501945080840160005b838110156128f3578151875295820195908201906001016128d7565b509495945050505050565b60008151808452612916816020860160208601612cf3565b601f01601f19169290920160200192915050565b6000835161293c818460208801612cf3565b835190830190612950818360208801612cf3565b64173539b7b760d91b9101908152600501949350505050565b6001600160a01b0386811682528516602082015260a060408201819052600090612995908301866128c3565b82810360608401526129a781866128c3565b905082810360808401526129bb81856128fe565b98975050505050505050565b6001600160a01b03868116825285166020820152604081018490526060810183905260a060808201819052600090612a01908301846128fe565b979650505050505050565b6020815260006123cf60208301846128c3565b604081526000612a3260408301856128c3565b8281036020840152612a4481856128c3565b95945050505050565b6020815260006123cf60208301846128fe565b60208082526028908201527f455243313135353a204552433131353552656365697665722072656a656374656040820152676420746f6b656e7360c01b606082015260800190565b60208082526018908201527f556e7665726966696564206f776e657220616464726573730000000000000000604082015260600190565b6020808252602e908201527f455243313135353a2063616c6c6572206973206e6f7420746f6b656e206f776e60408201526d195c881bdc88185c1c1c9bdd995960921b606082015260800190565b60208082526025908201527f455243313135353a207472616e7366657220746f20746865207a65726f206164604082015264647265737360d81b606082015260800190565b6020808252602a908201527f455243313135353a20696e73756666696369656e742062616c616e636520666f60408201526939103a3930b739b332b960b11b606082015260800190565b6020808252602a908201527f5472616e73616374696f6e2064656e6965643a206164647265737320697320626040820152691b1858dadb1a5cdd195960b21b606082015260800190565b6020808252600e908201526d556e646566696e6564204974656d60901b604082015260600190565b60208082526028908201527f455243313135353a2069647320616e6420616d6f756e7473206c656e677468206040820152670dad2e6dac2e8c6d60c31b606082015260800190565b60208082526021908201527f455243313135353a206d696e7420746f20746865207a65726f206164647265736040820152607360f81b606082015260800190565b600067ffffffffffffffff821115612cd157612cd1612dcc565b5060051b60200190565b60008219821115612cee57612cee612da0565b500190565b60005b83811015612d0e578181015183820152602001612cf6565b83811115612d1d576000848401525b50505050565b600181811c90821680612d3757607f821691505b6020821081141561285d57634e487b7160e01b600052602260045260246000fd5b601f8201601f1916810167ffffffffffffffff81118282101715612d7e57612d7e612dcc565b6040525050565b6000600019821415612d9957612d99612da0565b5060010190565b634e487b7160e01b600052601160045260246000fd5b634e487b7160e01b600052603260045260246000fd5b634e487b7160e01b600052604160045260246000fd5b600060033d1115612dfb5760046000803e5060005160e01c5b90565b600060443d1015612e0c5790565b6040516003193d81016004833e81513d67ffffffffffffffff8160248401118184111715612e3c57505050505090565b8285019150815181811115612e545750505050505090565b843d8701016020828501011115612e6e5750505050505090565b612e7d60208286010187612d58565b509095945050505050565b81358155600181016020830135612e9e81612ef8565b815460ff19811691151560ff1691821783556040850135612ebe81612ef8565b61ffff199190911690911790151560081b61ff0016179055606082013560028201556080820135600382015560a090910135600490910155565b8015158114612f0657600080fd5b50565b6001600160e01b031981168114612f0657600080fdfea264697066735822122053223a731a753bb5d3e95265d2937742cb9739ef59a9db660cb5ac218f01cd4264736f6c6343000807003368747470733a2f2f696d672e63662d6e2e696f2f6a736f6e732f636869636b4974656d2f",
  "immutableReferences": {},
  "source": "// SPDX-License-Identifier: MIT\npragma solidity ^0.8.1;\n\nimport \"@openzeppelin/contracts/token/ERC1155/ERC1155.sol\";\nimport \"@openzeppelin/contracts/utils/Strings.sol\";\n\nimport \"../interfaces/ICFNAccessControl.sol\";\nimport {ItemTypes} from \"../libraries/ItemTypes.sol\";\n\ncontract ChickItem is ERC1155 {\n    using Strings for uint256;\n\n    using ItemTypes for ItemTypes.ChickItem;\n\n    ICFNAccessControl public accessControl;\n\n    // contract name, symbol\n    string public name = \"Chick Item\";\n    string public symbol = \"CIN\";\n\n    mapping(uint256 => ItemTypes.ChickItem) public tokenURIs;\n    uint256[] public itemList;\n\n    event AddItem(\n        uint256 indexed tokenId,\n        bool isPulletPossible,\n        bool isSale,\n        uint256 price,\n        uint256 day,\n        uint256 statsIndex\n    );\n    event UpdateIsPulletPossible(\n        uint256 indexed tokenId,\n        bool isPulletPossible\n    );\n    event UpdateIsSale(uint256 indexed tokenId, bool isSale);\n    event UpdatePrice(uint256 indexed tokenId, uint256 price);\n    event UpdateDay(uint256 indexed tokenId, uint256 day);\n\n    constructor(\n        address _accessControl\n    ) ERC1155(\"https://img.cf-n.io/jsons/chickItem/\") {\n        accessControl = ICFNAccessControl(_accessControl);\n    }\n\n    modifier isBlackListWallet(address _address) {\n        require(\n            !accessControl.blackListWallet(_address),\n            \"Transaction denied: address is blacklisted\"\n        );\n        _;\n    }\n\n    modifier isWhiteListControl(address _ca) {\n        require(\n            accessControl.whiteListControlAddress(_ca),\n            \"Unverified owner address\"\n        );\n        _;\n    }\n\n    function setAccessControl(\n        address _ca\n    ) public isWhiteListControl(msg.sender) {\n        accessControl = ICFNAccessControl(_ca);\n    }\n\n    function setURI(\n        string memory _newUri\n    ) public isWhiteListControl(msg.sender) {\n        _setURI(_newUri);\n    }\n\n    function addItems(\n        ItemTypes.ChickItem calldata item\n    ) public isWhiteListControl(msg.sender) {\n        require(tokenURIs[item.tokenId].tokenId == 0, \"Already exists\");\n        require(item.tokenId > 0, \"Must be greater than zero\");\n\n        tokenURIs[item.tokenId] = item;\n\n        itemList.push(item.tokenId);\n\n        emit AddItem(\n            item.tokenId,\n            item.isPulletPossible,\n            item.isSale,\n            item.price,\n            item.day,\n            item.statsIndex\n        );\n    }\n\n    function setIsPulletPossible(\n        uint256 _tokenId,\n        bool _isPulletPossible\n    ) public isWhiteListControl(msg.sender) {\n        require(tokenURIs[_tokenId].tokenId != 0, \"Undefined Item\");\n\n        tokenURIs[_tokenId].isPulletPossible = _isPulletPossible;\n\n        emit UpdateIsPulletPossible(_tokenId, _isPulletPossible);\n    }\n\n    function setIsSaleItem(\n        uint256 _tokenId,\n        bool _isSale\n    ) public isWhiteListControl(msg.sender) {\n        require(tokenURIs[_tokenId].tokenId != 0, \"Undefined Item\");\n\n        tokenURIs[_tokenId].isSale = _isSale;\n\n        emit UpdateIsSale(_tokenId, _isSale);\n    }\n\n    function setPriceItem(\n        uint256 _tokenId,\n        uint256 _price\n    ) public isWhiteListControl(msg.sender) {\n        require(tokenURIs[_tokenId].tokenId != 0, \"Undefined Item\");\n\n        tokenURIs[_tokenId].price = _price;\n\n        emit UpdatePrice(_tokenId, _price);\n    }\n\n    function setDayItem(\n        uint256 _tokenId,\n        uint256 _day\n    ) public isWhiteListControl(msg.sender) {\n        require(tokenURIs[_tokenId].tokenId != 0, \"Undefined Item\");\n\n        tokenURIs[_tokenId].day = _day;\n\n        emit UpdateDay(_tokenId, _day);\n    }\n\n    function getItemList() public view returns (uint256[] memory) {\n        return itemList;\n    }\n\n    function uri(uint256 tokenId) public view override returns (string memory) {\n        require(tokenURIs[tokenId].tokenId != 0, \"Undefined Uri\");\n\n        return\n            string(\n                abi.encodePacked(\n                    super.uri(tokenId),\n                    Strings.toString(tokenId),\n                    \".json\"\n                )\n            );\n    }\n\n    function burn(address account, uint256 id, uint256 value) public {\n        require(\n            account == _msgSender() || isApprovedForAll(account, _msgSender()),\n            \"ERC1155: caller is not owner nor approved\"\n        );\n\n        _burn(account, id, value);\n    }\n\n    function mint(\n        address _to,\n        uint256 _id,\n        uint256 _amount,\n        bytes memory _data\n    ) public isWhiteListControl(msg.sender) isBlackListWallet(_to) {\n        require(tokenURIs[_id].tokenId != 0, \"Undefined TokenId\");\n\n        _mint(_to, _id, _amount, _data);\n    }\n\n    function mintBatch(\n        address _to,\n        uint256[] memory _ids,\n        uint256[] memory _amounts,\n        bytes memory _data\n    ) public isWhiteListControl(msg.sender) isBlackListWallet(_to) {\n        require(tokenURIs[_ids[0]].tokenId != 0, \"Undefined TokenId\");\n\n        _mintBatch(_to, _ids, _amounts, _data);\n    }\n\n    function safeTransferFrom(\n        address from,\n        address to,\n        uint256 id,\n        uint256 amount,\n        bytes memory data\n    ) public override isBlackListWallet(from) isBlackListWallet(to) {\n        super.safeTransferFrom(from, to, id, amount, data);\n    }\n\n    function safeBatchTransferFrom(\n        address from,\n        address to,\n        uint256[] memory ids,\n        uint256[] memory amounts,\n        bytes memory data\n    ) public override isBlackListWallet(from) isBlackListWallet(to) {\n        super.safeBatchTransferFrom(from, to, ids, amounts, data);\n    }\n}\n",
  "sourcePath": "/Users/minki/Desktop/Codberg/cock-fight-network-contrats/cotract-test/contracts/cock-fight/erc1155/ChickItem.sol",
  "compiler": {
    "name": "solc",
    "version": "0.8.7+commit.e28d00a7.Emscripten.clang"
  },
  "schemaVersion": "3.4.16",
  "updatedAt": "2024-09-11T04:43:54.731Z",
  "devdoc": {
    "kind": "dev",
    "methods": {
      "balanceOf(address,uint256)": {
        "details": "See {IERC1155-balanceOf}. Requirements: - `account` cannot be the zero address."
      },
      "balanceOfBatch(address[],uint256[])": {
        "details": "See {IERC1155-balanceOfBatch}. Requirements: - `accounts` and `ids` must have the same length."
      },
      "isApprovedForAll(address,address)": {
        "details": "See {IERC1155-isApprovedForAll}."
      },
      "safeBatchTransferFrom(address,address,uint256[],uint256[],bytes)": {
        "details": "See {IERC1155-safeBatchTransferFrom}."
      },
      "safeTransferFrom(address,address,uint256,uint256,bytes)": {
        "details": "See {IERC1155-safeTransferFrom}."
      },
      "setApprovalForAll(address,bool)": {
        "details": "See {IERC1155-setApprovalForAll}."
      },
      "supportsInterface(bytes4)": {
        "details": "See {IERC165-supportsInterface}."
      }
    },
    "version": 1
  },
  "userdoc": {
    "kind": "user",
    "methods": {},
    "version": 1
  }
}