{
  "contractName": "CockFight",
  "abi": [
    {
      "inputs": [
        {
          "internalType": "address",
          "name": "_accessControl",
          "type": "address"
        },
        {
          "internalType": "address",
          "name": "_receiveWallet",
          "type": "address"
        },
        {
          "internalType": "address",
          "name": "_eggContract",
          "type": "address"
        },
        {
          "internalType": "address",
          "name": "_erc20Contract",
          "type": "address"
        },
        {
          "internalType": "address",
          "name": "_eggItemContract",
          "type": "address"
        },
        {
          "internalType": "address",
          "name": "_cockerelChickContract",
          "type": "address"
        },
        {
          "internalType": "address",
          "name": "_pulletChickContract",
          "type": "address"
        },
        {
          "internalType": "address",
          "name": "_chickItemContract",
          "type": "address"
        },
        {
          "internalType": "address",
          "name": "_cockContract",
          "type": "address"
        },
        {
          "internalType": "address",
          "name": "_henContract",
          "type": "address"
        },
        {
          "internalType": "address",
          "name": "_cockItemContract",
          "type": "address"
        }
      ],
      "stateMutability": "nonpayable",
      "type": "constructor"
    },
    {
      "inputs": [
        {
          "internalType": "address",
          "name": "chick",
          "type": "address"
        },
        {
          "internalType": "uint256",
          "name": "tokenId",
          "type": "uint256"
        }
      ],
      "name": "ChickAlreadyUpgradeError",
      "type": "error"
    },
    {
      "inputs": [],
      "name": "ChickApproveError",
      "type": "error"
    },
    {
      "inputs": [
        {
          "internalType": "address",
          "name": "_cockContract",
          "type": "address"
        }
      ],
      "name": "ChickGrowManagerError",
      "type": "error"
    },
    {
      "inputs": [
        {
          "internalType": "address",
          "name": "_owner",
          "type": "address"
        }
      ],
      "name": "ChickGrowOwnerError",
      "type": "error"
    },
    {
      "inputs": [
        {
          "internalType": "uint256",
          "name": "_timestamp",
          "type": "uint256"
        }
      ],
      "name": "ChickGrowUnsatisfactoryTime",
      "type": "error"
    },
    {
      "inputs": [],
      "name": "ChickItemExpired",
      "type": "error"
    },
    {
      "inputs": [],
      "name": "ConsumeDayZeroError",
      "type": "error"
    },
    {
      "inputs": [],
      "name": "ConsumeItemExpired",
      "type": "error"
    },
    {
      "inputs": [
        {
          "internalType": "address",
          "name": "wallet",
          "type": "address"
        },
        {
          "internalType": "uint256",
          "name": "itemTokenId",
          "type": "uint256"
        }
      ],
      "name": "ConsumeItemNotEnoughError",
      "type": "error"
    },
    {
      "inputs": [
        {
          "internalType": "address",
          "name": "eggContract",
          "type": "address"
        },
        {
          "internalType": "address",
          "name": "eggItemContract",
          "type": "address"
        }
      ],
      "name": "ConsumeManagerError",
      "type": "error"
    },
    {
      "inputs": [
        {
          "internalType": "address",
          "name": "wallet",
          "type": "address"
        }
      ],
      "name": "ConsumeOwnerError",
      "type": "error"
    },
    {
      "inputs": [],
      "name": "ConsumeTimeShrinkError",
      "type": "error"
    },
    {
      "inputs": [
        {
          "internalType": "address",
          "name": "eggContract",
          "type": "address"
        }
      ],
      "name": "EggHatchManagerError",
      "type": "error"
    },
    {
      "inputs": [
        {
          "internalType": "address",
          "name": "wallet",
          "type": "address"
        }
      ],
      "name": "EggHatchOwnerError",
      "type": "error"
    },
    {
      "inputs": [
        {
          "internalType": "uint256",
          "name": "eggTimestamp",
          "type": "uint256"
        }
      ],
      "name": "EggHatchUnsatisfactoryTime",
      "type": "error"
    },
    {
      "anonymous": false,
      "inputs": [
        {
          "indexed": false,
          "internalType": "address",
          "name": "chickContract",
          "type": "address"
        },
        {
          "indexed": false,
          "internalType": "uint256",
          "name": "chickTokenId",
          "type": "uint256"
        },
        {
          "indexed": false,
          "internalType": "address",
          "name": "itemContract",
          "type": "address"
        },
        {
          "indexed": false,
          "internalType": "uint256",
          "name": "itemTokenId",
          "type": "uint256"
        },
        {
          "indexed": false,
          "internalType": "uint256",
          "name": "itemAmount",
          "type": "uint256"
        },
        {
          "indexed": false,
          "internalType": "uint256",
          "name": "datesToSubtract",
          "type": "uint256"
        }
      ],
      "name": "ChickConsumeItem",
      "type": "event"
    },
    {
      "anonymous": false,
      "inputs": [
        {
          "indexed": false,
          "internalType": "address",
          "name": "chickContract",
          "type": "address"
        },
        {
          "indexed": false,
          "internalType": "uint256",
          "name": "chickTokenId",
          "type": "uint256"
        },
        {
          "indexed": false,
          "internalType": "address",
          "name": "itemContract",
          "type": "address"
        },
        {
          "indexed": false,
          "internalType": "uint256",
          "name": "itemTokenId",
          "type": "uint256"
        },
        {
          "indexed": false,
          "internalType": "uint256",
          "name": "itemAmount",
          "type": "uint256"
        },
        {
          "indexed": false,
          "internalType": "uint256",
          "name": "point",
          "type": "uint256"
        },
        {
          "indexed": false,
          "internalType": "bool",
          "name": "isDead",
          "type": "bool"
        }
      ],
      "name": "ChickConsumeItemStats",
      "type": "event"
    },
    {
      "anonymous": false,
      "inputs": [
        {
          "indexed": false,
          "internalType": "address",
          "name": "chickItemContract",
          "type": "address"
        },
        {
          "indexed": false,
          "internalType": "address",
          "name": "owner",
          "type": "address"
        },
        {
          "indexed": false,
          "internalType": "uint256",
          "name": "tokenId",
          "type": "uint256"
        },
        {
          "indexed": false,
          "internalType": "uint256",
          "name": "amount",
          "type": "uint256"
        },
        {
          "indexed": false,
          "internalType": "uint256",
          "name": "price",
          "type": "uint256"
        }
      ],
      "name": "ChickItemBuy",
      "type": "event"
    },
    {
      "anonymous": false,
      "inputs": [
        {
          "indexed": false,
          "internalType": "address",
          "name": "cockItemContract",
          "type": "address"
        },
        {
          "indexed": false,
          "internalType": "address",
          "name": "owner",
          "type": "address"
        },
        {
          "indexed": false,
          "internalType": "uint256",
          "name": "tokenId",
          "type": "uint256"
        },
        {
          "indexed": false,
          "internalType": "uint256",
          "name": "amount",
          "type": "uint256"
        },
        {
          "indexed": false,
          "internalType": "uint256",
          "name": "price",
          "type": "uint256"
        }
      ],
      "name": "CockItemBuy",
      "type": "event"
    },
    {
      "anonymous": false,
      "inputs": [
        {
          "indexed": false,
          "internalType": "address",
          "name": "_cockContract",
          "type": "address"
        },
        {
          "indexed": false,
          "internalType": "uint256",
          "name": "_cockTokenId",
          "type": "uint256"
        },
        {
          "indexed": false,
          "internalType": "address",
          "name": "_cockItemContract",
          "type": "address"
        },
        {
          "indexed": false,
          "internalType": "uint256",
          "name": "_cockItemTokenId",
          "type": "uint256"
        },
        {
          "indexed": false,
          "internalType": "uint256",
          "name": "_cockItemAmount",
          "type": "uint256"
        },
        {
          "indexed": false,
          "internalType": "address",
          "name": "owner",
          "type": "address"
        }
      ],
      "name": "CockLifeItem",
      "type": "event"
    },
    {
      "anonymous": false,
      "inputs": [
        {
          "indexed": false,
          "internalType": "address",
          "name": "owner",
          "type": "address"
        },
        {
          "indexed": false,
          "internalType": "uint256",
          "name": "attack",
          "type": "uint256"
        },
        {
          "indexed": false,
          "internalType": "uint256",
          "name": "attackSpeed",
          "type": "uint256"
        },
        {
          "indexed": false,
          "internalType": "uint256",
          "name": "critChance",
          "type": "uint256"
        },
        {
          "indexed": false,
          "internalType": "uint256",
          "name": "health",
          "type": "uint256"
        },
        {
          "indexed": false,
          "internalType": "uint256",
          "name": "evasion",
          "type": "uint256"
        }
      ],
      "name": "CockMint",
      "type": "event"
    },
    {
      "anonymous": false,
      "inputs": [
        {
          "indexed": false,
          "internalType": "address",
          "name": "eggContract",
          "type": "address"
        },
        {
          "indexed": false,
          "internalType": "uint256",
          "name": "eggTokenId",
          "type": "uint256"
        },
        {
          "indexed": false,
          "internalType": "address",
          "name": "eggItemContract",
          "type": "address"
        },
        {
          "indexed": false,
          "internalType": "uint256",
          "name": "eggItemTokenId",
          "type": "uint256"
        },
        {
          "indexed": false,
          "internalType": "uint256",
          "name": "eggItemAmount",
          "type": "uint256"
        },
        {
          "indexed": false,
          "internalType": "uint256",
          "name": "datesToSubtract",
          "type": "uint256"
        }
      ],
      "name": "EggConsumeItem",
      "type": "event"
    },
    {
      "anonymous": false,
      "inputs": [
        {
          "indexed": false,
          "internalType": "address",
          "name": "owner",
          "type": "address"
        },
        {
          "indexed": false,
          "internalType": "address",
          "name": "eggContract",
          "type": "address"
        },
        {
          "indexed": false,
          "internalType": "uint256",
          "name": "tokenId",
          "type": "uint256"
        },
        {
          "indexed": false,
          "internalType": "address",
          "name": "chickContract",
          "type": "address"
        }
      ],
      "name": "EggHatchResult",
      "type": "event"
    },
    {
      "anonymous": false,
      "inputs": [
        {
          "indexed": false,
          "internalType": "address",
          "name": "eggItemContract",
          "type": "address"
        },
        {
          "indexed": false,
          "internalType": "address",
          "name": "owner",
          "type": "address"
        },
        {
          "indexed": false,
          "internalType": "uint256",
          "name": "tokenId",
          "type": "uint256"
        },
        {
          "indexed": false,
          "internalType": "uint256",
          "name": "amount",
          "type": "uint256"
        },
        {
          "indexed": false,
          "internalType": "uint256",
          "name": "price",
          "type": "uint256"
        }
      ],
      "name": "EggItemBuy",
      "type": "event"
    },
    {
      "anonymous": false,
      "inputs": [
        {
          "indexed": false,
          "internalType": "address",
          "name": "owner",
          "type": "address"
        }
      ],
      "name": "HenMint",
      "type": "event"
    },
    {
      "anonymous": false,
      "inputs": [
        {
          "indexed": true,
          "internalType": "address",
          "name": "accessContract",
          "type": "address"
        }
      ],
      "name": "NewAccessControlManager",
      "type": "event"
    },
    {
      "anonymous": false,
      "inputs": [
        {
          "indexed": true,
          "internalType": "address",
          "name": "chickItemContract",
          "type": "address"
        }
      ],
      "name": "NewChickItemManager",
      "type": "event"
    },
    {
      "anonymous": false,
      "inputs": [
        {
          "indexed": true,
          "internalType": "address",
          "name": "cockItemContract",
          "type": "address"
        }
      ],
      "name": "NewCockItemManager",
      "type": "event"
    },
    {
      "anonymous": false,
      "inputs": [
        {
          "indexed": true,
          "internalType": "address",
          "name": "cockContract",
          "type": "address"
        }
      ],
      "name": "NewCockManager",
      "type": "event"
    },
    {
      "anonymous": false,
      "inputs": [
        {
          "indexed": true,
          "internalType": "address",
          "name": "cockerelChickContract",
          "type": "address"
        }
      ],
      "name": "NewCockerelChickManager",
      "type": "event"
    },
    {
      "anonymous": false,
      "inputs": [
        {
          "indexed": true,
          "internalType": "address",
          "name": "eggItemContract",
          "type": "address"
        }
      ],
      "name": "NewEggItemManager",
      "type": "event"
    },
    {
      "anonymous": false,
      "inputs": [
        {
          "indexed": true,
          "internalType": "address",
          "name": "eggContract",
          "type": "address"
        }
      ],
      "name": "NewEggManager",
      "type": "event"
    },
    {
      "anonymous": false,
      "inputs": [
        {
          "indexed": true,
          "internalType": "address",
          "name": "henContract",
          "type": "address"
        }
      ],
      "name": "NewHenManager",
      "type": "event"
    },
    {
      "anonymous": false,
      "inputs": [
        {
          "indexed": true,
          "internalType": "address",
          "name": "pulletChickContract",
          "type": "address"
        }
      ],
      "name": "NewPulletChickManager",
      "type": "event"
    },
    {
      "anonymous": false,
      "inputs": [
        {
          "indexed": true,
          "internalType": "address",
          "name": "wallet",
          "type": "address"
        }
      ],
      "name": "NewReceiveWallet",
      "type": "event"
    },
    {
      "anonymous": false,
      "inputs": [
        {
          "indexed": false,
          "internalType": "string",
          "name": "word",
          "type": "string"
        }
      ],
      "name": "NewSecretWord",
      "type": "event"
    },
    {
      "anonymous": false,
      "inputs": [
        {
          "indexed": false,
          "internalType": "uint256",
          "name": "Male",
          "type": "uint256"
        },
        {
          "indexed": false,
          "internalType": "uint256",
          "name": "FeMale",
          "type": "uint256"
        }
      ],
      "name": "NewSex",
      "type": "event"
    },
    {
      "anonymous": false,
      "inputs": [
        {
          "indexed": true,
          "internalType": "address",
          "name": "tokenContract",
          "type": "address"
        }
      ],
      "name": "NewTokenManager",
      "type": "event"
    },
    {
      "anonymous": false,
      "inputs": [
        {
          "indexed": true,
          "internalType": "address",
          "name": "walletAddress",
          "type": "address"
        },
        {
          "indexed": false,
          "internalType": "uint256",
          "name": "withdrawAmount",
          "type": "uint256"
        }
      ],
      "name": "Withdraw",
      "type": "event"
    },
    {
      "anonymous": false,
      "inputs": [
        {
          "indexed": true,
          "internalType": "address",
          "name": "walletAddress",
          "type": "address"
        },
        {
          "indexed": false,
          "internalType": "uint256",
          "name": "withdrawAmount",
          "type": "uint256"
        },
        {
          "indexed": false,
          "internalType": "address",
          "name": "tokenContract",
          "type": "address"
        }
      ],
      "name": "WithdrawToken",
      "type": "event"
    },
    {
      "inputs": [],
      "name": "FeMale",
      "outputs": [
        {
          "internalType": "uint256",
          "name": "",
          "type": "uint256"
        }
      ],
      "stateMutability": "view",
      "type": "function"
    },
    {
      "inputs": [],
      "name": "Male",
      "outputs": [
        {
          "internalType": "uint256",
          "name": "",
          "type": "uint256"
        }
      ],
      "stateMutability": "view",
      "type": "function"
    },
    {
      "inputs": [],
      "name": "accessControlManager",
      "outputs": [
        {
          "internalType": "contract ICFNAccessControl",
          "name": "",
          "type": "address"
        }
      ],
      "stateMutability": "view",
      "type": "function"
    },
    {
      "inputs": [],
      "name": "chickFemaleCount",
      "outputs": [
        {
          "internalType": "uint256",
          "name": "",
          "type": "uint256"
        }
      ],
      "stateMutability": "view",
      "type": "function"
    },
    {
      "inputs": [],
      "name": "chickItemManager",
      "outputs": [
        {
          "internalType": "contract IChickItem",
          "name": "",
          "type": "address"
        }
      ],
      "stateMutability": "view",
      "type": "function"
    },
    {
      "inputs": [],
      "name": "chickMaleCount",
      "outputs": [
        {
          "internalType": "uint256",
          "name": "",
          "type": "uint256"
        }
      ],
      "stateMutability": "view",
      "type": "function"
    },
    {
      "inputs": [],
      "name": "cockItemManager",
      "outputs": [
        {
          "internalType": "contract ICockItem",
          "name": "",
          "type": "address"
        }
      ],
      "stateMutability": "view",
      "type": "function"
    },
    {
      "inputs": [],
      "name": "cockManager",
      "outputs": [
        {
          "internalType": "contract ICock",
          "name": "",
          "type": "address"
        }
      ],
      "stateMutability": "view",
      "type": "function"
    },
    {
      "inputs": [],
      "name": "cockerelChickManager",
      "outputs": [
        {
          "internalType": "contract ICockerelChick",
          "name": "",
          "type": "address"
        }
      ],
      "stateMutability": "view",
      "type": "function"
    },
    {
      "inputs": [],
      "name": "eggItemManager",
      "outputs": [
        {
          "internalType": "contract IEggItem",
          "name": "",
          "type": "address"
        }
      ],
      "stateMutability": "view",
      "type": "function"
    },
    {
      "inputs": [],
      "name": "eggManager",
      "outputs": [
        {
          "internalType": "contract IEgg",
          "name": "",
          "type": "address"
        }
      ],
      "stateMutability": "view",
      "type": "function"
    },
    {
      "inputs": [],
      "name": "henManager",
      "outputs": [
        {
          "internalType": "contract IHen",
          "name": "",
          "type": "address"
        }
      ],
      "stateMutability": "view",
      "type": "function"
    },
    {
      "inputs": [],
      "name": "name",
      "outputs": [
        {
          "internalType": "string",
          "name": "",
          "type": "string"
        }
      ],
      "stateMutability": "view",
      "type": "function"
    },
    {
      "inputs": [],
      "name": "pulletChickManager",
      "outputs": [
        {
          "internalType": "contract IPulletChick",
          "name": "",
          "type": "address"
        }
      ],
      "stateMutability": "view",
      "type": "function"
    },
    {
      "inputs": [],
      "name": "receiveWallet",
      "outputs": [
        {
          "internalType": "address payable",
          "name": "",
          "type": "address"
        }
      ],
      "stateMutability": "view",
      "type": "function"
    },
    {
      "inputs": [],
      "name": "symbol",
      "outputs": [
        {
          "internalType": "string",
          "name": "",
          "type": "string"
        }
      ],
      "stateMutability": "view",
      "type": "function"
    },
    {
      "inputs": [],
      "name": "tokenManager",
      "outputs": [
        {
          "internalType": "contract IERC20",
          "name": "",
          "type": "address"
        }
      ],
      "stateMutability": "view",
      "type": "function"
    },
    {
      "inputs": [
        {
          "internalType": "string",
          "name": "_newSecret",
          "type": "string"
        }
      ],
      "name": "updateSecretWord",
      "outputs": [],
      "stateMutability": "nonpayable",
      "type": "function"
    },
    {
      "inputs": [
        {
          "internalType": "uint256",
          "name": "_female",
          "type": "uint256"
        }
      ],
      "name": "updateFeMale",
      "outputs": [],
      "stateMutability": "nonpayable",
      "type": "function"
    },
    {
      "inputs": [
        {
          "internalType": "address",
          "name": "_accessControlContract",
          "type": "address"
        }
      ],
      "name": "updateAccessControlManager",
      "outputs": [],
      "stateMutability": "nonpayable",
      "type": "function"
    },
    {
      "inputs": [
        {
          "internalType": "address",
          "name": "_receiveWallet",
          "type": "address"
        }
      ],
      "name": "updateReceiveWallet",
      "outputs": [],
      "stateMutability": "nonpayable",
      "type": "function"
    },
    {
      "inputs": [
        {
          "internalType": "address",
          "name": "_eggContract",
          "type": "address"
        }
      ],
      "name": "updateEggManager",
      "outputs": [],
      "stateMutability": "nonpayable",
      "type": "function"
    },
    {
      "inputs": [
        {
          "internalType": "address",
          "name": "_tokenContract",
          "type": "address"
        }
      ],
      "name": "updateTokenManager",
      "outputs": [],
      "stateMutability": "nonpayable",
      "type": "function"
    },
    {
      "inputs": [
        {
          "internalType": "address",
          "name": "_eggItemContract",
          "type": "address"
        }
      ],
      "name": "updateEggItemManager",
      "outputs": [],
      "stateMutability": "nonpayable",
      "type": "function"
    },
    {
      "inputs": [
        {
          "internalType": "address",
          "name": "_cockerelChickContract",
          "type": "address"
        }
      ],
      "name": "updateCockerelChickManager",
      "outputs": [],
      "stateMutability": "nonpayable",
      "type": "function"
    },
    {
      "inputs": [
        {
          "internalType": "address",
          "name": "_pulletChickContract",
          "type": "address"
        }
      ],
      "name": "updatePulletChickManager",
      "outputs": [],
      "stateMutability": "nonpayable",
      "type": "function"
    },
    {
      "inputs": [
        {
          "internalType": "address",
          "name": "_chickItemContract",
          "type": "address"
        }
      ],
      "name": "updateChickItemManager",
      "outputs": [],
      "stateMutability": "nonpayable",
      "type": "function"
    },
    {
      "inputs": [
        {
          "internalType": "address",
          "name": "_cockContract",
          "type": "address"
        }
      ],
      "name": "updateCockManager",
      "outputs": [],
      "stateMutability": "nonpayable",
      "type": "function"
    },
    {
      "inputs": [
        {
          "internalType": "address",
          "name": "_henContract",
          "type": "address"
        }
      ],
      "name": "updateHenManager",
      "outputs": [],
      "stateMutability": "nonpayable",
      "type": "function"
    },
    {
      "inputs": [
        {
          "internalType": "address",
          "name": "_cockItemContract",
          "type": "address"
        }
      ],
      "name": "updateCockItemManager",
      "outputs": [],
      "stateMutability": "nonpayable",
      "type": "function"
    },
    {
      "inputs": [
        {
          "internalType": "string",
          "name": "_secret",
          "type": "string"
        },
        {
          "internalType": "string",
          "name": "_nonce",
          "type": "string"
        }
      ],
      "name": "getCommitHash",
      "outputs": [
        {
          "internalType": "bytes32",
          "name": "",
          "type": "bytes32"
        }
      ],
      "stateMutability": "pure",
      "type": "function"
    },
    {
      "inputs": [],
      "name": "withdrawTokenAll",
      "outputs": [],
      "stateMutability": "nonpayable",
      "type": "function"
    },
    {
      "inputs": [
        {
          "internalType": "uint256",
          "name": "_amount",
          "type": "uint256"
        }
      ],
      "name": "withdrawToken",
      "outputs": [],
      "stateMutability": "nonpayable",
      "type": "function"
    },
    {
      "inputs": [],
      "name": "withdrawCoinAll",
      "outputs": [],
      "stateMutability": "payable",
      "type": "function"
    },
    {
      "inputs": [
        {
          "internalType": "uint256",
          "name": "_amount",
          "type": "uint256"
        }
      ],
      "name": "withdrawCoin",
      "outputs": [],
      "stateMutability": "payable",
      "type": "function"
    },
    {
      "inputs": [
        {
          "internalType": "uint256",
          "name": "_tokenId",
          "type": "uint256"
        }
      ],
      "name": "getEggHatchCalculate",
      "outputs": [
        {
          "internalType": "uint256",
          "name": "currentTimestamp",
          "type": "uint256"
        },
        {
          "internalType": "uint256",
          "name": "timestamp3Weeks",
          "type": "uint256"
        },
        {
          "internalType": "uint256",
          "name": "timestampRemaining",
          "type": "uint256"
        }
      ],
      "stateMutability": "view",
      "type": "function"
    },
    {
      "inputs": [
        {
          "components": [
            {
              "internalType": "address",
              "name": "eggContract",
              "type": "address"
            },
            {
              "internalType": "uint256",
              "name": "eggTokenId",
              "type": "uint256"
            },
            {
              "internalType": "address",
              "name": "eggItemContract",
              "type": "address"
            },
            {
              "internalType": "uint256",
              "name": "eggItemTokenId",
              "type": "uint256"
            },
            {
              "internalType": "uint256",
              "name": "eggItemAmount",
              "type": "uint256"
            }
          ],
          "internalType": "struct ItemTypes.EggConsumeItem",
          "name": "consume",
          "type": "tuple"
        }
      ],
      "name": "eggConsumeItem",
      "outputs": [],
      "stateMutability": "nonpayable",
      "type": "function"
    },
    {
      "inputs": [
        {
          "internalType": "address",
          "name": "eggContract",
          "type": "address"
        },
        {
          "internalType": "uint256",
          "name": "tokenId",
          "type": "uint256"
        }
      ],
      "name": "eggHatch",
      "outputs": [],
      "stateMutability": "nonpayable",
      "type": "function"
    },
    {
      "inputs": [
        {
          "internalType": "uint256",
          "name": "_tokenId",
          "type": "uint256"
        }
      ],
      "name": "getCockerelChickCalculate",
      "outputs": [
        {
          "internalType": "uint256",
          "name": "currentTimestamp",
          "type": "uint256"
        },
        {
          "internalType": "uint256",
          "name": "timestamp30Days",
          "type": "uint256"
        },
        {
          "internalType": "uint256",
          "name": "timestampRemaining",
          "type": "uint256"
        }
      ],
      "stateMutability": "view",
      "type": "function"
    },
    {
      "inputs": [
        {
          "internalType": "uint256",
          "name": "_tokenId",
          "type": "uint256"
        }
      ],
      "name": "getPulletChickCalculate",
      "outputs": [
        {
          "internalType": "uint256",
          "name": "currentTimestamp",
          "type": "uint256"
        },
        {
          "internalType": "uint256",
          "name": "timestamp30Days",
          "type": "uint256"
        },
        {
          "internalType": "uint256",
          "name": "timestampRemaining",
          "type": "uint256"
        }
      ],
      "stateMutability": "view",
      "type": "function"
    },
    {
      "inputs": [
        {
          "components": [
            {
              "internalType": "address",
              "name": "CockerelChickContract",
              "type": "address"
            },
            {
              "internalType": "uint256",
              "name": "CockerelChickTokenId",
              "type": "uint256"
            },
            {
              "internalType": "address",
              "name": "PulletChickContract",
              "type": "address"
            },
            {
              "internalType": "uint256",
              "name": "PulletChickTokenId",
              "type": "uint256"
            },
            {
              "internalType": "address",
              "name": "chickItemContract",
              "type": "address"
            },
            {
              "internalType": "uint256",
              "name": "chickItemTokenId",
              "type": "uint256"
            },
            {
              "internalType": "uint256",
              "name": "chickItemAmount",
              "type": "uint256"
            }
          ],
          "internalType": "struct ItemTypes.ChickConsumeItem",
          "name": "consume",
          "type": "tuple"
        }
      ],
      "name": "chickConsumeItem",
      "outputs": [],
      "stateMutability": "nonpayable",
      "type": "function"
    },
    {
      "inputs": [
        {
          "internalType": "address",
          "name": "_cockerelChickContract",
          "type": "address"
        },
        {
          "internalType": "uint256",
          "name": "_tokenId",
          "type": "uint256"
        }
      ],
      "name": "cockerelChickGrow",
      "outputs": [],
      "stateMutability": "nonpayable",
      "type": "function"
    },
    {
      "inputs": [
        {
          "internalType": "address",
          "name": "_pulletChickContract",
          "type": "address"
        },
        {
          "internalType": "uint256",
          "name": "_tokenId",
          "type": "uint256"
        }
      ],
      "name": "pulletChickGrow",
      "outputs": [],
      "stateMutability": "nonpayable",
      "type": "function"
    },
    {
      "inputs": [
        {
          "internalType": "uint256",
          "name": "_tokenId",
          "type": "uint256"
        },
        {
          "internalType": "uint256",
          "name": "_status",
          "type": "uint256"
        }
      ],
      "name": "manageCockEntry",
      "outputs": [],
      "stateMutability": "nonpayable",
      "type": "function"
    },
    {
      "inputs": [
        {
          "internalType": "uint256",
          "name": "_tokenId",
          "type": "uint256"
        },
        {
          "internalType": "uint256",
          "name": "_status",
          "type": "uint256"
        },
        {
          "internalType": "uint256",
          "name": "_win",
          "type": "uint256"
        },
        {
          "internalType": "uint256",
          "name": "_lose",
          "type": "uint256"
        },
        {
          "internalType": "uint256",
          "name": "_draw",
          "type": "uint256"
        }
      ],
      "name": "cockGameUpdate",
      "outputs": [],
      "stateMutability": "nonpayable",
      "type": "function"
    },
    {
      "inputs": [
        {
          "components": [
            {
              "internalType": "address",
              "name": "CockContract",
              "type": "address"
            },
            {
              "internalType": "uint256",
              "name": "CockTokenId",
              "type": "uint256"
            },
            {
              "internalType": "address",
              "name": "cockItemContract",
              "type": "address"
            },
            {
              "internalType": "uint256",
              "name": "cockItemTokenId",
              "type": "uint256"
            },
            {
              "internalType": "uint256",
              "name": "cockItemAmount",
              "type": "uint256"
            }
          ],
          "internalType": "struct ItemTypes.CockConsumeItem",
          "name": "consume",
          "type": "tuple"
        }
      ],
      "name": "cockUseLifeItem",
      "outputs": [],
      "stateMutability": "nonpayable",
      "type": "function"
    },
    {
      "inputs": [
        {
          "internalType": "uint256",
          "name": "_tokenId",
          "type": "uint256"
        },
        {
          "internalType": "uint256",
          "name": "_amount",
          "type": "uint256"
        }
      ],
      "name": "eggItemBuy",
      "outputs": [],
      "stateMutability": "nonpayable",
      "type": "function"
    },
    {
      "inputs": [
        {
          "internalType": "uint256",
          "name": "_tokenId",
          "type": "uint256"
        },
        {
          "internalType": "uint256",
          "name": "_amount",
          "type": "uint256"
        }
      ],
      "name": "chickItemBuy",
      "outputs": [],
      "stateMutability": "nonpayable",
      "type": "function"
    },
    {
      "inputs": [
        {
          "internalType": "uint256",
          "name": "_tokenId",
          "type": "uint256"
        },
        {
          "internalType": "uint256",
          "name": "_amount",
          "type": "uint256"
        }
      ],
      "name": "cockItemBuy",
      "outputs": [],
      "stateMutability": "nonpayable",
      "type": "function"
    }
  ],
  "bytecode": "0x600180546001600160a01b03191661dead17905560c0604052601d60808190527f436f636b6669676874204e6574776f726b204563686f2053797374656d00000060a0908152620000549160029190620002de565b506040805180820190915260098082526810dbd8dad99a59da1d60ba1b60209092019182526200008791600391620002de565b506040805180820190915260088082526721a3272a37b5b2b760c11b6020909201918252620000b991600491620002de565b506103e3600555600560065560006007556000600855348015620000dc57600080fd5b5060405162005de838038062005de8833981016040819052620000ff91620003a1565b60016000556001600160a01b038b16158015906200012557506001600160a01b038a1615155b80156200013a57506001600160a01b03891615155b80156200014f57506001600160a01b03881615155b80156200016457506001600160a01b03861615155b80156200017957506001600160a01b03851615155b80156200018e57506001600160a01b03841615155b8015620001a357506001600160a01b03831615155b8015620001b857506001600160a01b03821615155b8015620001cd57506001600160a01b03811615155b6200021e5760405162461bcd60e51b815260206004820152601760248201527f43616e6e6f74206265206e756c6c20616464726573732e000000000000000000604482015260640160405180910390fd5b600980546001600160a01b03199081166001600160a01b039d8e1617909155600a805482169b8d169b909b17909a55600b80548b16998c1699909917909855600c80548a16978b1697909717909655600d80548916958a1695909517909455600e8054881693891693909317909255600f80548716918816919091179055601080548616918716919091179055601180548516918616919091179055601280548416918516919091179055601380549092169216919091179055620004c1565b828054620002ec9062000484565b90600052602060002090601f0160209004810192826200031057600085556200035b565b82601f106200032b57805160ff19168380011785556200035b565b828001600101855582156200035b579182015b828111156200035b5782518255916020019190600101906200033e565b50620003699291506200036d565b5090565b5b808211156200036957600081556001016200036e565b80516001600160a01b03811681146200039c57600080fd5b919050565b60008060008060008060008060008060006101608c8e031215620003c457600080fd5b620003cf8c62000384565b9a50620003df60208d0162000384565b9950620003ef60408d0162000384565b9850620003ff60608d0162000384565b97506200040f60808d0162000384565b96506200041f60a08d0162000384565b95506200042f60c08d0162000384565b94506200043f60e08d0162000384565b9350620004506101008d0162000384565b9250620004616101208d0162000384565b9150620004726101408d0162000384565b90509295989b509295989b9093969950565b600181811c908216806200049957607f821691505b60208210811415620004bb57634e487b7160e01b600052602260045260246000fd5b50919050565b61591780620004d16000396000f3fe6080604052600436106102ae5760003560e01c8063697cfb9a11610175578063b4a0bdf3116100dc578063c400816b11610095578063e3fc91cc1161006f578063e3fc91cc1461083a578063e92622bc1461085a578063eae57c5f1461087a578063f1f516231461089a57600080fd5b8063c400816b146107f2578063cb1d9da914610812578063ce35d2221461081a57600080fd5b8063b4a0bdf314610732578063b559e4c414610752578063b7ebc34514610772578063bc624deb14610792578063be0087c4146107b2578063c185e25f146107d257600080fd5b806395d89b411161012e57806395d89b411461068757806396092fd41461069c5780639da7fa70146106bc578063a25e339d146106d2578063ab51784f146106f2578063ad08de501461071257600080fd5b8063697cfb9a146105dc5780636a252ed3146105fc57806373a92daa1461061c5780637dcad3551461063c5780637fc0254d1461065c578063846a93801461067157600080fd5b806343d56acb1161021957806350c39cf3116101d257806350c39cf3146105225780635150efde146105425780635d313295146105665780635ee1cc871461058657806360360dd7146105a657806363f20538146105c657600080fd5b806343d56acb1461046f5780634656815c1461048f5780634d02f884146104af5780634eb264e8146104cf5780634f01e51b146104e257806350baa6221461050257600080fd5b806326c3ee841161026b57806326c3ee84146103af578063292029cb146103cf5780632a709b14146103ef5780633110a7911461040f578063353ff05a1461042f578063365552401461044f57600080fd5b8063013b367f146102b35780630221226e146102d557806306fdde03146103155780630b5d4d821461033757806313ad79631461036f57806322f92b591461038f575b600080fd5b3480156102bf57600080fd5b506102d36102ce366004615077565b6108ba565b005b3480156102e157600080fd5b506102f56102f036600461537b565b610d2b565b604080519384526020840192909252908201526060015b60405180910390f35b34801561032157600080fd5b5061032a610deb565b60405161030c919061561b565b34801561034357600080fd5b50601054610357906001600160a01b031681565b6040516001600160a01b03909116815260200161030c565b34801561037b57600080fd5b506102d361038a3660046153d9565b610e79565b34801561039b57600080fd5b506102d36103aa3660046152c1565b6110ae565b3480156103bb57600080fd5b506102d36103ca366004615036565b6115e4565b3480156103db57600080fd5b506102d36103ea3660046153d9565b6116c7565b3480156103fb57600080fd5b50600c54610357906001600160a01b031681565b34801561041b57600080fd5b506102d361042a3660046153fb565b6118d1565b34801561043b57600080fd5b50601354610357906001600160a01b031681565b34801561045b57600080fd5b506102d361046a366004615077565b611ac0565b34801561047b57600080fd5b506102d361048a36600461537b565b611df1565b34801561049b57600080fd5b506102d36104aa366004615036565b611f27565b3480156104bb57600080fd5b506102d36104ca366004615036565b61200a565b6102d36104dd36600461537b565b6120ed565b3480156104ee57600080fd5b506102d36104fd366004615036565b6122f7565b34801561050e57600080fd5b506102d361051d36600461537b565b6123da565b34801561052e57600080fd5b506102d361053d366004615157565b612660565b34801561054e57600080fd5b5061055860065481565b60405190815260200161030c565b34801561057257600080fd5b50600a54610357906001600160a01b031681565b34801561059257600080fd5b506102d36105a13660046153d9565b61336d565b3480156105b257600080fd5b506102d36105c1366004615036565b61351e565b3480156105d257600080fd5b5061055860055481565b3480156105e857600080fd5b506102d36105f7366004615036565b613601565b34801561060857600080fd5b50600b54610357906001600160a01b031681565b34801561062857600080fd5b506105586106373660046150f3565b6136e4565b34801561064857600080fd5b506102d3610657366004615077565b613717565b34801561066857600080fd5b506102d3613b27565b34801561067d57600080fd5b5061055860085481565b34801561069357600080fd5b5061032a613dab565b3480156106a857600080fd5b50600d54610357906001600160a01b031681565b3480156106c857600080fd5b5061055860075481565b3480156106de57600080fd5b506102d36106ed3660046153d9565b613db8565b3480156106fe57600080fd5b506102d361070d366004615036565b613f69565b34801561071e57600080fd5b506102d361072d366004615036565b61404c565b34801561073e57600080fd5b50600954610357906001600160a01b031681565b34801561075e57600080fd5b506102d361076d366004615036565b61412f565b34801561077e57600080fd5b506102f561078d36600461537b565b614212565b34801561079e57600080fd5b506102d36107ad366004615036565b61424c565b3480156107be57600080fd5b506102d36107cd366004615036565b61432f565b3480156107de57600080fd5b50600f54610357906001600160a01b031681565b3480156107fe57600080fd5b50601254610357906001600160a01b031681565b6102d3614412565b34801561082657600080fd5b506102d36108353660046150be565b6145f0565b34801561084657600080fd5b50600e54610357906001600160a01b031681565b34801561086657600080fd5b506102f561087536600461537b565b6146cb565b34801561088657600080fd5b506102d36108953660046152c1565b614705565b3480156108a657600080fd5b50601154610357906001600160a01b031681565b600954604051636aacbfd760e11b81523360048201819052916001600160a01b03169063d5597fae9060240160206040518083038186803b1580156108fe57600080fd5b505afa158015610912573d6000803e3d6000fd5b505050506040513d601f19601f8201168201806040525081019061093691906150a3565b1561095c5760405162461bcd60e51b815260040161095390615713565b60405180910390fd5b610964614b17565b600b546001600160a01b0384811691161461099d57604051633845446760e11b81526001600160a01b0384166004820152602401610953565b600b546040516331a9108f60e11b81526004810184905233916001600160a01b031690636352211e9060240160206040518083038186803b1580156109e157600080fd5b505afa1580156109f5573d6000803e3d6000fd5b505050506040513d601f19601f82011682018060405250810190610a19919061505a565b6001600160a01b031614610a42576040516301fbc21f60e31b8152336004820152602401610953565b600b54604051636460c42160e11b8152600481018490526000916001600160a01b03169063c8c1884290602401604080518083038186803b158015610a8657600080fd5b505afa158015610a9a573d6000803e3d6000fd5b505050506040513d601f19601f82011682018060405250810190610abe91906151af565b90504281602001511115610aed5780602001516040516353b69a8760e11b815260040161095391815260200190565b600b54600154604051632142170760e11b81526001600160a01b03928316926342842e0e92610b26923392909116908890600401615562565b600060405180830381600087803b158015610b4057600080fd5b505af1158015610b54573d6000803e3d6000fd5b505050506000610b6384614b71565b90506001816001811115610b7957610b796158a0565b1415610c4e57600f546040516335313c2160e11b81523360048201526001600160a01b0390911690636a62784290602401600060405180830381600087803b158015610bc457600080fd5b505af1158015610bd8573d6000803e3d6000fd5b505060088054925090506000610bed8361584d565b9091555050600b54600f54604080513381526001600160a01b039384166020820152908101879052911660608201527f3e5cb0476039d55482e1759c7796fb74ffd7da0d72af8d3439f73a525adc92759060800160405180910390a1610d1a565b600e546040516335313c2160e11b81523360048201526001600160a01b0390911690636a62784290602401600060405180830381600087803b158015610c9357600080fd5b505af1158015610ca7573d6000803e3d6000fd5b505060078054925090506000610cbc8361584d565b9091555050600b54600e54604080513381526001600160a01b039384166020820152908101879052911660608201527f3e5cb0476039d55482e1759c7796fb74ffd7da0d72af8d3439f73a525adc9275906080015b60405180910390a15b5050610d266001600055565b505050565b600e546040516314298f8360e11b8152600481018390526000918291829182916001600160a01b03909116906328531f06906024015b604080518083038186803b158015610d7857600080fd5b505afa158015610d8c573d6000803e3d6000fd5b505050506040513d601f19601f82011682018060405250810190610db091906151af565b805160208201519095509350905042808410610ddd57808260200151610dd691906157d5565b9250610de2565b600092505b50509193909250565b60028054610df890615818565b80601f0160208091040260200160405190810160405280929190818152602001828054610e2490615818565b8015610e715780601f10610e4657610100808354040283529160200191610e71565b820191906000526020600020905b815481529060010190602001808311610e5457829003601f168201915b505050505081565b600954604051633f1e317960e11b81523360048201819052916001600160a01b031690637e3c62f29060240160206040518083038186803b158015610ebd57600080fd5b505afa158015610ed1573d6000803e3d6000fd5b505050506040513d601f19601f82011682018060405250810190610ef591906150a3565b610f115760405162461bcd60e51b815260040161095390615675565b610f19614b17565b8160011415610f5f5760405162461bcd60e51b81526020600482015260126024820152710c481a5cc81b9bdd081cdd5c1c1bdc9d195960721b6044820152606401610953565b60115460405163cddbe72960e01b8152600481018590526000916001600160a01b03169063cddbe7299060240160806040518083038186803b158015610fa457600080fd5b505afa158015610fb8573d6000803e3d6000fd5b505050506040513d601f19601f82011682018060405250810190610fdc9190615169565b80519091508314156110295760405162461bcd60e51b8152602060048201526016602482015275416c726561647920557064617465642073746174757360501b6044820152606401610953565b6011546040516313caacf960e01b815260048101869052602481018590526000604482018190526064820181905260848201526001600160a01b03909116906313caacf99060a401600060405180830381600087803b15801561108b57600080fd5b505af115801561109f573d6000803e3d6000fd5b5050505050610d266001600055565b6110b6614b17565b6110c36020820182615036565b600b546001600160a01b039081169116148015906110ff57506110ec6060820160408301615036565b600d546001600160a01b03908116911614155b1561114d576111116020820182615036565b6111216060830160408401615036565b6040516308409bbb60e21b81526001600160a01b03928316600482015291166024820152604401610953565b600b546040516331a9108f60e11b81526020830135600482015233916001600160a01b031690636352211e9060240160206040518083038186803b15801561119457600080fd5b505afa1580156111a8573d6000803e3d6000fd5b505050506040513d601f19601f820116820180604052508101906111cc919061505a565b6001600160a01b0316146111f5576040516331ad5c8960e01b8152336004820152602401610953565b600d54604051627eeac760e11b81526080830135916001600160a01b03169062fdd58e9061122d903390606087013590600401615549565b60206040518083038186803b15801561124557600080fd5b505afa158015611259573d6000803e3d6000fd5b505050506040513d601f19601f8201168201806040525081019061127d9190615394565b10156112a45733816060013560405163be9ffe2f60e01b8152600401610953929190615549565b600d54604051636c8b703f60e01b8152606083013560048201526000916001600160a01b031690636c8b703f9060240160806040518083038186803b1580156112ec57600080fd5b505afa158015611300573d6000803e3d6000fd5b505050506040513d601f19601f82011682018060405250810190611324919061532e565b600b54604051636460c42160e11b8152602085013560048201529192506000916001600160a01b039091169063c8c1884290602401604080518083038186803b15801561137057600080fd5b505afa158015611384573d6000803e3d6000fd5b505050506040513d601f19601f820116820180604052508101906113a891906151af565b9050428160200151116113ce57604051639f76186960e01b815260040160405180910390fd5b80516020820151116113f3576040516350058e7960e01b815260040160405180910390fd5b60608201516114155760405163d62eafa160e01b815260040160405180910390fd5b600d54604051637a94c56560e11b81526001600160a01b039091169063f5298aca906114519033906060880135906080890135906004016155bf565b600060405180830381600087803b15801561146b57600080fd5b505af115801561147f573d6000803e3d6000fd5b5050825160208401516000935061149692506157d5565b90506000846080013584606001516114ae91906157b6565b82106114cf57846080013584606001516114c891906157b6565b90506114d2565b50805b600b54604051638afc747f60e01b815260208701356004820152336024820152604481018390526000916001600160a01b031690638afc747f90606401602060405180830381600087803b15801561152957600080fd5b505af115801561153d573d6000803e3d6000fd5b505050506040513d601f19601f8201168201806040525081019061156191906150a3565b905080156115d2577fa9e9401deebf79637f79d32900ed64a59e50c01470d371c867cd3da59b265a2c6115976020880188615036565b60208801356115ac60608a0160408b01615036565b89606001358a60800135876040516115c996959493929190615586565b60405180910390a15b50505050506115e16001600055565b50565b600954604051633f1e317960e11b81523360048201819052916001600160a01b031690637e3c62f29060240160206040518083038186803b15801561162857600080fd5b505afa15801561163c573d6000803e3d6000fd5b505050506040513d601f19601f8201168201806040525081019061166091906150a3565b61167c5760405162461bcd60e51b815260040161095390615675565b600980546001600160a01b0319166001600160a01b0384169081179091556040517fea8b2c76280ebcfc6d3bce461d1446949d91929a61dc9c679740f01fddbda81d90600090a25050565b6116cf614b17565b600081116116ef5760405162461bcd60e51b8152600401610953906156ac565b601054604051636c8b703f60e01b8152600481018490526000916001600160a01b031690636c8b703f9060240160c06040518083038186803b15801561173457600080fd5b505afa158015611748573d6000803e3d6000fd5b505050506040513d601f19601f8201168201806040525081019061176c91906151cb565b9050806040015161178f5760405162461bcd60e51b81526004016109539061564e565b60008160600151116117b35760405162461bcd60e51b81526004016109539061564e565b6117dc33308484606001516117c891906157b6565b600c546001600160a01b0316929190614bd4565b60105460405163731133e960e01b81526001600160a01b039091169063731133e990611810903390879087906004016155e0565b600060405180830381600087803b15801561182a57600080fd5b505af115801561183e573d6000803e3d6000fd5b505050507f0742399528a622c5cdd11ec890c422f755ddfb937845d034557e38acff634d6a601060009054906101000a90046001600160a01b031633858586866060015161188c91906157b6565b604080516001600160a01b039687168152959094166020860152928401919091526060830152608082015260a00160405180910390a1506118cd6001600055565b5050565b600954604051633f1e317960e11b81523360048201819052916001600160a01b031690637e3c62f29060240160206040518083038186803b15801561191557600080fd5b505afa158015611929573d6000803e3d6000fd5b505050506040513d601f19601f8201168201806040525081019061194d91906150a3565b6119695760405162461bcd60e51b815260040161095390615675565b611971614b17565b60115460405163cddbe72960e01b8152600481018890526000916001600160a01b03169063cddbe7299060240160806040518083038186803b1580156119b657600080fd5b505afa1580156119ca573d6000803e3d6000fd5b505050506040513d601f19601f820116820180604052508101906119ee9190615169565b805190915060011415611a335760405162461bcd60e51b815260206004820152600d60248201526c416c726561647920646561642160981b6044820152606401610953565b6011546040516313caacf960e01b815260048101899052602481018890526044810187905260648101869052608481018590526001600160a01b03909116906313caacf99060a401600060405180830381600087803b158015611a9557600080fd5b505af1158015611aa9573d6000803e3d6000fd5b5050505050611ab86001600055565b505050505050565b600954604051636aacbfd760e11b81523360048201819052916001600160a01b03169063d5597fae9060240160206040518083038186803b158015611b0457600080fd5b505afa158015611b18573d6000803e3d6000fd5b505050506040513d601f19601f82011682018060405250810190611b3c91906150a3565b15611b595760405162461bcd60e51b815260040161095390615713565b611b61614b17565b600f546001600160a01b03848116911614611b9a576040516318e08af760e11b81526001600160a01b0384166004820152602401610953565b600f546040516331a9108f60e11b81526004810184905233916001600160a01b031690636352211e9060240160206040518083038186803b158015611bde57600080fd5b505afa158015611bf2573d6000803e3d6000fd5b505050506040513d601f19601f82011682018060405250810190611c16919061505a565b6001600160a01b031614611c3f57604051631a8c0ce760e11b8152336004820152602401610953565b600f546040516314298f8360e11b8152600481018490526000916001600160a01b0316906328531f0690602401604080518083038186803b158015611c8357600080fd5b505afa158015611c97573d6000803e3d6000fd5b505050506040513d601f19601f82011682018060405250810190611cbb91906151af565b90504281602001511115611cea578060200151604051632b231a2f60e11b815260040161095391815260200190565b600f54600154604051632142170760e11b81526001600160a01b03928316926342842e0e92611d23923392909116908890600401615562565b600060405180830381600087803b158015611d3d57600080fd5b505af1158015611d51573d6000803e3d6000fd5b50506012546040516335313c2160e11b81523360048201526001600160a01b039091169250636a6278429150602401600060405180830381600087803b158015611d9a57600080fd5b505af1158015611dae573d6000803e3d6000fd5b50506040513381527f220cc6ff063cad7614150486676a73ed0e30298b315a59c27838b65938c484db9250602001905060405180910390a150610d266001600055565b600954604051633f1e317960e11b81523360048201819052916001600160a01b031690637e3c62f29060240160206040518083038186803b158015611e3557600080fd5b505afa158015611e49573d6000803e3d6000fd5b505050506040513d601f19601f82011682018060405250810190611e6d91906150a3565b611e895760405162461bcd60e51b815260040161095390615675565b6103e98210611ed35760405162461bcd60e51b81526020600482015260166024820152754d757374206265206c657373207468616e203130303160501b6044820152606401610953565b6006829055611ee4826103e86157d5565b600581905560408051918252602082018490527f512be2e2be60b5544c985f8d806ffa367afa6cab845690eb434bc88dc4ab240891015b60405180910390a15050565b600954604051633f1e317960e11b81523360048201819052916001600160a01b031690637e3c62f29060240160206040518083038186803b158015611f6b57600080fd5b505afa158015611f7f573d6000803e3d6000fd5b505050506040513d601f19601f82011682018060405250810190611fa391906150a3565b611fbf5760405162461bcd60e51b815260040161095390615675565b601180546001600160a01b0319166001600160a01b0384169081179091556040517feb64bb93b3e98f85dbe7799b12bde1a29696905c4489c7d80765b133c5df8dae90600090a25050565b600954604051633f1e317960e11b81523360048201819052916001600160a01b031690637e3c62f29060240160206040518083038186803b15801561204e57600080fd5b505afa158015612062573d6000803e3d6000fd5b505050506040513d601f19601f8201168201806040525081019061208691906150a3565b6120a25760405162461bcd60e51b815260040161095390615675565b601080546001600160a01b0319166001600160a01b0384169081179091556040517f7bd6b839a11d9e93dc57a1ca42cb274b817c71f71c860d32931f0cf8d5d38abc90600090a25050565b600954604051633f1e317960e11b81523360048201819052916001600160a01b031690637e3c62f29060240160206040518083038186803b15801561213157600080fd5b505afa158015612145573d6000803e3d6000fd5b505050506040513d601f19601f8201168201806040525081019061216991906150a3565b6121855760405162461bcd60e51b815260040161095390615675565b600a546001600160a01b03166121ad5760405162461bcd60e51b81526004016109539061575d565b600082116121cd5760405162461bcd60e51b8152600401610953906156dc565b47828110156122195760405162461bcd60e51b81526020600482015260186024820152772737ba1032b737bab3b41031b7b4b7103130b630b731b29760411b6044820152606401610953565b600a546040516000916001600160a01b03169085908381818185875af1925050503d8060008114612266576040519150601f19603f3d011682016040523d82523d6000602084013e61226b565b606091505b50509050806122af5760405162461bcd60e51b815260206004820152601060248201526f2a3930b739b332b9103330b4b632b21760811b6044820152606401610953565b600a546040518581526001600160a01b03909116907f884edad9ce6fa2440d8a54cc123490eb96d2768479d49ff9c7366125a94243649060200160405180910390a250505050565b600954604051633f1e317960e11b81523360048201819052916001600160a01b031690637e3c62f29060240160206040518083038186803b15801561233b57600080fd5b505afa15801561234f573d6000803e3d6000fd5b505050506040513d601f19601f8201168201806040525081019061237391906150a3565b61238f5760405162461bcd60e51b815260040161095390615675565b600c80546001600160a01b0319166001600160a01b0384169081179091556040517f3ba7405dfb2168abcbc70b6ec22f2171770f6aa87a72366b4ccc1b7984506d3d90600090a25050565b600954604051633f1e317960e11b81523360048201819052916001600160a01b031690637e3c62f29060240160206040518083038186803b15801561241e57600080fd5b505afa158015612432573d6000803e3d6000fd5b505050506040513d601f19601f8201168201806040525081019061245691906150a3565b6124725760405162461bcd60e51b815260040161095390615675565b600a546001600160a01b031661249a5760405162461bcd60e51b81526004016109539061575d565b600082116124ba5760405162461bcd60e51b8152600401610953906156dc565b600c546040516370a0823160e01b81523060048201526000916001600160a01b0316906370a082319060240160206040518083038186803b1580156124fe57600080fd5b505afa158015612512573d6000803e3d6000fd5b505050506040513d601f19601f820116820180604052508101906125369190615394565b9050828110156125845760405162461bcd60e51b81526020600482015260196024820152782737ba1032b737bab3b4103a37b5b2b7103130b630b731b29760391b6044820152606401610953565b600c54600a5460405163a9059cbb60e01b81526001600160a01b039283169263a9059cbb926125ba929116908790600401615549565b602060405180830381600087803b1580156125d457600080fd5b505af11580156125e8573d6000803e3d6000fd5b505050506040513d601f19601f8201168201806040525081019061260c91906150a3565b50600a54600c54604080518681526001600160a01b03928316602082015291909216917fc7de2d139afb8c4257b3fac58f791fb657180f2f86753ed057e0c3a404f705a391015b60405180910390a2505050565b612668614b17565b60006126776020830183615036565b6001600160a01b031614612e90576126926020820182615036565b600e546001600160a01b039081169116148015906126ce57506126bb60a0820160808301615036565b6010546001600160a01b03908116911614155b156126f0576126e06020820182615036565b61112160a0830160808401615036565b600e546040516331a9108f60e11b81526020830135600482015233916001600160a01b031690636352211e9060240160206040518083038186803b15801561273757600080fd5b505afa15801561274b573d6000803e3d6000fd5b505050506040513d601f19601f8201168201806040525081019061276f919061505a565b6001600160a01b031614612798576040516331ad5c8960e01b8152336004820152602401610953565b601054604051627eeac760e11b815260c0830135916001600160a01b03169062fdd58e906127d090339060a087013590600401615549565b60206040518083038186803b1580156127e857600080fd5b505afa1580156127fc573d6000803e3d6000fd5b505050506040513d601f19601f820116820180604052508101906128209190615394565b101561284757338160a0013560405163be9ffe2f60e01b8152600401610953929190615549565b601054604051636c8b703f60e01b815260a083013560048201526000916001600160a01b031690636c8b703f9060240160c06040518083038186803b15801561288f57600080fd5b505afa1580156128a3573d6000803e3d6000fd5b505050506040513d601f19601f820116820180604052508101906128c791906151cb565b600e546040516314298f8360e11b8152602085013560048201529192506000916001600160a01b03909116906328531f0690602401604080518083038186803b15801561291357600080fd5b505afa158015612927573d6000803e3d6000fd5b505050506040513d601f19601f8201168201806040525081019061294b91906151af565b600e5460405163c3d22edd60e01b8152602086013560048201529192506000916001600160a01b039091169063c3d22edd9060240160206040518083038186803b15801561299857600080fd5b505afa1580156129ac573d6000803e3d6000fd5b505050506040513d601f19601f820116820180604052508101906129d09190615394565b9050428260200151116129f6576040516328c6c44d60e21b815260040160405180910390fd5b608083015115612bea578151602083015111612a25576040516350058e7960e01b815260040160405180910390fd5b601054604051637a94c56560e11b81526001600160a01b039091169063f5298aca90612a6190339060a08901359060c08a0135906004016155bf565b600060405180830381600087803b158015612a7b57600080fd5b505af1158015612a8f573d6000803e3d6000fd5b50508351602085015160009350612aa692506157d5565b905060008560c001358560800151612abe91906157b6565b8210612adf578560c001358560800151612ad891906157b6565b9050612ae2565b50805b600e54604051630491ddc360e01b815260208801356004820152336024820152604481018390526000916001600160a01b031690630491ddc390606401602060405180830381600087803b158015612b3957600080fd5b505af1158015612b4d573d6000803e3d6000fd5b505050506040513d601f19601f82011682018060405250810190612b7191906150a3565b90508015612be2577ffa99bf315e489db6279ae237b5d9ec574022ef0ba757127af5b8672a9e75498a612ba76020890189615036565b6020890135612bbc60a08b0160808c01615036565b8a60a001358b60c0013587604051612bd996959493929190615586565b60405180910390a15b505050612e88565b600e5460405163e985e9c560e01b81523360048201523060248201526001600160a01b039091169063e985e9c59060440160206040518083038186803b158015612c3357600080fd5b505afa158015612c47573d6000803e3d6000fd5b505050506040513d601f19601f82011682018060405250810190612c6b91906150a3565b612c8857604051634eea47ef60e11b815260040160405180910390fd5b8360c00135600114612cb55733846020013560405163be9ffe2f60e01b8152600401610953929190615549565b60008111612cea57612cca6020850185615036565b84602001356040516309778ff960e11b8152600401610953929190615549565b601054604051637a94c56560e11b81526001600160a01b039091169063f5298aca90612d2690339060a08901359060c08a0135906004016155bf565b600060405180830381600087803b158015612d4057600080fd5b505af1158015612d54573d6000803e3d6000fd5b5050600e5460a0860151604051631d2cd14b60e31b8152602089013560048201523360248201526044810191909152600093508392506001600160a01b039091169063e9668a58906064016040805180830381600087803b158015612db857600080fd5b505af1158015612dcc573d6000803e3d6000fd5b505050506040513d601f19601f82011682018060405250810190612df091906153ad565b90925090507f8acfe9c394677877f9956c0d0790174dd9e4d9104cfaa3fa981d276d2eb13982612e236020880188615036565b6020880135612e3860a08a0160808b01615036565b604080516001600160a01b039485168152602081019390935292168183015260a089810135606083015260c0808b013560808401529082018690528415159082015290519081900360e00190a150505b505050613363565b6000612ea26060830160408401615036565b6001600160a01b0316148015612ed65750612ec36060820160408301615036565b600f546001600160a01b03908116911614155b15612eeb576126e06060820160408301615036565b600f546040516331a9108f60e11b81526060830135600482015233916001600160a01b031690636352211e9060240160206040518083038186803b158015612f3257600080fd5b505afa158015612f46573d6000803e3d6000fd5b505050506040513d601f19601f82011682018060405250810190612f6a919061505a565b6001600160a01b031614612f93576040516331ad5c8960e01b8152336004820152602401610953565b601054604051627eeac760e11b815260c0830135916001600160a01b03169062fdd58e90612fcb90339060a087013590600401615549565b60206040518083038186803b158015612fe357600080fd5b505afa158015612ff7573d6000803e3d6000fd5b505050506040513d601f19601f8201168201806040525081019061301b9190615394565b101561304257338160a0013560405163be9ffe2f60e01b8152600401610953929190615549565b601054604051636c8b703f60e01b815260a083013560048201526000916001600160a01b031690636c8b703f9060240160c06040518083038186803b15801561308a57600080fd5b505afa15801561309e573d6000803e3d6000fd5b505050506040513d601f19601f820116820180604052508101906130c291906151cb565b600f546040516314298f8360e11b8152606085013560048201529192506000916001600160a01b03909116906328531f0690602401604080518083038186803b15801561310e57600080fd5b505afa158015613122573d6000803e3d6000fd5b505050506040513d601f19601f8201168201806040525081019061314691906151af565b90508060000151816020015111613170576040516350058e7960e01b815260040160405180910390fd5b81602001516131ac5760405162461bcd60e51b81526020600482015260086024820152674e6f206974656d7360c01b6044820152606401610953565b601054604051637a94c56560e11b81526001600160a01b039091169063f5298aca906131e890339060a08801359060c0890135906004016155bf565b600060405180830381600087803b15801561320257600080fd5b505af1158015613216573d6000803e3d6000fd5b5050825160208401516000935061322d92506157d5565b905060008460c00135846080015161324591906157b6565b8210613266578460c00135846080015161325f91906157b6565b9050613269565b50805b600f54604051630491ddc360e01b815260608701356004820152336024820152604481018390526000916001600160a01b031690630491ddc390606401602060405180830381600087803b1580156132c057600080fd5b505af11580156132d4573d6000803e3d6000fd5b505050506040513d601f19601f820116820180604052508101906132f891906150a3565b905080156115d2577ffa99bf315e489db6279ae237b5d9ec574022ef0ba757127af5b8672a9e75498a6133316060880160408901615036565b606088013561334660a08a0160808b01615036565b8960a001358a60c00135876040516115c996959493929190615586565b6115e16001600055565b613375614b17565b600081116133955760405162461bcd60e51b8152600401610953906156ac565b600d54604051636c8b703f60e01b8152600481018490526000916001600160a01b031690636c8b703f9060240160806040518083038186803b1580156133da57600080fd5b505afa1580156133ee573d6000803e3d6000fd5b505050506040513d601f19601f82011682018060405250810190613412919061532e565b905080602001516134355760405162461bcd60e51b81526004016109539061564e565b60008160400151116134595760405162461bcd60e51b81526004016109539061564e565b61346e33308484604001516117c891906157b6565b600d5460405163731133e960e01b81526001600160a01b039091169063731133e9906134a2903390879087906004016155e0565b600060405180830381600087803b1580156134bc57600080fd5b505af11580156134d0573d6000803e3d6000fd5b505050507f89bb064d6f78f9102e52e4dbd78becfb46a059be81922ebe1df563ef5a2c035a600d60009054906101000a90046001600160a01b031633858586866040015161188c91906157b6565b600954604051633f1e317960e11b81523360048201819052916001600160a01b031690637e3c62f29060240160206040518083038186803b15801561356257600080fd5b505afa158015613576573d6000803e3d6000fd5b505050506040513d601f19601f8201168201806040525081019061359a91906150a3565b6135b65760405162461bcd60e51b815260040161095390615675565b600f80546001600160a01b0319166001600160a01b0384169081179091556040517f709a1ba5a9b9bce7d6138e330dc15193b1f558609e9a7e0e320f948745d9fe2b90600090a25050565b600954604051633f1e317960e11b81523360048201819052916001600160a01b031690637e3c62f29060240160206040518083038186803b15801561364557600080fd5b505afa158015613659573d6000803e3d6000fd5b505050506040513d601f19601f8201168201806040525081019061367d91906150a3565b6136995760405162461bcd60e51b815260040161095390615675565b600d80546001600160a01b0319166001600160a01b0384169081179091556040517f86f1a87bc26535cd4697c255e2b462792c3771e9caf7d1541e2b87eb747c9f8e90600090a25050565b600082826040516020016136f9929190615452565b60405160208183030381529060405280519060200120905092915050565b600954604051636aacbfd760e11b81523360048201819052916001600160a01b03169063d5597fae9060240160206040518083038186803b15801561375b57600080fd5b505afa15801561376f573d6000803e3d6000fd5b505050506040513d601f19601f8201168201806040525081019061379391906150a3565b156137b05760405162461bcd60e51b815260040161095390615713565b6137b8614b17565b600e546001600160a01b038481169116146137f1576040516318e08af760e11b81526001600160a01b0384166004820152602401610953565b600e546040516331a9108f60e11b81526004810184905233916001600160a01b031690636352211e9060240160206040518083038186803b15801561383557600080fd5b505afa158015613849573d6000803e3d6000fd5b505050506040513d601f19601f8201168201806040525081019061386d919061505a565b6001600160a01b03161461389657604051631a8c0ce760e11b8152336004820152602401610953565b600e546040516314298f8360e11b8152600481018490526000916001600160a01b0316906328531f0690602401604080518083038186803b1580156138da57600080fd5b505afa1580156138ee573d6000803e3d6000fd5b505050506040513d601f19601f8201168201806040525081019061391291906151af565b90504281602001511115613941578060200151604051632b231a2f60e11b815260040161095391815260200190565b600e54600154604051632142170760e11b81526001600160a01b03928316926342842e0e9261397a923392909116908890600401615562565b600060405180830381600087803b15801561399457600080fd5b505af11580156139a8573d6000803e3d6000fd5b5050600e5460405163ad217ae560e01b815260048101879052600093506001600160a01b03909116915063ad217ae59060240160a06040518083038186803b1580156139f357600080fd5b505afa158015613a07573d6000803e3d6000fd5b505050506040513d601f19601f82011682018060405250810190613a2b9190615251565b60115481516020830151604080850151606086015160808701519251636fe47ffb60e11b8152336004820152602481019590955260448501939093526064840152608483019190915260a48201529192506001600160a01b03169063dfc8fff69060c401600060405180830381600087803b158015613aa957600080fd5b505af1158015613abd573d6000803e3d6000fd5b505082516020808501516040808701516060808901516080808b01518551338152978801989098529386019490945284015282015260a08101919091527f1eea434ff9bb72d38b3c5f30b592a92935db5d2d402eb75cc9ec92819865febb925060c0019050610d11565b600954604051633f1e317960e11b81523360048201819052916001600160a01b031690637e3c62f29060240160206040518083038186803b158015613b6b57600080fd5b505afa158015613b7f573d6000803e3d6000fd5b505050506040513d601f19601f82011682018060405250810190613ba391906150a3565b613bbf5760405162461bcd60e51b815260040161095390615675565b600a546001600160a01b0316613be75760405162461bcd60e51b81526004016109539061575d565b600c546040516370a0823160e01b81523060048201526000916001600160a01b0316906370a082319060240160206040518083038186803b158015613c2b57600080fd5b505afa158015613c3f573d6000803e3d6000fd5b505050506040513d601f19601f82011682018060405250810190613c639190615394565b905060008111613c855760405162461bcd60e51b8152600401610953906156dc565b60008111613cd15760405162461bcd60e51b81526020600482015260196024820152782737ba1032b737bab3b4103a37b5b2b7103130b630b731b29760391b6044820152606401610953565b600c54600a5460405163a9059cbb60e01b81526001600160a01b039283169263a9059cbb92613d07929116908590600401615549565b602060405180830381600087803b158015613d2157600080fd5b505af1158015613d35573d6000803e3d6000fd5b505050506040513d601f19601f82011682018060405250810190613d5991906150a3565b50600a54600c54604080518481526001600160a01b03928316602082015291909216917fc7de2d139afb8c4257b3fac58f791fb657180f2f86753ed057e0c3a404f705a3910160405180910390a25050565b60038054610df890615818565b613dc0614b17565b60008111613de05760405162461bcd60e51b8152600401610953906156ac565b601354604051636c8b703f60e01b8152600481018490526000916001600160a01b031690636c8b703f9060240160806040518083038186803b158015613e2557600080fd5b505afa158015613e39573d6000803e3d6000fd5b505050506040513d601f19601f82011682018060405250810190613e5d91906152dd565b90508060200151613e805760405162461bcd60e51b81526004016109539061564e565b6000816040015111613ea45760405162461bcd60e51b81526004016109539061564e565b613eb933308484604001516117c891906157b6565b60135460405163731133e960e01b81526001600160a01b039091169063731133e990613eed903390879087906004016155e0565b600060405180830381600087803b158015613f0757600080fd5b505af1158015613f1b573d6000803e3d6000fd5b505050507ff863a1ea153bf671c1d3fc3742770ad95ee670140ac4d53e40779886a813b112601360009054906101000a90046001600160a01b031633858586866040015161188c91906157b6565b600954604051633f1e317960e11b81523360048201819052916001600160a01b031690637e3c62f29060240160206040518083038186803b158015613fad57600080fd5b505afa158015613fc1573d6000803e3d6000fd5b505050506040513d601f19601f82011682018060405250810190613fe591906150a3565b6140015760405162461bcd60e51b815260040161095390615675565b600a80546001600160a01b0319166001600160a01b0384169081179091556040517fc7e67d547461aeafc7b64aaeb676a0d3c004962710e706e26f11053dca76faa090600090a25050565b600954604051633f1e317960e11b81523360048201819052916001600160a01b031690637e3c62f29060240160206040518083038186803b15801561409057600080fd5b505afa1580156140a4573d6000803e3d6000fd5b505050506040513d601f19601f820116820180604052508101906140c891906150a3565b6140e45760405162461bcd60e51b815260040161095390615675565b601280546001600160a01b0319166001600160a01b0384169081179091556040517f62d281830956dfeab4a136866f01c81053f236e91476d501a87070a46958bbb090600090a25050565b600954604051633f1e317960e11b81523360048201819052916001600160a01b031690637e3c62f29060240160206040518083038186803b15801561417357600080fd5b505afa158015614187573d6000803e3d6000fd5b505050506040513d601f19601f820116820180604052508101906141ab91906150a3565b6141c75760405162461bcd60e51b815260040161095390615675565b600e80546001600160a01b0319166001600160a01b0384169081179091556040517fa4b8a705a166ab96902d91887839c1f631dcce24ed5279c2d21c5314765ab10e90600090a25050565b600b54604051636460c42160e11b8152600481018390526000918291829182916001600160a01b039091169063c8c1884290602401610d61565b600954604051633f1e317960e11b81523360048201819052916001600160a01b031690637e3c62f29060240160206040518083038186803b15801561429057600080fd5b505afa1580156142a4573d6000803e3d6000fd5b505050506040513d601f19601f820116820180604052508101906142c891906150a3565b6142e45760405162461bcd60e51b815260040161095390615675565b600b80546001600160a01b0319166001600160a01b0384169081179091556040517f2b3528e161c064ce4b780eb8500a60a959c9e6a2449b5fc4e052a2ff56dbbdc190600090a25050565b600954604051633f1e317960e11b81523360048201819052916001600160a01b031690637e3c62f29060240160206040518083038186803b15801561437357600080fd5b505afa158015614387573d6000803e3d6000fd5b505050506040513d601f19601f820116820180604052508101906143ab91906150a3565b6143c75760405162461bcd60e51b815260040161095390615675565b601380546001600160a01b0319166001600160a01b0384169081179091556040517f81470c29d4f54f0ea0559e9c61861676970c34c77a0a1d772f0ec4cec751d17b90600090a25050565b600954604051633f1e317960e11b81523360048201819052916001600160a01b031690637e3c62f29060240160206040518083038186803b15801561445657600080fd5b505afa15801561446a573d6000803e3d6000fd5b505050506040513d601f19601f8201168201806040525081019061448e91906150a3565b6144aa5760405162461bcd60e51b815260040161095390615675565b600a546001600160a01b03166144d25760405162461bcd60e51b81526004016109539061575d565b478061451b5760405162461bcd60e51b81526020600482015260186024820152772737ba1032b737bab3b41031b7b4b7103130b630b731b29760411b6044820152606401610953565b600a546040516000916001600160a01b03169083908381818185875af1925050503d8060008114614568576040519150601f19603f3d011682016040523d82523d6000602084013e61456d565b606091505b50509050806145b15760405162461bcd60e51b815260206004820152601060248201526f2a3930b739b332b9103330b4b632b21760811b6044820152606401610953565b600a546040518381526001600160a01b03909116907f884edad9ce6fa2440d8a54cc123490eb96d2768479d49ff9c7366125a942436490602001612653565b600954604051633f1e317960e11b81523360048201819052916001600160a01b031690637e3c62f29060240160206040518083038186803b15801561463457600080fd5b505afa158015614648573d6000803e3d6000fd5b505050506040513d601f19601f8201168201806040525081019061466c91906150a3565b6146885760405162461bcd60e51b815260040161095390615675565b815161469b906004906020850190614e94565b507fc91e9ced7f8ba5e93665f5a97cf6b840412e90310a28c8516368642700e16c8a82604051611f1b919061561b565b600f546040516314298f8360e11b8152600481018390526000918291829182916001600160a01b03909116906328531f0690602401610d61565b61470d614b17565b61471a6020820182615036565b6011546001600160a01b0390811691161480159061475657506147436060820160408301615036565b6013546001600160a01b03908116911614155b15614768576111116020820182615036565b6011546040516331a9108f60e11b81526020830135600482015233916001600160a01b031690636352211e9060240160206040518083038186803b1580156147af57600080fd5b505afa1580156147c3573d6000803e3d6000fd5b505050506040513d601f19601f820116820180604052508101906147e7919061505a565b6001600160a01b031614614810576040516331ad5c8960e01b8152336004820152602401610953565b601354604051627eeac760e11b81526080830135916001600160a01b03169062fdd58e90614848903390606087013590600401615549565b60206040518083038186803b15801561486057600080fd5b505afa158015614874573d6000803e3d6000fd5b505050506040513d601f19601f820116820180604052508101906148989190615394565b10156148bf5733816060013560405163be9ffe2f60e01b8152600401610953929190615549565b6001816080013511156148ed5733816060013560405163be9ffe2f60e01b8152600401610953929190615549565b60115460405163cddbe72960e01b8152602083013560048201526000916001600160a01b03169063cddbe7299060240160806040518083038186803b15801561493557600080fd5b505afa158015614949573d6000803e3d6000fd5b505050506040513d601f19601f8201168201806040525081019061496d9190615169565b80519091506001146149b45760405162461bcd60e51b815260206004820152601060248201526f10dbd8dac81a5cc81b9bdd081919585960821b6044820152606401610953565b601354604051637a94c56560e11b81526001600160a01b039091169063f5298aca906149f09033906060870135906080880135906004016155bf565b600060405180830381600087803b158015614a0a57600080fd5b505af1158015614a1e573d6000803e3d6000fd5b505060115460405163db4c2ac760e01b8152602086013560048201526001600160a01b03909116925063db4c2ac79150602401600060405180830381600087803b158015614a6b57600080fd5b505af1158015614a7f573d6000803e3d6000fd5b507ff3b0bd7bf28e694e1a45cf8359503a03cb6e1bfe7c6b9d641dc5bab240ea44a19250614ab39150506020840184615036565b6020840135614ac86060860160408701615036565b604080516001600160a01b039485168152602081019390935292168183015260608581013590820152608080860135908201523360a082015290519081900360c00190a1506115e16001600055565b60026000541415614b6a5760405162461bcd60e51b815260206004820152601f60248201527f5265656e7472616e637947756172643a207265656e7472616e742063616c6c006044820152606401610953565b6002600055565b6000806004833342604051602001614b8c9493929190615481565b60408051601f19818403018152919052805160209091012090506000614bb46103e883615868565b9050600654811015614bca575060019392505050565b5060009392505050565b614c2c846323b872dd60e01b858585604051602401614bf593929190615562565b60408051601f198184030181529190526020810180516001600160e01b03166001600160e01b031990931692909217909152614c32565b50505050565b6000614c87826040518060400160405280602081526020017f5361666545524332303a206c6f772d6c6576656c2063616c6c206661696c6564815250856001600160a01b0316614d079092919063ffffffff16565b9050805160001480614ca8575080806020019051810190614ca891906150a3565b610d265760405162461bcd60e51b815260206004820152602a60248201527f5361666545524332303a204552433230206f7065726174696f6e20646964206e6044820152691bdd081cdd58d8d9595960b21b6064820152608401610953565b6060614d168484600085614d1e565b949350505050565b606082471015614d7f5760405162461bcd60e51b815260206004820152602660248201527f416464726573733a20696e73756666696369656e742062616c616e636520666f6044820152651c8818d85b1b60d21b6064820152608401610953565b600080866001600160a01b03168587604051614d9b9190615436565b60006040518083038185875af1925050503d8060008114614dd8576040519150601f19603f3d011682016040523d82523d6000602084013e614ddd565b606091505b5091509150614dee87838387614df9565b979650505050505050565b60608315614e65578251614e5e576001600160a01b0385163b614e5e5760405162461bcd60e51b815260206004820152601d60248201527f416464726573733a2063616c6c20746f206e6f6e2d636f6e74726163740000006044820152606401610953565b5081614d16565b614d168383815115614e7a5781518083602001fd5b8060405162461bcd60e51b8152600401610953919061561b565b828054614ea090615818565b90600052602060002090601f016020900481019282614ec25760008555614f08565b82601f10614edb57805160ff1916838001178555614f08565b82800160010185558215614f08579182015b82811115614f08578251825591602001919060010190614eed565b50614f14929150614f18565b5090565b5b80821115614f145760008155600101614f19565b80518015158114614f3d57600080fd5b919050565b600082601f830112614f5357600080fd5b813567ffffffffffffffff80821115614f6e57614f6e6158b6565b604051601f8301601f19908116603f01168101908282118183101715614f9657614f966158b6565b81604052838152866020858801011115614faf57600080fd5b836020870160208301376000602085830101528094505050505092915050565b600060408284031215614fe157600080fd5b6040516040810181811067ffffffffffffffff82111715615004576150046158b6565b604052825181526020928301519281019290925250919050565b600060a0828403121561503057600080fd5b50919050565b60006020828403121561504857600080fd5b8135615053816158cc565b9392505050565b60006020828403121561506c57600080fd5b8151615053816158cc565b6000806040838503121561508a57600080fd5b8235615095816158cc565b946020939093013593505050565b6000602082840312156150b557600080fd5b61505382614f2d565b6000602082840312156150d057600080fd5b813567ffffffffffffffff8111156150e757600080fd5b614d1684828501614f42565b6000806040838503121561510657600080fd5b823567ffffffffffffffff8082111561511e57600080fd5b61512a86838701614f42565b9350602085013591508082111561514057600080fd5b5061514d85828601614f42565b9150509250929050565b600060e0828403121561503057600080fd5b60006080828403121561517b57600080fd5b61518361578d565b825181526020830151602082015260408301516040820152606083015160608201528091505092915050565b6000604082840312156151c157600080fd5b6150538383614fcf565b600060c082840312156151dd57600080fd5b60405160c0810181811067ffffffffffffffff82111715615200576152006158b6565b6040528251815261521360208401614f2d565b602082015261522460408401614f2d565b6040820152606083015160608201526080830151608082015260a083015160a08201528091505092915050565b600060a0828403121561526357600080fd5b60405160a0810181811067ffffffffffffffff82111715615286576152866158b6565b806040525082518152602083015160208201526040830151604082015260608301516060820152608083015160808201528091505092915050565b600060a082840312156152d357600080fd5b615053838361501e565b6000608082840312156152ef57600080fd5b6152f761578d565b8251815261530760208401614f2d565b60208201526040830151604082015261532260608401614f2d565b60608201529392505050565b60006080828403121561534057600080fd5b61534861578d565b8251815261535860208401614f2d565b602082015260408301516040820152606083015160608201528091505092915050565b60006020828403121561538d57600080fd5b5035919050565b6000602082840312156153a657600080fd5b5051919050565b600080604083850312156153c057600080fd5b825191506153d060208401614f2d565b90509250929050565b600080604083850312156153ec57600080fd5b50508035926020909101359150565b600080600080600060a0868803121561541357600080fd5b505083359560208501359550604085013594606081013594506080013592509050565b600082516154488184602087016157ec565b9190910192915050565b600083516154648184602088016157ec565b8351908301906154788183602088016157ec565b01949350505050565b600080865481600182811c91508083168061549d57607f831692505b60208084108214156154bd57634e487b7160e01b86526022600452602486fd5b8180156154d157600181146154e25761550f565b60ff1986168952848901965061550f565b60008d81526020902060005b868110156155075781548b8201529085019083016154ee565b505084890196505b508a86526155308187018b60601b6bffffffffffffffffffffffff19169052565b5050505050603481019390935250506054019392505050565b6001600160a01b03929092168252602082015260400190565b6001600160a01b039384168152919092166020820152604081019190915260600190565b6001600160a01b03968716815260208101959095529290941660408401526060830152608082019290925260a081019190915260c00190565b6001600160a01b039390931683526020830191909152604082015260600190565b6001600160a01b039390931683526020830191909152604082015260806060820181905260029082015261060f60f31b60a082015260c00190565b602081526000825180602084015261563a8160408501602087016157ec565b601f01601f19169190910160400192915050565b6020808252600d908201526c4e6f742073616c65206974656d60981b604082015260600190565b60208082526018908201527f556e7665726966696564206f776e657220616464726573730000000000000000604082015260600190565b60208082526016908201527526bab9ba1031329030ba103632b0b9ba103d32b9379760511b604082015260600190565b6020808252601d908201527f416d6f756e74206d7573742062652067726561746572207468616e2030000000604082015260600190565b6020808252602a908201527f5472616e73616374696f6e2064656e6965643a206164647265737320697320626040820152691b1858dadb1a5cdd195960b21b606082015260800190565b60208082526016908201527543616e6e6f74206265206e756c6c206164647265737360501b604082015260600190565b6040516080810167ffffffffffffffff811182821017156157b0576157b06158b6565b60405290565b60008160001904831182151516156157d0576157d061588a565b500290565b6000828210156157e7576157e761588a565b500390565b60005b838110156158075781810151838201526020016157ef565b83811115614c2c5750506000910152565b600181811c9082168061582c57607f821691505b6020821081141561503057634e487b7160e01b600052602260045260246000fd5b60006000198214156158615761586161588a565b5060010190565b60008261588557634e487b7160e01b600052601260045260246000fd5b500690565b634e487b7160e01b600052601160045260246000fd5b634e487b7160e01b600052602160045260246000fd5b634e487b7160e01b600052604160045260246000fd5b6001600160a01b03811681146115e157600080fdfea26469706673582212201b0b0d88e326330848fb5de1dc81e803fd60b9f932c462f1917c3aa4a1a17c7d64736f6c63430008070033",
  "immutableReferences": {},
  "source": "// SPDX-License-Identifier: MIT\npragma solidity ^0.8.1;\n\nimport \"./interfaces/ICFNAccessControl.sol\";\nimport \"./interfaces/IEgg.sol\";\nimport \"./interfaces/IEggItem.sol\";\nimport \"./libraries/ItemTypes.sol\";\nimport \"./interfaces/ICockerelChick.sol\";\nimport \"./interfaces/IPulletChick.sol\";\nimport \"./interfaces/IChickItem.sol\";\nimport \"./interfaces/ICock.sol\";\nimport \"./interfaces/IHen.sol\";\nimport \"./interfaces/ICockItem.sol\";\n\nimport {ReentrancyGuard} from \"@openzeppelin/contracts/security/ReentrancyGuard.sol\";\nimport {IERC20, SafeERC20} from \"@openzeppelin/contracts/token/ERC20/utils/SafeERC20.sol\";\n\ncontract CockFight is ReentrancyGuard {\n    using SafeERC20 for IERC20;\n    using ItemTypes for ItemTypes.EggConsumeItem;\n    using ItemTypes for ItemTypes.EggItem;\n    using ItemTypes for ItemTypes.ChickItem;\n    using ItemTypes for ItemTypes.ChickConsumeItem;\n\n    constructor(\n        address _accessControl,\n        address _receiveWallet,\n        address _eggContract,\n        address _erc20Contract,\n        address _eggItemContract,\n        address _cockerelChickContract,\n        address _pulletChickContract,\n        address _chickItemContract,\n        address _cockContract,\n        address _henContract,\n        address _cockItemContract\n    ) {\n        require(\n            _accessControl != address(0) &&\n                _receiveWallet != address(0) &&\n                _eggContract != address(0) &&\n                _erc20Contract != address(0) &&\n                _cockerelChickContract != address(0) &&\n                _pulletChickContract != address(0) &&\n                _chickItemContract != address(0) &&\n                _cockContract != address(0) &&\n                _henContract != address(0) &&\n                _cockItemContract != address(0),\n            \"Cannot be null address.\"\n        );\n\n        accessControlManager = ICFNAccessControl(_accessControl);\n        receiveWallet = payable(_receiveWallet);\n        eggManager = IEgg(_eggContract);\n        tokenManager = IERC20(_erc20Contract);\n        eggItemManager = IEggItem(_eggItemContract);\n        cockerelChickManager = ICockerelChick(_cockerelChickContract);\n        pulletChickManager = IPulletChick(_pulletChickContract);\n        chickItemManager = IChickItem(_chickItemContract);\n        cockManager = ICock(_cockContract);\n        henManager = IHen(_henContract);\n        cockItemManager = ICockItem(_cockItemContract);\n    }\n\n    // ----------------------- access section -----------------------\n    modifier isBlackListWallet(address _address) {\n        require(\n            !accessControlManager.blackListWallet(_address),\n            \"Transaction denied: address is blacklisted\"\n        );\n        _;\n    }\n\n    modifier isWhiteListControl(address _ca) {\n        require(\n            accessControlManager.whiteListControlAddress(_ca),\n            \"Unverified owner address\"\n        );\n        _;\n    }\n\n    // ----------------------- contract / manager section -----------------------\n    address deadAddress = 0x000000000000000000000000000000000000dEaD;\n\n    string public name = \"Cockfight Network Echo System\";\n    string public symbol = \"Cockfight\";\n    string private _secret_word = \"CFNToken\";\n\n    uint256 public Male = 995; // 99.5%\n    uint256 public FeMale = 5; // 0.5%\n\n    uint256 public chickMaleCount = 0;\n    uint256 public chickFemaleCount = 0;\n\n    ICFNAccessControl public accessControlManager; // owner list contract\n    address payable public receiveWallet; // cfn or gmmt withdraw address\n    IEgg public eggManager; // erc721 egg contract\n    IERC20 public tokenManager; // cfn token\n    IEggItem public eggItemManager; // erc1155 egg item contract\n    ICockerelChick public cockerelChickManager; // erc721 cockerel chick contract\n    IPulletChick public pulletChickManager; // erc721 pullet chick contract\n    IChickItem public chickItemManager; // erc1155 chick item contract\n    ICock public cockManager; // cock contract\n    IHen public henManager; // hen contract\n    ICockItem public cockItemManager; // erc1155 cock item contract\n\n    event NewSecretWord(string word);\n    event NewSex(uint256 Male, uint256 FeMale);\n    event NewAccessControlManager(address indexed accessContract);\n    event NewReceiveWallet(address indexed wallet);\n    event NewEggManager(address indexed eggContract);\n    event NewTokenManager(address indexed tokenContract);\n    event NewEggItemManager(address indexed eggItemContract);\n    event NewCockerelChickManager(address indexed cockerelChickContract);\n    event NewPulletChickManager(address indexed pulletChickContract);\n    event NewChickItemManager(address indexed chickItemContract);\n    event NewCockManager(address indexed cockContract);\n    event NewHenManager(address indexed henContract);\n    event NewCockItemManager(address indexed cockItemContract);\n\n    function updateSecretWord(\n        string memory _newSecret\n    ) public isWhiteListControl(msg.sender) {\n        _secret_word = _newSecret;\n\n        emit NewSecretWord(_newSecret);\n    }\n\n    function updateFeMale(\n        uint256 _female\n    ) public isWhiteListControl(msg.sender) {\n        require(_female < 1001, \"Must be less than 1001\");\n\n        FeMale = _female;\n        Male = 1000 - _female;\n\n        emit NewSex(Male, _female);\n    }\n\n    function updateAccessControlManager(\n        address _accessControlContract\n    ) public isWhiteListControl(msg.sender) {\n        accessControlManager = ICFNAccessControl(_accessControlContract);\n\n        emit NewAccessControlManager(_accessControlContract);\n    }\n\n    function updateReceiveWallet(\n        address _receiveWallet\n    ) public isWhiteListControl(msg.sender) {\n        receiveWallet = payable(_receiveWallet);\n\n        emit NewReceiveWallet(_receiveWallet);\n    }\n\n    function updateEggManager(\n        address _eggContract\n    ) public isWhiteListControl(msg.sender) {\n        eggManager = IEgg(_eggContract);\n\n        emit NewEggManager(_eggContract);\n    }\n\n    function updateTokenManager(\n        address _tokenContract\n    ) public isWhiteListControl(msg.sender) {\n        tokenManager = IERC20(_tokenContract);\n\n        emit NewTokenManager(_tokenContract);\n    }\n\n    function updateEggItemManager(\n        address _eggItemContract\n    ) public isWhiteListControl(msg.sender) {\n        eggItemManager = IEggItem(_eggItemContract);\n\n        emit NewEggItemManager(_eggItemContract);\n    }\n\n    function updateCockerelChickManager(\n        address _cockerelChickContract\n    ) public isWhiteListControl(msg.sender) {\n        cockerelChickManager = ICockerelChick(_cockerelChickContract);\n\n        emit NewCockerelChickManager(_cockerelChickContract);\n    }\n\n    function updatePulletChickManager(\n        address _pulletChickContract\n    ) public isWhiteListControl(msg.sender) {\n        pulletChickManager = IPulletChick(_pulletChickContract);\n\n        emit NewPulletChickManager(_pulletChickContract);\n    }\n\n    function updateChickItemManager(\n        address _chickItemContract\n    ) public isWhiteListControl(msg.sender) {\n        chickItemManager = IChickItem(_chickItemContract);\n\n        emit NewChickItemManager(_chickItemContract);\n    }\n\n    function updateCockManager(\n        address _cockContract\n    ) public isWhiteListControl(msg.sender) {\n        cockManager = ICock(_cockContract);\n\n        emit NewCockManager(_cockContract);\n    }\n\n    function updateHenManager(\n        address _henContract\n    ) public isWhiteListControl(msg.sender) {\n        henManager = IHen(_henContract);\n\n        emit NewHenManager(_henContract);\n    }\n\n    function updateCockItemManager(\n        address _cockItemContract\n    ) public isWhiteListControl(msg.sender) {\n        cockItemManager = ICockItem(_cockItemContract);\n\n        emit NewCockItemManager(_cockItemContract);\n    }\n\n    // commit reveal scheme\n    function getCommitHash(\n        string memory _secret,\n        string memory _nonce\n    ) public pure returns (bytes32) {\n        return keccak256(abi.encodePacked(_secret, _nonce));\n    }\n\n    enum Gender {\n        Boy,\n        Girl\n    }\n\n    // egg random gender\n    function _generate_gender(uint256 _tokenId) private view returns (Gender) {\n        uint256 randomValue = uint256(\n            keccak256(\n                abi.encodePacked(\n                    _secret_word,\n                    _tokenId,\n                    msg.sender,\n                    block.timestamp\n                )\n            )\n        );\n\n        uint256 scaledValue = randomValue % 1000;\n\n        if (scaledValue < FeMale) {\n            return Gender.Girl;\n        } else {\n            return Gender.Boy;\n        }\n    }\n\n    // ----------------------- deposit section -----------------------\n    event Withdraw(address indexed walletAddress, uint256 withdrawAmount);\n    event WithdrawToken(\n        address indexed walletAddress,\n        uint256 withdrawAmount,\n        address tokenContract\n    );\n\n    //   \n    function withdrawTokenAll() public isWhiteListControl(msg.sender) {\n        require(receiveWallet != address(0), \"Cannot be null address\");\n\n        uint256 tokenAmount = tokenManager.balanceOf(address(this));\n        require(tokenAmount > 0, \"Amount must be greater than 0\");\n        require(tokenAmount > 0, \"Not enough token balance.\");\n\n        tokenManager.transfer(receiveWallet, tokenAmount);\n\n        emit WithdrawToken(receiveWallet, tokenAmount, address(tokenManager));\n    }\n\n    //    \n    function withdrawToken(\n        uint256 _amount\n    ) public isWhiteListControl(msg.sender) {\n        require(receiveWallet != address(0), \"Cannot be null address\");\n        require(_amount > 0, \"Amount must be greater than 0\");\n\n        uint256 tokenAmount = tokenManager.balanceOf(address(this));\n\n        require(tokenAmount >= _amount, \"Not enough token balance.\");\n\n        tokenManager.transfer(receiveWallet, _amount);\n\n        emit WithdrawToken(receiveWallet, _amount, address(tokenManager));\n    }\n\n    //   \n    function withdrawCoinAll() public payable isWhiteListControl(msg.sender) {\n        require(receiveWallet != address(0), \"Cannot be null address\");\n\n        uint256 balance = address(this).balance;\n        require(balance > 0, \"Not enough coin balance.\");\n\n        (bool success, ) = receiveWallet.call{value: balance}(\"\");\n        require(success, \"Transfer failed.\");\n\n        emit Withdraw(receiveWallet, balance);\n    }\n\n    //    \n    function withdrawCoin(\n        uint256 _amount\n    ) public payable isWhiteListControl(msg.sender) {\n        require(receiveWallet != address(0), \"Cannot be null address\");\n        require(_amount > 0, \"Amount must be greater than 0\");\n\n        uint256 balance = address(this).balance;\n        require(balance >= _amount, \"Not enough coin balance.\");\n\n        (bool success, ) = receiveWallet.call{value: _amount}(\"\");\n        require(success, \"Transfer failed.\");\n\n        emit Withdraw(receiveWallet, _amount);\n    }\n\n    // ----------------------- egg section -----------------------\n\n    // ############ egg hatch calculate ############\n    //    \n    function getEggHatchCalculate(\n        uint256 _tokenId\n    )\n        public\n        view\n        returns (\n            uint256 currentTimestamp,\n            uint256 timestamp3Weeks,\n            uint256 timestampRemaining\n        )\n    {\n        IEgg.EggHatchStruct memory egg = eggManager.hatch(_tokenId);\n\n        uint256 _timestamp = uint256(block.timestamp);\n\n        currentTimestamp = egg.currentTimestamp;\n        timestamp3Weeks = egg.timestamp3Weeks;\n\n        if (egg.timestamp3Weeks >= _timestamp) {\n            timestampRemaining = egg.timestamp3Weeks - _timestamp;\n        } else {\n            timestampRemaining = 0;\n        }\n    }\n\n    // ############ egg use item ############\n    error ConsumeManagerError(address eggContract, address eggItemContract);\n    error ConsumeOwnerError(address wallet);\n    error ConsumeItemNotEnoughError(address wallet, uint256 itemTokenId);\n    error ConsumeDayZeroError();\n    error ConsumeTimeShrinkError();\n    error ConsumeItemExpired();\n\n    event EggConsumeItem(\n        address eggContract,\n        uint256 eggTokenId,\n        address eggItemContract,\n        uint256 eggItemTokenId,\n        uint256 eggItemAmount,\n        uint256 datesToSubtract\n    );\n\n    //   \n    // start require 1155 approveAll to cockFight.sol\n    function eggConsumeItem(\n        ItemTypes.EggConsumeItem calldata consume\n    ) public nonReentrant {\n        // check\n        if (\n            eggManager != IEgg(consume.eggContract) &&\n            eggItemManager != IEggItem(consume.eggItemContract)\n        ) {\n            revert ConsumeManagerError(\n                consume.eggContract,\n                consume.eggItemContract\n            );\n        }\n        if (eggManager.ownerOf(consume.eggTokenId) != msg.sender) {\n            revert ConsumeOwnerError(msg.sender);\n        }\n        if (\n            eggItemManager.balanceOf(msg.sender, consume.eggItemTokenId) <\n            consume.eggItemAmount\n        ) {\n            revert ConsumeItemNotEnoughError(\n                msg.sender,\n                consume.eggItemTokenId\n            );\n        }\n\n        // get data\n        ItemTypes.EggItem memory eggItem = eggItemManager.tokenURIs(\n            consume.eggItemTokenId\n        );\n        IEgg.EggHatchStruct memory egg = eggManager.hatch(consume.eggTokenId);\n\n        if (egg.timestamp3Weeks <= block.timestamp) {\n            revert ConsumeItemExpired();\n        }\n\n        // check\n        if (egg.timestamp3Weeks <= egg.currentTimestamp) {\n            revert ConsumeTimeShrinkError();\n        }\n\n        // day item\n        // check\n        if (eggItem.day == 0) {\n            revert ConsumeDayZeroError();\n        }\n\n        // 1155 burn\n        eggItemManager.burn(\n            msg.sender,\n            consume.eggItemTokenId,\n            consume.eggItemAmount\n        );\n\n        // get datesToSubtract\n        uint256 duration = egg.timestamp3Weeks - egg.currentTimestamp;\n        uint256 datesToSubtract;\n        if (duration >= eggItem.day * consume.eggItemAmount) {\n            datesToSubtract = eggItem.day * consume.eggItemAmount;\n        } else {\n            datesToSubtract = duration;\n        }\n\n        // using item\n        bool success = eggManager.usingItem(\n            consume.eggTokenId,\n            msg.sender,\n            datesToSubtract\n        );\n\n        // event\n        if (success) {\n            emit EggConsumeItem(\n                consume.eggContract,\n                consume.eggTokenId,\n                consume.eggItemContract,\n                consume.eggItemTokenId,\n                consume.eggItemAmount,\n                datesToSubtract\n            );\n        }\n    }\n\n    // ############ egg hatch ############\n    error EggHatchManagerError(address eggContract);\n    error EggHatchOwnerError(address wallet);\n    error EggHatchUnsatisfactoryTime(uint256 eggTimestamp);\n\n    event EggHatchResult(\n        address owner,\n        address eggContract,\n        uint256 tokenId,\n        address chickContract\n    );\n\n    //  \n    // start require 721 approveAll to cockFight.sol\n    function eggHatch(\n        address eggContract,\n        uint256 tokenId\n    ) public isBlackListWallet(msg.sender) nonReentrant {\n        // check\n        if (eggManager != IEgg(eggContract)) {\n            revert EggHatchManagerError(eggContract);\n        }\n        if (eggManager.ownerOf(tokenId) != msg.sender) {\n            revert EggHatchOwnerError(msg.sender);\n        }\n\n        IEgg.EggHatchStruct memory egg = eggManager.hatch(tokenId);\n\n        // check\n        if (egg.timestamp3Weeks > block.timestamp) {\n            revert EggHatchUnsatisfactoryTime(egg.timestamp3Weeks);\n        }\n\n        // burn\n        eggManager.safeTransferFrom(msg.sender, deadAddress, tokenId);\n\n        Gender result = _generate_gender(tokenId);\n\n        if (result == Gender.Girl) {\n            pulletChickManager.mint(msg.sender);\n\n            chickFemaleCount++;\n\n            emit EggHatchResult(\n                msg.sender,\n                address(eggManager),\n                tokenId,\n                address(pulletChickManager)\n            );\n        } else {\n            cockerelChickManager.mint(msg.sender);\n\n            chickMaleCount++;\n\n            emit EggHatchResult(\n                msg.sender,\n                address(eggManager),\n                tokenId,\n                address(cockerelChickManager)\n            );\n        }\n    }\n\n    // ----------------------- chick section -----------------------\n    // ############ cockerel chick hatch calculate ############\n    //    \n    function getCockerelChickCalculate(\n        uint256 _tokenId\n    )\n        public\n        view\n        returns (\n            uint256 currentTimestamp,\n            uint256 timestamp30Days,\n            uint256 timestampRemaining\n        )\n    {\n        ICockerelChick.ChickGrowStruct memory chick = cockerelChickManager.grow(\n            _tokenId\n        );\n\n        uint256 _timestamp = uint256(block.timestamp);\n\n        currentTimestamp = chick.currentTimestamp;\n        timestamp30Days = chick.timestamp30Days;\n\n        if (chick.timestamp30Days >= _timestamp) {\n            timestampRemaining = chick.timestamp30Days - _timestamp;\n        } else {\n            timestampRemaining = 0;\n        }\n    }\n\n    // ############ pullet chick hatch calculate ############\n    //    \n    function getPulletChickCalculate(\n        uint256 _tokenId\n    )\n        public\n        view\n        returns (\n            uint256 currentTimestamp,\n            uint256 timestamp30Days,\n            uint256 timestampRemaining\n        )\n    {\n        IPulletChick.ChickGrowStruct memory chick = pulletChickManager.grow(\n            _tokenId\n        );\n\n        uint256 _timestamp = uint256(block.timestamp);\n\n        currentTimestamp = chick.currentTimestamp;\n        timestamp30Days = chick.timestamp30Days;\n\n        if (chick.timestamp30Days >= _timestamp) {\n            timestampRemaining = chick.timestamp30Days - _timestamp;\n        } else {\n            timestampRemaining = 0;\n        }\n    }\n\n    // ############ chick use item ############\n    error ChickAlreadyUpgradeError(address chick, uint256 tokenId);\n    error ChickItemExpired();\n    error ChickApproveError();\n\n    event ChickConsumeItem(\n        address chickContract,\n        uint256 chickTokenId,\n        address itemContract,\n        uint256 itemTokenId,\n        uint256 itemAmount,\n        uint256 datesToSubtract\n    );\n\n    event ChickConsumeItemStats(\n        address chickContract,\n        uint256 chickTokenId,\n        address itemContract,\n        uint256 itemTokenId,\n        uint256 itemAmount,\n        uint256 point,\n        bool isDead\n    );\n\n    //   \n    // start require 1155 approveAll to cockFight.sol\n    function chickConsumeItem(\n        ItemTypes.ChickConsumeItem calldata consume\n    ) public nonReentrant {\n        // cockerel / pullet\n        if (consume.CockerelChickContract != address(0)) {\n            // cockerel chick item\n            if (\n                cockerelChickManager !=\n                ICockerelChick(consume.CockerelChickContract) &&\n                chickItemManager != IChickItem(consume.chickItemContract)\n            ) {\n                revert ConsumeManagerError(\n                    consume.CockerelChickContract,\n                    consume.chickItemContract\n                );\n            }\n\n            if (\n                cockerelChickManager.ownerOf(consume.CockerelChickTokenId) !=\n                msg.sender\n            ) {\n                revert ConsumeOwnerError(msg.sender);\n            }\n\n            if (\n                chickItemManager.balanceOf(\n                    msg.sender,\n                    consume.chickItemTokenId\n                ) < consume.chickItemAmount\n            ) {\n                revert ConsumeItemNotEnoughError(\n                    msg.sender,\n                    consume.chickItemTokenId\n                );\n            }\n\n            ItemTypes.ChickItem memory chickItem = chickItemManager.tokenURIs(\n                consume.chickItemTokenId\n            );\n            ICockerelChick.ChickGrowStruct\n                memory cockerelGrow = cockerelChickManager.grow(\n                    consume.CockerelChickTokenId\n                );\n            uint256 upgradeCounts = cockerelChickManager.upgradeCounts(\n                consume.CockerelChickTokenId\n            );\n\n            if (cockerelGrow.timestamp30Days <= block.timestamp) {\n                revert ChickItemExpired();\n            }\n\n            if (chickItem.day != 0) // grow / stats\n            {\n                // usingGrowItem\n                if (\n                    cockerelGrow.timestamp30Days <=\n                    cockerelGrow.currentTimestamp\n                ) {\n                    revert ConsumeTimeShrinkError();\n                }\n\n                // 1155 burn\n                chickItemManager.burn(\n                    msg.sender,\n                    consume.chickItemTokenId,\n                    consume.chickItemAmount\n                );\n\n                uint256 duration = cockerelGrow.timestamp30Days -\n                    cockerelGrow.currentTimestamp;\n                uint256 datesToSubtract;\n                if (duration >= chickItem.day * consume.chickItemAmount) {\n                    datesToSubtract = chickItem.day * consume.chickItemAmount;\n                } else {\n                    datesToSubtract = duration;\n                }\n\n                bool success = cockerelChickManager.usingGrowItem(\n                    consume.CockerelChickTokenId,\n                    msg.sender,\n                    datesToSubtract\n                );\n\n                if (success) {\n                    emit ChickConsumeItem(\n                        consume.CockerelChickContract,\n                        consume.CockerelChickTokenId,\n                        consume.chickItemContract,\n                        consume.chickItemTokenId,\n                        consume.chickItemAmount,\n                        datesToSubtract\n                    );\n                }\n            } else {\n                if (\n                    !cockerelChickManager.isApprovedForAll(\n                        msg.sender,\n                        address(this)\n                    )\n                ) {\n                    revert ChickApproveError();\n                }\n\n                if (consume.chickItemAmount != 1) {\n                    revert ConsumeItemNotEnoughError(\n                        msg.sender,\n                        consume.CockerelChickTokenId\n                    );\n                }\n\n                // usingStatUpgrade\n                if (upgradeCounts <= 0) {\n                    revert ChickAlreadyUpgradeError(\n                        consume.CockerelChickContract,\n                        consume.CockerelChickTokenId\n                    );\n                }\n\n                // 1155 burn\n                chickItemManager.burn(\n                    msg.sender,\n                    consume.chickItemTokenId,\n                    consume.chickItemAmount\n                );\n\n                (uint256 _point, bool _isDead) = cockerelChickManager\n                    .usingStatUpgrade(\n                        consume.CockerelChickTokenId,\n                        msg.sender,\n                        chickItem.statsIndex\n                    );\n\n                emit ChickConsumeItemStats(\n                    consume.CockerelChickContract,\n                    consume.CockerelChickTokenId,\n                    consume.chickItemContract,\n                    consume.chickItemTokenId,\n                    consume.chickItemAmount,\n                    _point,\n                    _isDead\n                );\n            }\n        } else {\n            if (\n                consume.PulletChickContract == address(0) &&\n                pulletChickManager != IPulletChick(consume.PulletChickContract)\n            ) {\n                revert ConsumeManagerError(\n                    consume.PulletChickContract,\n                    consume.chickItemContract\n                );\n            }\n\n            if (\n                pulletChickManager.ownerOf(consume.PulletChickTokenId) !=\n                msg.sender\n            ) {\n                revert ConsumeOwnerError(msg.sender);\n            }\n\n            if (\n                chickItemManager.balanceOf(\n                    msg.sender,\n                    consume.chickItemTokenId\n                ) < consume.chickItemAmount\n            ) {\n                revert ConsumeItemNotEnoughError(\n                    msg.sender,\n                    consume.chickItemTokenId\n                );\n            }\n\n            ItemTypes.ChickItem memory chickItem = chickItemManager.tokenURIs(\n                consume.chickItemTokenId\n            );\n\n            IPulletChick.ChickGrowStruct memory pulletGrow = pulletChickManager\n                .grow(consume.PulletChickTokenId);\n\n            if (pulletGrow.timestamp30Days <= pulletGrow.currentTimestamp) {\n                revert ConsumeTimeShrinkError();\n            }\n\n            require(chickItem.isPulletPossible, \"No items\");\n\n            // 1155 burn\n            chickItemManager.burn(\n                msg.sender,\n                consume.chickItemTokenId,\n                consume.chickItemAmount\n            );\n\n            uint256 duration = pulletGrow.timestamp30Days -\n                pulletGrow.currentTimestamp;\n            uint256 datesToSubtract;\n            if (duration >= chickItem.day * consume.chickItemAmount) {\n                datesToSubtract = chickItem.day * consume.chickItemAmount;\n            } else {\n                datesToSubtract = duration;\n            }\n\n            bool success = pulletChickManager.usingGrowItem(\n                consume.PulletChickTokenId,\n                msg.sender,\n                datesToSubtract\n            );\n\n            if (success) {\n                emit ChickConsumeItem(\n                    consume.PulletChickContract,\n                    consume.PulletChickTokenId,\n                    consume.chickItemContract,\n                    consume.chickItemTokenId,\n                    consume.chickItemAmount,\n                    datesToSubtract\n                );\n            }\n        }\n    }\n\n    // ############ chick grow ############\n    error ChickGrowManagerError(address _cockContract);\n    error ChickGrowOwnerError(address _owner);\n    error ChickGrowUnsatisfactoryTime(uint256 _timestamp);\n\n    event CockMint(\n        address owner,\n        uint256 attack,\n        uint256 attackSpeed,\n        uint256 critChance,\n        uint256 health,\n        uint256 evasion\n    );\n    event HenMint(address owner);\n\n    //  \n    // start require 721 approveAll to cockFight.sol\n    function cockerelChickGrow(\n        address _cockerelChickContract,\n        uint256 _tokenId\n    ) public isBlackListWallet(msg.sender) nonReentrant {\n        if (cockerelChickManager != ICockerelChick(_cockerelChickContract)) {\n            revert ChickGrowManagerError(_cockerelChickContract);\n        }\n        if (cockerelChickManager.ownerOf(_tokenId) != msg.sender) {\n            revert ChickGrowOwnerError(msg.sender);\n        }\n\n        ICockerelChick.ChickGrowStruct\n            memory cockerelGrow = cockerelChickManager.grow(_tokenId);\n\n        if (cockerelGrow.timestamp30Days > block.timestamp) {\n            revert ChickGrowUnsatisfactoryTime(cockerelGrow.timestamp30Days);\n        }\n\n        // burn\n        cockerelChickManager.safeTransferFrom(\n            msg.sender,\n            deadAddress,\n            _tokenId\n        );\n\n        ICockerelChick.ChickStats memory cockerelStats = cockerelChickManager\n            .stats(_tokenId);\n\n        // mint\n        cockManager.mint(\n            msg.sender,\n            cockerelStats.attack,\n            cockerelStats.attackSpeed,\n            cockerelStats.critChance,\n            cockerelStats.health,\n            cockerelStats.evasion\n        );\n\n        emit CockMint(\n            msg.sender,\n            cockerelStats.attack,\n            cockerelStats.attackSpeed,\n            cockerelStats.critChance,\n            cockerelStats.health,\n            cockerelStats.evasion\n        );\n    }\n\n    //  \n    // start require 721 approveAll to cockFight.sol\n    function pulletChickGrow(\n        address _pulletChickContract,\n        uint256 _tokenId\n    ) public isBlackListWallet(msg.sender) nonReentrant {\n        if (pulletChickManager != IPulletChick(_pulletChickContract)) {\n            revert ChickGrowManagerError(_pulletChickContract);\n        }\n\n        if (pulletChickManager.ownerOf(_tokenId) != msg.sender) {\n            revert ChickGrowOwnerError(msg.sender);\n        }\n\n        IPulletChick.ChickGrowStruct memory pulletGrow = pulletChickManager\n            .grow(_tokenId);\n\n        if (pulletGrow.timestamp30Days > block.timestamp) {\n            revert ChickGrowUnsatisfactoryTime(pulletGrow.timestamp30Days);\n        }\n\n        // burn\n        pulletChickManager.safeTransferFrom(msg.sender, deadAddress, _tokenId);\n\n        // mint\n        henManager.mint(msg.sender);\n\n        emit HenMint(msg.sender);\n    }\n\n    // ----------------------- chicken section -----------------------\n    //    \n    function manageCockEntry(\n        uint256 _tokenId,\n        uint256 _status\n    ) public isWhiteListControl(msg.sender) nonReentrant {\n        require(_status != 1, \"1 is not supported\");\n\n        ICock.ChickGame memory chickStatus = cockManager.game(_tokenId);\n\n        require(chickStatus.status != _status, \"Already Updated status\");\n\n        cockManager.updateCockGameStatus(_tokenId, _status, 0, 0, 0);\n    }\n\n    //    /   \n    function cockGameUpdate(\n        uint256 _tokenId,\n        uint256 _status,\n        uint256 _win,\n        uint256 _lose,\n        uint256 _draw\n    ) public isWhiteListControl(msg.sender) nonReentrant {\n        ICock.ChickGame memory chickStatus = cockManager.game(_tokenId);\n\n        require(chickStatus.status != 1, \"Already dead!\");\n\n        cockManager.updateCockGameStatus(_tokenId, _status, _win, _lose, _draw);\n    }\n\n    event CockLifeItem(\n        address _cockContract,\n        uint256 _cockTokenId,\n        address _cockItemContract,\n        uint256 _cockItemTokenId,\n        uint256 _cockItemAmount,\n        address owner\n    );\n\n    //     \n    // start require 1155 approveAll to cockFight.sol\n    function cockUseLifeItem(\n        ItemTypes.CockConsumeItem calldata consume\n    ) public nonReentrant {\n        // check\n        if (\n            cockManager != ICock(consume.CockContract) &&\n            cockItemManager != ICockItem(consume.cockItemContract)\n        ) {\n            revert ConsumeManagerError(\n                consume.CockContract,\n                consume.cockItemContract\n            );\n        }\n        if (cockManager.ownerOf(consume.CockTokenId) != msg.sender) {\n            revert ConsumeOwnerError(msg.sender);\n        }\n        if (\n            cockItemManager.balanceOf(msg.sender, consume.cockItemTokenId) <\n            consume.cockItemAmount\n        ) {\n            revert ConsumeItemNotEnoughError(\n                msg.sender,\n                consume.cockItemTokenId\n            );\n        }\n        if (consume.cockItemAmount > 1) {\n            revert ConsumeItemNotEnoughError(\n                msg.sender,\n                consume.cockItemTokenId\n            );\n        }\n\n        ICock.ChickGame memory cock = cockManager.game(consume.CockTokenId);\n\n        // is dead check\n        require(cock.status == 1, \"Cock is not dead\");\n\n        // 1155 burn\n        cockItemManager.burn(\n            msg.sender,\n            consume.cockItemTokenId,\n            consume.cockItemAmount\n        );\n\n        cockManager.updateCockLife(consume.CockTokenId);\n\n        emit CockLifeItem(\n            consume.CockContract,\n            consume.CockTokenId,\n            consume.cockItemContract,\n            consume.cockItemTokenId,\n            consume.cockItemAmount,\n            msg.sender\n        );\n    }\n\n    // ----------------------- item section -----------------------\n    event EggItemBuy(\n        address eggItemContract,\n        address owner,\n        uint256 tokenId,\n        uint256 amount,\n        uint256 price\n    );\n    event ChickItemBuy(\n        address chickItemContract,\n        address owner,\n        uint256 tokenId,\n        uint256 amount,\n        uint256 price\n    );\n    event CockItemBuy(\n        address cockItemContract,\n        address owner,\n        uint256 tokenId,\n        uint256 amount,\n        uint256 price\n    );\n\n    function eggItemBuy(uint256 _tokenId, uint256 _amount) public nonReentrant {\n        require(_amount > 0, \"Must be at least zero.\");\n\n        ItemTypes.EggItem memory item = eggItemManager.tokenURIs(_tokenId);\n\n        require(item.isSale, \"Not sale item\");\n        require(item.price > 0, \"Not sale item\");\n\n        tokenManager.safeTransferFrom(\n            msg.sender,\n            address(this),\n            item.price * _amount\n        );\n\n        eggItemManager.mint(msg.sender, _tokenId, _amount, \"0x\");\n\n        emit EggItemBuy(\n            address(eggItemManager),\n            msg.sender,\n            _tokenId,\n            _amount,\n            item.price * _amount\n        );\n    }\n\n    function chickItemBuy(\n        uint256 _tokenId,\n        uint256 _amount\n    ) public nonReentrant {\n        require(_amount > 0, \"Must be at least zero.\");\n\n        ItemTypes.ChickItem memory item = chickItemManager.tokenURIs(_tokenId);\n\n        require(item.isSale, \"Not sale item\");\n        require(item.price > 0, \"Not sale item\");\n\n        tokenManager.safeTransferFrom(\n            msg.sender,\n            address(this),\n            item.price * _amount\n        );\n\n        chickItemManager.mint(msg.sender, _tokenId, _amount, \"0x\");\n\n        emit ChickItemBuy(\n            address(chickItemManager),\n            msg.sender,\n            _tokenId,\n            _amount,\n            item.price * _amount\n        );\n    }\n\n    function cockItemBuy(\n        uint256 _tokenId,\n        uint256 _amount\n    ) public nonReentrant {\n        require(_amount > 0, \"Must be at least zero.\");\n\n        ItemTypes.CockItem memory item = cockItemManager.tokenURIs(_tokenId);\n\n        require(item.isSale, \"Not sale item\");\n        require(item.price > 0, \"Not sale item\");\n\n        tokenManager.safeTransferFrom(\n            msg.sender,\n            address(this),\n            item.price * _amount\n        );\n\n        cockItemManager.mint(msg.sender, _tokenId, _amount, \"0x\");\n\n        emit CockItemBuy(\n            address(cockItemManager),\n            msg.sender,\n            _tokenId,\n            _amount,\n            item.price * _amount\n        );\n    }\n}\n",
  "sourcePath": "/Users/minki/Desktop/Codberg/cock-fight-network-contrats/cotract-test/contracts/cock-fight/CockFight.sol",
  "compiler": {
    "name": "solc",
    "version": "0.8.7+commit.e28d00a7.Emscripten.clang"
  },
  "schemaVersion": "3.4.16",
  "updatedAt": "2024-09-11T04:43:54.710Z",
  "devdoc": {
    "kind": "dev",
    "methods": {},
    "version": 1
  },
  "userdoc": {
    "kind": "user",
    "methods": {},
    "version": 1
  }
}