{
  "contractName": "Cock",
  "abi": [
    {
      "inputs": [
        {
          "internalType": "address",
          "name": "_accessControl",
          "type": "address"
        }
      ],
      "stateMutability": "nonpayable",
      "type": "constructor"
    },
    {
      "inputs": [
        {
          "internalType": "uint256",
          "name": "_tokenId",
          "type": "uint256"
        }
      ],
      "name": "CockIsNotDeadError",
      "type": "error"
    },
    {
      "inputs": [
        {
          "internalType": "uint256",
          "name": "_tokenId",
          "type": "uint256"
        }
      ],
      "name": "TransferDenied",
      "type": "error"
    },
    {
      "anonymous": false,
      "inputs": [
        {
          "indexed": true,
          "internalType": "address",
          "name": "owner",
          "type": "address"
        },
        {
          "indexed": true,
          "internalType": "address",
          "name": "approved",
          "type": "address"
        },
        {
          "indexed": true,
          "internalType": "uint256",
          "name": "tokenId",
          "type": "uint256"
        }
      ],
      "name": "Approval",
      "type": "event"
    },
    {
      "anonymous": false,
      "inputs": [
        {
          "indexed": true,
          "internalType": "address",
          "name": "owner",
          "type": "address"
        },
        {
          "indexed": true,
          "internalType": "address",
          "name": "operator",
          "type": "address"
        },
        {
          "indexed": false,
          "internalType": "bool",
          "name": "approved",
          "type": "bool"
        }
      ],
      "name": "ApprovalForAll",
      "type": "event"
    },
    {
      "anonymous": false,
      "inputs": [
        {
          "indexed": false,
          "internalType": "uint256",
          "name": "_tokenId",
          "type": "uint256"
        },
        {
          "indexed": false,
          "internalType": "uint256",
          "name": "_status",
          "type": "uint256"
        },
        {
          "indexed": false,
          "internalType": "uint256",
          "name": "_win",
          "type": "uint256"
        },
        {
          "indexed": false,
          "internalType": "uint256",
          "name": "_lose",
          "type": "uint256"
        },
        {
          "indexed": false,
          "internalType": "uint256",
          "name": "_draw",
          "type": "uint256"
        }
      ],
      "name": "CockGameStatus",
      "type": "event"
    },
    {
      "anonymous": false,
      "inputs": [
        {
          "indexed": false,
          "internalType": "uint256",
          "name": "_tokenId",
          "type": "uint256"
        },
        {
          "indexed": false,
          "internalType": "uint256",
          "name": "_status",
          "type": "uint256"
        },
        {
          "indexed": false,
          "internalType": "uint256",
          "name": "_win",
          "type": "uint256"
        },
        {
          "indexed": false,
          "internalType": "uint256",
          "name": "_lose",
          "type": "uint256"
        },
        {
          "indexed": false,
          "internalType": "uint256",
          "name": "_draw",
          "type": "uint256"
        }
      ],
      "name": "CockLife",
      "type": "event"
    },
    {
      "anonymous": false,
      "inputs": [
        {
          "indexed": false,
          "internalType": "uint256",
          "name": "_tokenId",
          "type": "uint256"
        },
        {
          "indexed": false,
          "internalType": "address",
          "name": "_owner",
          "type": "address"
        },
        {
          "indexed": false,
          "internalType": "uint256",
          "name": "_attack",
          "type": "uint256"
        },
        {
          "indexed": false,
          "internalType": "uint256",
          "name": "_attackSpeed",
          "type": "uint256"
        },
        {
          "indexed": false,
          "internalType": "uint256",
          "name": "_critChance",
          "type": "uint256"
        },
        {
          "indexed": false,
          "internalType": "uint256",
          "name": "_health",
          "type": "uint256"
        },
        {
          "indexed": false,
          "internalType": "uint256",
          "name": "_evasion",
          "type": "uint256"
        }
      ],
      "name": "CockMint",
      "type": "event"
    },
    {
      "anonymous": false,
      "inputs": [
        {
          "indexed": true,
          "internalType": "address",
          "name": "from",
          "type": "address"
        },
        {
          "indexed": true,
          "internalType": "address",
          "name": "to",
          "type": "address"
        },
        {
          "indexed": true,
          "internalType": "uint256",
          "name": "tokenId",
          "type": "uint256"
        }
      ],
      "name": "Transfer",
      "type": "event"
    },
    {
      "inputs": [],
      "name": "accessControl",
      "outputs": [
        {
          "internalType": "contract ICFNAccessControl",
          "name": "",
          "type": "address"
        }
      ],
      "stateMutability": "view",
      "type": "function"
    },
    {
      "inputs": [
        {
          "internalType": "address",
          "name": "to",
          "type": "address"
        },
        {
          "internalType": "uint256",
          "name": "tokenId",
          "type": "uint256"
        }
      ],
      "name": "approve",
      "outputs": [],
      "stateMutability": "nonpayable",
      "type": "function"
    },
    {
      "inputs": [
        {
          "internalType": "address",
          "name": "owner",
          "type": "address"
        }
      ],
      "name": "balanceOf",
      "outputs": [
        {
          "internalType": "uint256",
          "name": "",
          "type": "uint256"
        }
      ],
      "stateMutability": "view",
      "type": "function"
    },
    {
      "inputs": [],
      "name": "fileExtention",
      "outputs": [
        {
          "internalType": "string",
          "name": "",
          "type": "string"
        }
      ],
      "stateMutability": "view",
      "type": "function"
    },
    {
      "inputs": [
        {
          "internalType": "uint256",
          "name": "",
          "type": "uint256"
        }
      ],
      "name": "game",
      "outputs": [
        {
          "internalType": "uint256",
          "name": "status",
          "type": "uint256"
        },
        {
          "internalType": "uint256",
          "name": "win",
          "type": "uint256"
        },
        {
          "internalType": "uint256",
          "name": "lose",
          "type": "uint256"
        },
        {
          "internalType": "uint256",
          "name": "draw",
          "type": "uint256"
        }
      ],
      "stateMutability": "view",
      "type": "function"
    },
    {
      "inputs": [
        {
          "internalType": "uint256",
          "name": "tokenId",
          "type": "uint256"
        }
      ],
      "name": "getApproved",
      "outputs": [
        {
          "internalType": "address",
          "name": "",
          "type": "address"
        }
      ],
      "stateMutability": "view",
      "type": "function"
    },
    {
      "inputs": [
        {
          "internalType": "address",
          "name": "owner",
          "type": "address"
        },
        {
          "internalType": "address",
          "name": "operator",
          "type": "address"
        }
      ],
      "name": "isApprovedForAll",
      "outputs": [
        {
          "internalType": "bool",
          "name": "",
          "type": "bool"
        }
      ],
      "stateMutability": "view",
      "type": "function"
    },
    {
      "inputs": [],
      "name": "name",
      "outputs": [
        {
          "internalType": "string",
          "name": "",
          "type": "string"
        }
      ],
      "stateMutability": "view",
      "type": "function"
    },
    {
      "inputs": [
        {
          "internalType": "uint256",
          "name": "tokenId",
          "type": "uint256"
        }
      ],
      "name": "ownerOf",
      "outputs": [
        {
          "internalType": "address",
          "name": "",
          "type": "address"
        }
      ],
      "stateMutability": "view",
      "type": "function"
    },
    {
      "inputs": [
        {
          "internalType": "address",
          "name": "operator",
          "type": "address"
        },
        {
          "internalType": "bool",
          "name": "approved",
          "type": "bool"
        }
      ],
      "name": "setApprovalForAll",
      "outputs": [],
      "stateMutability": "nonpayable",
      "type": "function"
    },
    {
      "inputs": [
        {
          "internalType": "uint256",
          "name": "",
          "type": "uint256"
        }
      ],
      "name": "stats",
      "outputs": [
        {
          "internalType": "uint256",
          "name": "attack",
          "type": "uint256"
        },
        {
          "internalType": "uint256",
          "name": "attackSpeed",
          "type": "uint256"
        },
        {
          "internalType": "uint256",
          "name": "critChance",
          "type": "uint256"
        },
        {
          "internalType": "uint256",
          "name": "health",
          "type": "uint256"
        },
        {
          "internalType": "uint256",
          "name": "evasion",
          "type": "uint256"
        }
      ],
      "stateMutability": "view",
      "type": "function"
    },
    {
      "inputs": [
        {
          "internalType": "bytes4",
          "name": "interfaceId",
          "type": "bytes4"
        }
      ],
      "name": "supportsInterface",
      "outputs": [
        {
          "internalType": "bool",
          "name": "",
          "type": "bool"
        }
      ],
      "stateMutability": "view",
      "type": "function"
    },
    {
      "inputs": [],
      "name": "symbol",
      "outputs": [
        {
          "internalType": "string",
          "name": "",
          "type": "string"
        }
      ],
      "stateMutability": "view",
      "type": "function"
    },
    {
      "inputs": [
        {
          "internalType": "string",
          "name": "uri",
          "type": "string"
        }
      ],
      "name": "setUrl",
      "outputs": [],
      "stateMutability": "nonpayable",
      "type": "function"
    },
    {
      "inputs": [
        {
          "internalType": "string",
          "name": "_uri",
          "type": "string"
        }
      ],
      "name": "setDeathUrl",
      "outputs": [],
      "stateMutability": "nonpayable",
      "type": "function"
    },
    {
      "inputs": [
        {
          "internalType": "uint256",
          "name": "_tokenId",
          "type": "uint256"
        },
        {
          "internalType": "uint256",
          "name": "_status",
          "type": "uint256"
        },
        {
          "internalType": "uint256",
          "name": "_win",
          "type": "uint256"
        },
        {
          "internalType": "uint256",
          "name": "_lose",
          "type": "uint256"
        },
        {
          "internalType": "uint256",
          "name": "_draw",
          "type": "uint256"
        }
      ],
      "name": "updateCockGameStatus",
      "outputs": [],
      "stateMutability": "nonpayable",
      "type": "function"
    },
    {
      "inputs": [
        {
          "internalType": "uint256",
          "name": "_tokenId",
          "type": "uint256"
        }
      ],
      "name": "updateCockLife",
      "outputs": [],
      "stateMutability": "nonpayable",
      "type": "function"
    },
    {
      "inputs": [
        {
          "internalType": "uint256",
          "name": "_tokenId",
          "type": "uint256"
        }
      ],
      "name": "burn",
      "outputs": [],
      "stateMutability": "nonpayable",
      "type": "function"
    },
    {
      "inputs": [
        {
          "internalType": "address",
          "name": "_to",
          "type": "address"
        },
        {
          "internalType": "uint256",
          "name": "_attack",
          "type": "uint256"
        },
        {
          "internalType": "uint256",
          "name": "_attackSpeed",
          "type": "uint256"
        },
        {
          "internalType": "uint256",
          "name": "_critChance",
          "type": "uint256"
        },
        {
          "internalType": "uint256",
          "name": "_health",
          "type": "uint256"
        },
        {
          "internalType": "uint256",
          "name": "_evasion",
          "type": "uint256"
        }
      ],
      "name": "mint",
      "outputs": [],
      "stateMutability": "nonpayable",
      "type": "function"
    },
    {
      "inputs": [
        {
          "internalType": "uint256",
          "name": "tokenId",
          "type": "uint256"
        }
      ],
      "name": "tokenURI",
      "outputs": [
        {
          "internalType": "string",
          "name": "",
          "type": "string"
        }
      ],
      "stateMutability": "view",
      "type": "function"
    },
    {
      "inputs": [
        {
          "internalType": "address",
          "name": "from",
          "type": "address"
        },
        {
          "internalType": "address",
          "name": "to",
          "type": "address"
        },
        {
          "internalType": "uint256",
          "name": "tokenId",
          "type": "uint256"
        }
      ],
      "name": "transferFrom",
      "outputs": [],
      "stateMutability": "nonpayable",
      "type": "function"
    },
    {
      "inputs": [
        {
          "internalType": "address",
          "name": "from",
          "type": "address"
        },
        {
          "internalType": "address",
          "name": "to",
          "type": "address"
        },
        {
          "internalType": "uint256",
          "name": "tokenId",
          "type": "uint256"
        }
      ],
      "name": "safeTransferFrom",
      "outputs": [],
      "stateMutability": "nonpayable",
      "type": "function"
    },
    {
      "inputs": [
        {
          "internalType": "address",
          "name": "from",
          "type": "address"
        },
        {
          "internalType": "address",
          "name": "to",
          "type": "address"
        },
        {
          "internalType": "uint256",
          "name": "tokenId",
          "type": "uint256"
        },
        {
          "internalType": "bytes",
          "name": "data",
          "type": "bytes"
        }
      ],
      "name": "safeTransferFrom",
      "outputs": [],
      "stateMutability": "nonpayable",
      "type": "function"
    }
  ],
  "bytecode": "0x60c06040526005608081905264173539b7b760d91b60a09081526200002891600a919062000161565b503480156200003657600080fd5b50604051620029c2380380620029c2833981016040819052620000599162000207565b604080518082018252600881526743464e20436f636b60c01b60208083019182528351808501909452600484526343464e4360e01b908401528151919291620000a59160009162000161565b508051620000bb90600190602084019062000161565b505060016006555060408051808201909152601f8082527f68747470733a2f2f696d672e63662d6e2e696f2f6a736f6e732f436f636b2f006020909201918252620001099160099162000161565b50604051806060016040528060298152602001620029996029913980516200013a91600b9160209091019062000161565b50600880546001600160a01b0319166001600160a01b039290921691909117905562000276565b8280546200016f9062000239565b90600052602060002090601f016020900481019282620001935760008555620001de565b82601f10620001ae57805160ff1916838001178555620001de565b82800160010185558215620001de579182015b82811115620001de578251825591602001919060010190620001c1565b50620001ec929150620001f0565b5090565b5b80821115620001ec5760008155600101620001f1565b6000602082840312156200021a57600080fd5b81516001600160a01b03811681146200023257600080fd5b9392505050565b600181811c908216806200024e57607f821691505b602082108114156200027057634e487b7160e01b600052602260045260246000fd5b50919050565b61271380620002866000396000f3fe608060405234801561001057600080fd5b506004361061014d5760003560e01c80636352211e116100c3578063b88d4fde1161007c578063b88d4fde14610310578063c87b56dd14610323578063cddbe72914610336578063db4c2ac71461038b578063dfc8fff61461039e578063e985e9c5146103b157600080fd5b80636352211e1461025457806370a08231146102675780638d716b221461028857806395d89b4114610290578063a22cb46514610298578063ad217ae5146102ab57600080fd5b806313caacf91161011557806313caacf9146101e257806323b872dd146101f557806324deb27d14610208578063252498a21461021b57806342842e0e1461022e57806342966c681461024157600080fd5b806301ffc9a71461015257806306fdde031461017a578063081812fc1461018f578063095ea7b3146101ba57806313007d55146101cf575b600080fd5b61016561016036600461229a565b6103ed565b60405190151581526020015b60405180910390f35b61018261043f565b604051610171919061249e565b6101a261019d36600461231d565b6104d1565b6040516001600160a01b039091168152602001610171565b6101cd6101c8366004612209565b6104f8565b005b6008546101a2906001600160a01b031681565b6101cd6101f0366004612336565b610613565b6101cd61020336600461211a565b6107c8565b6101cd6102163660046122d4565b610981565b6101cd6102293660046122d4565b610a2c565b6101cd61023c36600461211a565b610ad7565b6101cd61024f36600461231d565b610c88565b6101a261026236600461231d565b610cbb565b61027a6102753660046120c5565b610d1b565b604051908152602001610171565b610182610da1565b610182610e2f565b6101cd6102a63660046121d2565b610e3e565b6102e86102b936600461231d565b600d60205260009081526040902080546001820154600283015460038401546004909401549293919290919085565b604080519586526020860194909452928401919091526060830152608082015260a001610171565b6101cd61031e366004612156565b610e4d565b61018261033136600461231d565b611008565b61036b61034436600461231d565b600c6020526000908152604090208054600182015460028301546003909301549192909184565b604080519485526020850193909352918301526060820152608001610171565b6101cd61039936600461231d565b6111a4565b6101cd6103ac366004612233565b6112dd565b6101656103bf3660046120e7565b6001600160a01b03918216600090815260056020908152604080832093909416825291909152205460ff1690565b60006001600160e01b031982166380ac58cd60e01b148061041e57506001600160e01b03198216635b5e139f60e01b145b8061043957506301ffc9a760e01b6001600160e01b03198316145b92915050565b60606000805461044e90612668565b80601f016020809104026020016040519081016040528092919081815260200182805461047a90612668565b80156104c75780601f1061049c576101008083540402835291602001916104c7565b820191906000526020600020905b8154815290600101906020018083116104aa57829003601f168201915b5050505050905090565b60006104dc8261160d565b506000908152600460205260409020546001600160a01b031690565b600061050382610cbb565b9050806001600160a01b0316836001600160a01b031614156105765760405162461bcd60e51b815260206004820152602160248201527f4552433732313a20617070726f76616c20746f2063757272656e74206f776e656044820152603960f91b60648201526084015b60405180910390fd5b336001600160a01b0382161480610592575061059281336103bf565b6106045760405162461bcd60e51b815260206004820152603d60248201527f4552433732313a20617070726f76652063616c6c6572206973206e6f7420746f60448201527f6b656e206f776e6572206f7220617070726f76656420666f7220616c6c000000606482015260840161056d565b61060e838361166c565b505050565b600854604051633f1e317960e11b81523360048201819052916001600160a01b031690637e3c62f29060240160206040518083038186803b15801561065757600080fd5b505afa15801561066b573d6000803e3d6000fd5b505050506040513d601f19601f8201168201806040525081019061068f919061227d565b6106ab5760405162461bcd60e51b815260040161056d90612595565b600184111580156106bd575060018311155b6106ff5760405162461bcd60e51b815260206004820152601360248201527226bab9ba103132903632b9b9903a3430b7101960691b604482015260640161056d565b6000868152600c602052604090208581558415610730578481600101600082825461072a9190612616565b90915550505b8315610750578381600201600082825461074a9190612616565b90915550505b8215610770578281600301600082825461076a9190612616565b90915550505b604080518881526020810188905290810186905260608101859052608081018490527f56698d3ce3b60629b577ab9dc42f9ff7193d321c01da0abe3824c502dd2656a59060a00160405180910390a150505050505050565b600854604051636aacbfd760e11b81526001600160a01b0380861660048301528592169063d5597fae9060240160206040518083038186803b15801561080d57600080fd5b505afa158015610821573d6000803e3d6000fd5b505050506040513d601f19601f82011682018060405250810190610845919061227d565b156108625760405162461bcd60e51b815260040161056d906125cc565b600854604051636aacbfd760e11b81526001600160a01b0380861660048301528592169063d5597fae9060240160206040518083038186803b1580156108a757600080fd5b505afa1580156108bb573d6000803e3d6000fd5b505050506040513d601f19601f820116820180604052508101906108df919061227d565b156108fc5760405162461bcd60e51b815260040161056d906125cc565b6000838152600c60209081526040918290208251608081018452815480825260018301549382019390935260028083015494820194909452600390910154606082015291148061094d575080516001145b1561096e5760405163951b863f60e01b81526004810185905260240161056d565b6109798686866116da565b505050505050565b600854604051633f1e317960e11b81523360048201819052916001600160a01b031690637e3c62f29060240160206040518083038186803b1580156109c557600080fd5b505afa1580156109d9573d6000803e3d6000fd5b505050506040513d601f19601f820116820180604052508101906109fd919061227d565b610a195760405162461bcd60e51b815260040161056d90612595565b815161060e90600b906020850190611f9a565b600854604051633f1e317960e11b81523360048201819052916001600160a01b031690637e3c62f29060240160206040518083038186803b158015610a7057600080fd5b505afa158015610a84573d6000803e3d6000fd5b505050506040513d601f19601f82011682018060405250810190610aa8919061227d565b610ac45760405162461bcd60e51b815260040161056d90612595565b815161060e906009906020850190611f9a565b600854604051636aacbfd760e11b81526001600160a01b0380861660048301528592169063d5597fae9060240160206040518083038186803b158015610b1c57600080fd5b505afa158015610b30573d6000803e3d6000fd5b505050506040513d601f19601f82011682018060405250810190610b54919061227d565b15610b715760405162461bcd60e51b815260040161056d906125cc565b600854604051636aacbfd760e11b81526001600160a01b0380861660048301528592169063d5597fae9060240160206040518083038186803b158015610bb657600080fd5b505afa158015610bca573d6000803e3d6000fd5b505050506040513d601f19601f82011682018060405250810190610bee919061227d565b15610c0b5760405162461bcd60e51b815260040161056d906125cc565b6000838152600c602090815260409182902082516080810184528154808252600183015493820193909352600280830154948201949094526003909101546060820152911480610c5c575080516001145b15610c7d5760405163951b863f60e01b81526004810185905260240161056d565b61097986868661170a565b610c93335b82611725565b610caf5760405162461bcd60e51b815260040161056d906124b1565b610cb8816117a4565b50565b6000818152600260205260408120546001600160a01b0316806104395760405162461bcd60e51b8152602060048201526018602482015277115490cdcc8c4e881a5b9d985b1a59081d1bdad95b88125160421b604482015260640161056d565b60006001600160a01b038216610d855760405162461bcd60e51b815260206004820152602960248201527f4552433732313a2061646472657373207a65726f206973206e6f7420612076616044820152683634b21037bbb732b960b91b606482015260840161056d565b506001600160a01b031660009081526003602052604090205490565b600a8054610dae90612668565b80601f0160208091040260200160405190810160405280929190818152602001828054610dda90612668565b8015610e275780601f10610dfc57610100808354040283529160200191610e27565b820191906000526020600020905b815481529060010190602001808311610e0a57829003601f168201915b505050505081565b60606001805461044e90612668565b610e49338383611839565b5050565b600854604051636aacbfd760e11b81526001600160a01b0380871660048301528692169063d5597fae9060240160206040518083038186803b158015610e9257600080fd5b505afa158015610ea6573d6000803e3d6000fd5b505050506040513d601f19601f82011682018060405250810190610eca919061227d565b15610ee75760405162461bcd60e51b815260040161056d906125cc565b600854604051636aacbfd760e11b81526001600160a01b0380871660048301528692169063d5597fae9060240160206040518083038186803b158015610f2c57600080fd5b505afa158015610f40573d6000803e3d6000fd5b505050506040513d601f19601f82011682018060405250810190610f64919061227d565b15610f815760405162461bcd60e51b815260040161056d906125cc565b6000848152600c602090815260409182902082516080810184528154808252600183015493820193909352600280830154948201949094526003909101546060820152911480610fd2575080516001145b15610ff35760405163951b863f60e01b81526004810186905260240161056d565b610fff87878787611908565b50505050505050565b6060600061101583610cbb565b6001600160a01b031614156110845760405162461bcd60e51b815260206004820152602f60248201527f4552433732314d657461646174613a2055524920717565727920666f72206e6f60448201526e3732bc34b9ba32b73a103a37b5b2b760891b606482015260840161056d565b600061108e611940565b6000848152600c602090815260409182902082516080810184528154808252600180840154948301949094526002830154948201949094526003909101546060820152929350141561116e57600b80546110e790612668565b80601f016020809104026020016040519081016040528092919081815260200182805461111390612668565b80156111605780601f1061113557610100808354040283529160200191611160565b820191906000526020600020905b81548152906001019060200180831161114357829003601f168201915b505050505092505050919050565b816111788561194f565b600a60405160200161118c9392919061239d565b60405160208183030381529060405292505050919050565b600854604051633f1e317960e11b81523360048201819052916001600160a01b031690637e3c62f29060240160206040518083038186803b1580156111e857600080fd5b505afa1580156111fc573d6000803e3d6000fd5b505050506040513d601f19601f82011682018060405250810190611220919061227d565b61123c5760405162461bcd60e51b815260040161056d90612595565b6000828152600c602052604090208054600114156112c15760008082556001820181905560028201819055600382018190556040805185815260208101839052808201839052606081018390526080810192909252517f087d15a63add4abcddf068faa155b4656469ab58dfb8f60edebef04e7a8481e09181900360a00190a1505050565b6040516381b4b73b60e01b81526004810184905260240161056d565b600854604051636aacbfd760e11b81526001600160a01b0380891660048301528892169063d5597fae9060240160206040518083038186803b15801561132257600080fd5b505afa158015611336573d6000803e3d6000fd5b505050506040513d601f19601f8201168201806040525081019061135a919061227d565b156113775760405162461bcd60e51b815260040161056d906125cc565b600854604051633f1e317960e11b81523360048201819052916001600160a01b031690637e3c62f29060240160206040518083038186803b1580156113bb57600080fd5b505afa1580156113cf573d6000803e3d6000fd5b505050506040513d601f19601f820116820180604052508101906113f3919061227d565b61140f5760405162461bcd60e51b815260040161056d90612595565b6114176119ec565b60018710158015611429575060018610155b8015611436575060018510155b8015611443575060018410155b8015611450575060018310155b61149c5760405162461bcd60e51b815260206004820152601c60248201527f5374617473206d757374206265206174206c65617374207a65726f2e00000000604482015260640161056d565b6114aa600780546001019055565b60006114b560075490565b905060405180608001604052806000815260200160008152602001600081526020016000815250600c6000838152602001908152602001600020600082015181600001556020820151816001015560408201518160020155606082015181600301559050506040518060a0016040528089815260200188815260200187815260200186815260200185815250600d600083815260200190815260200160002060008201518160000155602082015181600101556040820151816002015560608201518160030155608082015181600401559050506115938982611a46565b604080518281526001600160a01b038b166020820152908101899052606081018890526080810187905260a0810186905260c081018590527fdbedcb511b8ce54548be24bfb66aa4c8c00e0d171e62ecfdb4031521db2a9dc29060e00160405180910390a1506116036001600655565b5050505050505050565b6000818152600260205260409020546001600160a01b0316610cb85760405162461bcd60e51b8152602060048201526018602482015277115490cdcc8c4e881a5b9d985b1a59081d1bdad95b88125160421b604482015260640161056d565b600081815260046020526040902080546001600160a01b0319166001600160a01b03841690811790915581906116a182610cbb565b6001600160a01b03167f8c5be1e5ebec7d5bd14f71427d1e84f3dd0314c0f7b2291e5b200ac8c7c3b92560405160405180910390a45050565b6116e333610c8d565b6116ff5760405162461bcd60e51b815260040161056d906124b1565b61060e838383611a60565b61060e83838360405180602001604052806000815250610e4d565b60008061173183610cbb565b9050806001600160a01b0316846001600160a01b0316148061177857506001600160a01b0380821660009081526005602090815260408083209388168352929052205460ff165b8061179c5750836001600160a01b0316611791846104d1565b6001600160a01b0316145b949350505050565b60006117af82610cbb565b90506117ba82610cbb565b600083815260046020908152604080832080546001600160a01b03199081169091556001600160a01b0385168085526003845282852080546000190190558785526002909352818420805490911690555192935084927fddf252ad1be2c89b69c2b068fc378daa952ba7f163c4a11628f55a4df523b3ef908390a45050565b816001600160a01b0316836001600160a01b0316141561189b5760405162461bcd60e51b815260206004820152601960248201527f4552433732313a20617070726f766520746f2063616c6c657200000000000000604482015260640161056d565b6001600160a01b03838116600081815260056020908152604080832094871680845294825291829020805460ff191686151590811790915591519182527f17307eab39ab6107e8899845ad3d59bd9653f200f220920489ca2b5937696c31910160405180910390a3505050565b6119123383611725565b61192e5760405162461bcd60e51b815260040161056d906124b1565b61193a84848484611bc4565b50505050565b60606009805461044e90612668565b6060600061195c83611bf7565b600101905060008167ffffffffffffffff81111561197c5761197c6126a3565b6040519080825280601f01601f1916602001820160405280156119a6576020820181803683370190505b5090508181016020015b600019016f181899199a1a9b1b9c1cb0b131b232b360811b600a86061a8153600a85049450846119df576119e4565b6119b0565b509392505050565b60026006541415611a3f5760405162461bcd60e51b815260206004820152601f60248201527f5265656e7472616e637947756172643a207265656e7472616e742063616c6c00604482015260640161056d565b6002600655565b610e49828260405180602001604052806000815250611ccf565b826001600160a01b0316611a7382610cbb565b6001600160a01b031614611a995760405162461bcd60e51b815260040161056d90612550565b6001600160a01b038216611afb5760405162461bcd60e51b8152602060048201526024808201527f4552433732313a207472616e7366657220746f20746865207a65726f206164646044820152637265737360e01b606482015260840161056d565b826001600160a01b0316611b0e82610cbb565b6001600160a01b031614611b345760405162461bcd60e51b815260040161056d90612550565b600081815260046020908152604080832080546001600160a01b03199081169091556001600160a01b0387811680865260038552838620805460001901905590871680865283862080546001019055868652600290945282852080549092168417909155905184937fddf252ad1be2c89b69c2b068fc378daa952ba7f163c4a11628f55a4df523b3ef91a4505050565b611bcf848484611a60565b611bdb84848484611d02565b61193a5760405162461bcd60e51b815260040161056d906124fe565b60008072184f03e93ff9f4daa797ed6e38ed64bf6a1f0160401b8310611c365772184f03e93ff9f4daa797ed6e38ed64bf6a1f0160401b830492506040015b6d04ee2d6d415b85acef81000000008310611c62576d04ee2d6d415b85acef8100000000830492506020015b662386f26fc100008310611c8057662386f26fc10000830492506010015b6305f5e1008310611c98576305f5e100830492506008015b6127108310611cac57612710830492506004015b60648310611cbe576064830492506002015b600a83106104395760010192915050565b611cd98383611e0f565b611ce66000848484611d02565b61060e5760405162461bcd60e51b815260040161056d906124fe565b60006001600160a01b0384163b15611e0457604051630a85bd0160e11b81526001600160a01b0385169063150b7a0290611d46903390899088908890600401612461565b602060405180830381600087803b158015611d6057600080fd5b505af1925050508015611d90575060408051601f3d908101601f19168201909252611d8d918101906122b7565b60015b611dea573d808015611dbe576040519150601f19603f3d011682016040523d82523d6000602084013e611dc3565b606091505b508051611de25760405162461bcd60e51b815260040161056d906124fe565b805181602001fd5b6001600160e01b031916630a85bd0160e11b14905061179c565b506001949350505050565b6001600160a01b038216611e655760405162461bcd60e51b815260206004820181905260248201527f4552433732313a206d696e7420746f20746865207a65726f2061646472657373604482015260640161056d565b6000818152600260205260409020546001600160a01b031615611eca5760405162461bcd60e51b815260206004820152601c60248201527f4552433732313a20746f6b656e20616c7265616479206d696e74656400000000604482015260640161056d565b6000818152600260205260409020546001600160a01b031615611f2f5760405162461bcd60e51b815260206004820152601c60248201527f4552433732313a20746f6b656e20616c7265616479206d696e74656400000000604482015260640161056d565b6001600160a01b038216600081815260036020908152604080832080546001019055848352600290915280822080546001600160a01b0319168417905551839291907fddf252ad1be2c89b69c2b068fc378daa952ba7f163c4a11628f55a4df523b3ef908290a45050565b828054611fa690612668565b90600052602060002090601f016020900481019282611fc8576000855561200e565b82601f10611fe157805160ff191683800117855561200e565b8280016001018555821561200e579182015b8281111561200e578251825591602001919060010190611ff3565b5061201a92915061201e565b5090565b5b8082111561201a576000815560010161201f565b600067ffffffffffffffff8084111561204e5761204e6126a3565b604051601f8501601f19908116603f01168101908282118183101715612076576120766126a3565b8160405280935085815286868601111561208f57600080fd5b858560208301376000602087830101525050509392505050565b80356001600160a01b03811681146120c057600080fd5b919050565b6000602082840312156120d757600080fd5b6120e0826120a9565b9392505050565b600080604083850312156120fa57600080fd5b612103836120a9565b9150612111602084016120a9565b90509250929050565b60008060006060848603121561212f57600080fd5b612138846120a9565b9250612146602085016120a9565b9150604084013590509250925092565b6000806000806080858703121561216c57600080fd5b612175856120a9565b9350612183602086016120a9565b925060408501359150606085013567ffffffffffffffff8111156121a657600080fd5b8501601f810187136121b757600080fd5b6121c687823560208401612033565b91505092959194509250565b600080604083850312156121e557600080fd5b6121ee836120a9565b915060208301356121fe816126b9565b809150509250929050565b6000806040838503121561221c57600080fd5b612225836120a9565b946020939093013593505050565b60008060008060008060c0878903121561224c57600080fd5b612255876120a9565b9860208801359850604088013597606081013597506080810135965060a00135945092505050565b60006020828403121561228f57600080fd5b81516120e0816126b9565b6000602082840312156122ac57600080fd5b81356120e0816126c7565b6000602082840312156122c957600080fd5b81516120e0816126c7565b6000602082840312156122e657600080fd5b813567ffffffffffffffff8111156122fd57600080fd5b8201601f8101841361230e57600080fd5b61179c84823560208401612033565b60006020828403121561232f57600080fd5b5035919050565b600080600080600060a0868803121561234e57600080fd5b505083359560208501359550604085013594606081013594506080013592509050565b6000815180845261238981602086016020860161263c565b601f01601f19169290920160200192915050565b6000845160206123b08285838a0161263c565b8551918401916123c38184848a0161263c565b8554920191600090600181811c90808316806123e057607f831692505b8583108114156123fe57634e487b7160e01b85526022600452602485fd5b808015612412576001811461242357612450565b60ff19851688528388019550612450565b60008b81526020902060005b858110156124485781548a82015290840190880161242f565b505083880195505b50939b9a5050505050505050505050565b6001600160a01b038581168252841660208201526040810183905260806060820181905260009061249490830184612371565b9695505050505050565b6020815260006120e06020830184612371565b6020808252602d908201527f4552433732313a2063616c6c6572206973206e6f7420746f6b656e206f776e6560408201526c1c881bdc88185c1c1c9bdd9959609a1b606082015260800190565b60208082526032908201527f4552433732313a207472616e7366657220746f206e6f6e20455243373231526560408201527131b2b4bb32b91034b6b83632b6b2b73a32b960711b606082015260800190565b60208082526025908201527f4552433732313a207472616e736665722066726f6d20696e636f72726563742060408201526437bbb732b960d91b606082015260800190565b60208082526018908201527f556e7665726966696564206f776e657220616464726573730000000000000000604082015260600190565b6020808252602a908201527f5472616e73616374696f6e2064656e6965643a206164647265737320697320626040820152691b1858dadb1a5cdd195960b21b606082015260800190565b6000821982111561263757634e487b7160e01b600052601160045260246000fd5b500190565b60005b8381101561265757818101518382015260200161263f565b8381111561193a5750506000910152565b600181811c9082168061267c57607f821691505b6020821081141561269d57634e487b7160e01b600052602260045260246000fd5b50919050565b634e487b7160e01b600052604160045260246000fd5b8015158114610cb857600080fd5b6001600160e01b031981168114610cb857600080fdfea2646970667358221220c066165f28320b6adbf34fd7969723e09aa27d2725a338c4f4a6003fd257e19664736f6c6343000807003368747470733a2f2f696d672e63662d6e2e696f2f6a736f6e732f436f636b2f64656174682e6a736f6e",
  "immutableReferences": {},
  "source": "// SPDX-License-Identifier: MIT\npragma solidity ^0.8.1;\n\nimport \"@openzeppelin/contracts/token/ERC721/ERC721.sol\";\nimport \"@openzeppelin/contracts/utils/Counters.sol\";\nimport {ReentrancyGuard} from \"@openzeppelin/contracts/security/ReentrancyGuard.sol\";\n\nimport \"../interfaces/ICFNAccessControl.sol\";\n\ncontract Cock is ERC721, ReentrancyGuard {\n    using Counters for Counters.Counter;\n    using Strings for uint256;\n\n    Counters.Counter private _tokenIdCounter;\n\n    ICFNAccessControl public accessControl;\n\n    string private url;\n    string public fileExtention = \".json\";\n    string private deathUrl;\n\n    mapping(uint256 => ChickGame) public game;\n    mapping(uint256 => CockStats) public stats;\n    struct ChickGame {\n        uint256 status; // 0 -> live 1 -> dead 2 -> game enter\n        uint256 win;\n        uint256 lose;\n        uint256 draw;\n    }\n    struct CockStats {\n        uint256 attack; // 0\n        uint256 attackSpeed; // 1\n        uint256 critChance; // 2\n        uint256 health; // 3\n        uint256 evasion; // 4\n    }\n\n    event CockMint(\n        uint256 _tokenId,\n        address _owner,\n        uint256 _attack,\n        uint256 _attackSpeed,\n        uint256 _critChance,\n        uint256 _health,\n        uint256 _evasion\n    );\n    event CockGameStatus(\n        uint256 _tokenId,\n        uint256 _status,\n        uint256 _win,\n        uint256 _lose,\n        uint256 _draw\n    );\n    event CockLife(\n        uint256 _tokenId,\n        uint256 _status,\n        uint256 _win,\n        uint256 _lose,\n        uint256 _draw\n    );\n\n    constructor(address _accessControl) ERC721(\"CFN Cock\", \"CFNC\") {\n        url = \"https://img.cf-n.io/jsons/Cock/\";\n        deathUrl = \"https://img.cf-n.io/jsons/Cock/death.json\";\n        accessControl = ICFNAccessControl(_accessControl);\n    }\n\n    modifier isBlackListWallet(address _address) {\n        require(\n            !accessControl.blackListWallet(_address),\n            \"Transaction denied: address is blacklisted\"\n        );\n        _;\n    }\n\n    modifier isWhiteListControl(address _ca) {\n        require(\n            accessControl.whiteListControlAddress(_ca),\n            \"Unverified owner address\"\n        );\n        _;\n    }\n\n    function _baseURI() internal view override returns (string memory) {\n        return url;\n    }\n\n    function setUrl(string memory uri) public isWhiteListControl(msg.sender) {\n        url = uri;\n    }\n\n    function setDeathUrl(\n        string memory _uri\n    ) public isWhiteListControl(msg.sender) {\n        deathUrl = _uri;\n    }\n\n    // 0 -> live 1 -> dead 2 -> game enter\n    function updateCockGameStatus(\n        uint256 _tokenId,\n        uint256 _status,\n        uint256 _win,\n        uint256 _lose,\n        uint256 _draw\n    ) public isWhiteListControl(msg.sender) {\n        require(_win <= 1 && _lose <= 1, \"Must be less than 2\");\n\n        ChickGame storage chickGameStatus = game[_tokenId];\n\n        chickGameStatus.status = _status;\n        if (_win > 0) {\n            chickGameStatus.win += _win;\n        }\n        if (_lose > 0) {\n            chickGameStatus.lose += _lose;\n        }\n        if (_draw > 0) {\n            chickGameStatus.draw += _draw;\n        }\n\n        emit CockGameStatus(_tokenId, _status, _win, _lose, _draw);\n    }\n\n    error CockIsNotDeadError(uint256 _tokenId);\n\n    function updateCockLife(\n        uint256 _tokenId\n    ) public isWhiteListControl(msg.sender) {\n        ChickGame storage chickGameLife = game[_tokenId];\n\n        if (chickGameLife.status == 1) {\n            chickGameLife.status = 0;\n            chickGameLife.win = 0;\n            chickGameLife.lose = 0;\n            chickGameLife.draw = 0;\n            emit CockLife(\n                _tokenId,\n                chickGameLife.status,\n                chickGameLife.win,\n                chickGameLife.lose,\n                chickGameLife.draw\n            );\n        } else {\n            revert CockIsNotDeadError(_tokenId);\n        }\n    }\n\n    function burn(uint256 _tokenId) public {\n        require(\n            _isApprovedOrOwner(_msgSender(), _tokenId),\n            \"ERC721: caller is not token owner or approved\"\n        );\n\n        _burn(_tokenId);\n    }\n\n    function mint(\n        address _to,\n        uint256 _attack,\n        uint256 _attackSpeed,\n        uint256 _critChance,\n        uint256 _health,\n        uint256 _evasion\n    )\n        public\n        isBlackListWallet(_to)\n        isWhiteListControl(msg.sender)\n        nonReentrant\n    {\n        require(\n            _attack >= 1 &&\n                _attackSpeed >= 1 &&\n                _critChance >= 1 &&\n                _health >= 1 &&\n                _evasion >= 1,\n            \"Stats must be at least zero.\"\n        );\n\n        _tokenIdCounter.increment();\n        uint256 tokenId = _tokenIdCounter.current();\n\n        game[tokenId] = ChickGame(0, 0, 0, 0);\n        stats[tokenId] = CockStats(\n            _attack,\n            _attackSpeed,\n            _critChance,\n            _health,\n            _evasion\n        );\n\n        super._safeMint(_to, tokenId);\n\n        emit CockMint(\n            tokenId,\n            _to,\n            _attack,\n            _attackSpeed,\n            _critChance,\n            _health,\n            _evasion\n        );\n    }\n\n    function tokenURI(\n        uint256 tokenId\n    ) public view virtual override returns (string memory) {\n        require(\n            ownerOf(tokenId) != address(0),\n            \"ERC721Metadata: URI query for nonexistent token\"\n        );\n        string memory baseURI = _baseURI();\n\n        ChickGame memory cockGameStatus = game[tokenId];\n\n        if (cockGameStatus.status == 1) {\n            return deathUrl;\n        }\n\n        return\n            string(\n                abi.encodePacked(baseURI, tokenId.toString(), fileExtention)\n            );\n    }\n\n    error TransferDenied(uint256 _tokenId);\n\n    function transferFrom(\n        address from,\n        address to,\n        uint256 tokenId\n    ) public override isBlackListWallet(from) isBlackListWallet(to) {\n        ChickGame memory gameInfo = game[tokenId];\n\n        if (gameInfo.status == 2 || gameInfo.status == 1) {\n            revert TransferDenied(tokenId);\n        }\n\n        super.transferFrom(from, to, tokenId);\n    }\n\n    function safeTransferFrom(\n        address from,\n        address to,\n        uint256 tokenId\n    ) public override isBlackListWallet(from) isBlackListWallet(to) {\n        ChickGame memory gameInfo = game[tokenId];\n\n        if (gameInfo.status == 2 || gameInfo.status == 1) {\n            revert TransferDenied(tokenId);\n        }\n\n        super.safeTransferFrom(from, to, tokenId);\n    }\n\n    function safeTransferFrom(\n        address from,\n        address to,\n        uint256 tokenId,\n        bytes memory data\n    ) public override isBlackListWallet(from) isBlackListWallet(to) {\n        ChickGame memory gameInfo = game[tokenId];\n\n        if (gameInfo.status == 2 || gameInfo.status == 1) {\n            revert TransferDenied(tokenId);\n        }\n\n        super.safeTransferFrom(from, to, tokenId, data);\n    }\n}\n",
  "sourcePath": "/Users/minki/Desktop/Codberg/cock-fight-network-contrats/cotract-test/contracts/cock-fight/erc721/Cock.sol",
  "compiler": {
    "name": "solc",
    "version": "0.8.7+commit.e28d00a7.Emscripten.clang"
  },
  "schemaVersion": "3.4.16",
  "updatedAt": "2024-09-09T05:33:58.292Z",
  "devdoc": {
    "kind": "dev",
    "methods": {
      "approve(address,uint256)": {
        "details": "See {IERC721-approve}."
      },
      "balanceOf(address)": {
        "details": "See {IERC721-balanceOf}."
      },
      "getApproved(uint256)": {
        "details": "See {IERC721-getApproved}."
      },
      "isApprovedForAll(address,address)": {
        "details": "See {IERC721-isApprovedForAll}."
      },
      "name()": {
        "details": "See {IERC721Metadata-name}."
      },
      "ownerOf(uint256)": {
        "details": "See {IERC721-ownerOf}."
      },
      "safeTransferFrom(address,address,uint256)": {
        "details": "See {IERC721-safeTransferFrom}."
      },
      "safeTransferFrom(address,address,uint256,bytes)": {
        "details": "See {IERC721-safeTransferFrom}."
      },
      "setApprovalForAll(address,bool)": {
        "details": "See {IERC721-setApprovalForAll}."
      },
      "supportsInterface(bytes4)": {
        "details": "See {IERC165-supportsInterface}."
      },
      "symbol()": {
        "details": "See {IERC721Metadata-symbol}."
      },
      "tokenURI(uint256)": {
        "details": "See {IERC721Metadata-tokenURI}."
      },
      "transferFrom(address,address,uint256)": {
        "details": "See {IERC721-transferFrom}."
      }
    },
    "version": 1
  },
  "userdoc": {
    "kind": "user",
    "methods": {},
    "version": 1
  }
}