{
  "contractName": "Hen",
  "abi": [
    {
      "inputs": [
        {
          "internalType": "address",
          "name": "_accessControl",
          "type": "address"
        }
      ],
      "stateMutability": "nonpayable",
      "type": "constructor"
    },
    {
      "anonymous": false,
      "inputs": [
        {
          "indexed": true,
          "internalType": "address",
          "name": "owner",
          "type": "address"
        },
        {
          "indexed": true,
          "internalType": "address",
          "name": "approved",
          "type": "address"
        },
        {
          "indexed": true,
          "internalType": "uint256",
          "name": "tokenId",
          "type": "uint256"
        }
      ],
      "name": "Approval",
      "type": "event"
    },
    {
      "anonymous": false,
      "inputs": [
        {
          "indexed": true,
          "internalType": "address",
          "name": "owner",
          "type": "address"
        },
        {
          "indexed": true,
          "internalType": "address",
          "name": "operator",
          "type": "address"
        },
        {
          "indexed": false,
          "internalType": "bool",
          "name": "approved",
          "type": "bool"
        }
      ],
      "name": "ApprovalForAll",
      "type": "event"
    },
    {
      "anonymous": false,
      "inputs": [
        {
          "indexed": false,
          "internalType": "address",
          "name": "_owner",
          "type": "address"
        },
        {
          "indexed": false,
          "internalType": "uint256",
          "name": "_tokenId",
          "type": "uint256"
        }
      ],
      "name": "HenMint",
      "type": "event"
    },
    {
      "anonymous": false,
      "inputs": [
        {
          "indexed": true,
          "internalType": "address",
          "name": "from",
          "type": "address"
        },
        {
          "indexed": true,
          "internalType": "address",
          "name": "to",
          "type": "address"
        },
        {
          "indexed": true,
          "internalType": "uint256",
          "name": "tokenId",
          "type": "uint256"
        }
      ],
      "name": "Transfer",
      "type": "event"
    },
    {
      "inputs": [],
      "name": "accessControl",
      "outputs": [
        {
          "internalType": "contract ICFNAccessControl",
          "name": "",
          "type": "address"
        }
      ],
      "stateMutability": "view",
      "type": "function"
    },
    {
      "inputs": [
        {
          "internalType": "address",
          "name": "to",
          "type": "address"
        },
        {
          "internalType": "uint256",
          "name": "tokenId",
          "type": "uint256"
        }
      ],
      "name": "approve",
      "outputs": [],
      "stateMutability": "nonpayable",
      "type": "function"
    },
    {
      "inputs": [
        {
          "internalType": "address",
          "name": "owner",
          "type": "address"
        }
      ],
      "name": "balanceOf",
      "outputs": [
        {
          "internalType": "uint256",
          "name": "",
          "type": "uint256"
        }
      ],
      "stateMutability": "view",
      "type": "function"
    },
    {
      "inputs": [
        {
          "internalType": "uint256",
          "name": "tokenId",
          "type": "uint256"
        }
      ],
      "name": "getApproved",
      "outputs": [
        {
          "internalType": "address",
          "name": "",
          "type": "address"
        }
      ],
      "stateMutability": "view",
      "type": "function"
    },
    {
      "inputs": [
        {
          "internalType": "uint256",
          "name": "",
          "type": "uint256"
        }
      ],
      "name": "info",
      "outputs": [
        {
          "internalType": "bool",
          "name": "isDead",
          "type": "bool"
        },
        {
          "internalType": "uint256",
          "name": "eggStaking",
          "type": "uint256"
        },
        {
          "internalType": "uint256",
          "name": "maxDay",
          "type": "uint256"
        }
      ],
      "stateMutability": "view",
      "type": "function"
    },
    {
      "inputs": [
        {
          "internalType": "address",
          "name": "owner",
          "type": "address"
        },
        {
          "internalType": "address",
          "name": "operator",
          "type": "address"
        }
      ],
      "name": "isApprovedForAll",
      "outputs": [
        {
          "internalType": "bool",
          "name": "",
          "type": "bool"
        }
      ],
      "stateMutability": "view",
      "type": "function"
    },
    {
      "inputs": [],
      "name": "maxDay",
      "outputs": [
        {
          "internalType": "uint256",
          "name": "",
          "type": "uint256"
        }
      ],
      "stateMutability": "view",
      "type": "function"
    },
    {
      "inputs": [],
      "name": "name",
      "outputs": [
        {
          "internalType": "string",
          "name": "",
          "type": "string"
        }
      ],
      "stateMutability": "view",
      "type": "function"
    },
    {
      "inputs": [
        {
          "internalType": "uint256",
          "name": "tokenId",
          "type": "uint256"
        }
      ],
      "name": "ownerOf",
      "outputs": [
        {
          "internalType": "address",
          "name": "",
          "type": "address"
        }
      ],
      "stateMutability": "view",
      "type": "function"
    },
    {
      "inputs": [
        {
          "internalType": "address",
          "name": "operator",
          "type": "address"
        },
        {
          "internalType": "bool",
          "name": "approved",
          "type": "bool"
        }
      ],
      "name": "setApprovalForAll",
      "outputs": [],
      "stateMutability": "nonpayable",
      "type": "function"
    },
    {
      "inputs": [
        {
          "internalType": "bytes4",
          "name": "interfaceId",
          "type": "bytes4"
        }
      ],
      "name": "supportsInterface",
      "outputs": [
        {
          "internalType": "bool",
          "name": "",
          "type": "bool"
        }
      ],
      "stateMutability": "view",
      "type": "function"
    },
    {
      "inputs": [],
      "name": "symbol",
      "outputs": [
        {
          "internalType": "string",
          "name": "",
          "type": "string"
        }
      ],
      "stateMutability": "view",
      "type": "function"
    },
    {
      "inputs": [
        {
          "internalType": "address",
          "name": "_ca",
          "type": "address"
        }
      ],
      "name": "setAccessControl",
      "outputs": [],
      "stateMutability": "nonpayable",
      "type": "function"
    },
    {
      "inputs": [
        {
          "internalType": "string",
          "name": "uri",
          "type": "string"
        }
      ],
      "name": "setUrl",
      "outputs": [],
      "stateMutability": "nonpayable",
      "type": "function"
    },
    {
      "inputs": [
        {
          "internalType": "uint256",
          "name": "_maxDay",
          "type": "uint256"
        }
      ],
      "name": "updateMaxDay",
      "outputs": [],
      "stateMutability": "nonpayable",
      "type": "function"
    },
    {
      "inputs": [
        {
          "internalType": "string",
          "name": "_deathUri",
          "type": "string"
        }
      ],
      "name": "updateDeathUrl",
      "outputs": [],
      "stateMutability": "nonpayable",
      "type": "function"
    },
    {
      "inputs": [
        {
          "internalType": "uint256",
          "name": "_tokenId",
          "type": "uint256"
        },
        {
          "internalType": "uint256",
          "name": "_stakingDay",
          "type": "uint256"
        }
      ],
      "name": "updateStakingHen",
      "outputs": [],
      "stateMutability": "nonpayable",
      "type": "function"
    },
    {
      "inputs": [
        {
          "internalType": "uint256",
          "name": "_tokenId",
          "type": "uint256"
        },
        {
          "internalType": "bool",
          "name": "_isDead",
          "type": "bool"
        }
      ],
      "name": "updateIsDead",
      "outputs": [],
      "stateMutability": "nonpayable",
      "type": "function"
    },
    {
      "inputs": [
        {
          "internalType": "uint256",
          "name": "_tokenId",
          "type": "uint256"
        }
      ],
      "name": "burn",
      "outputs": [],
      "stateMutability": "nonpayable",
      "type": "function"
    },
    {
      "inputs": [
        {
          "internalType": "address",
          "name": "_to",
          "type": "address"
        }
      ],
      "name": "mint",
      "outputs": [],
      "stateMutability": "nonpayable",
      "type": "function"
    },
    {
      "inputs": [
        {
          "internalType": "uint256",
          "name": "tokenId",
          "type": "uint256"
        }
      ],
      "name": "tokenURI",
      "outputs": [
        {
          "internalType": "string",
          "name": "",
          "type": "string"
        }
      ],
      "stateMutability": "view",
      "type": "function"
    },
    {
      "inputs": [
        {
          "internalType": "address",
          "name": "from",
          "type": "address"
        },
        {
          "internalType": "address",
          "name": "to",
          "type": "address"
        },
        {
          "internalType": "uint256",
          "name": "tokenId",
          "type": "uint256"
        }
      ],
      "name": "transferFrom",
      "outputs": [],
      "stateMutability": "nonpayable",
      "type": "function"
    },
    {
      "inputs": [
        {
          "internalType": "address",
          "name": "from",
          "type": "address"
        },
        {
          "internalType": "address",
          "name": "to",
          "type": "address"
        },
        {
          "internalType": "uint256",
          "name": "tokenId",
          "type": "uint256"
        }
      ],
      "name": "safeTransferFrom",
      "outputs": [],
      "stateMutability": "nonpayable",
      "type": "function"
    },
    {
      "inputs": [
        {
          "internalType": "address",
          "name": "from",
          "type": "address"
        },
        {
          "internalType": "address",
          "name": "to",
          "type": "address"
        },
        {
          "internalType": "uint256",
          "name": "tokenId",
          "type": "uint256"
        },
        {
          "internalType": "bytes",
          "name": "data",
          "type": "bytes"
        }
      ],
      "name": "safeTransferFrom",
      "outputs": [],
      "stateMutability": "nonpayable",
      "type": "function"
    }
  ],
  "bytecode": "0x60806040523480156200001157600080fd5b5060405162002508380380620025088339810160408190526200003491620001d2565b604080518082018252600781526621a327102432b760c91b6020808301918252835180850190945260048452630868c9c960e31b9084015281519192916200007f916000916200012c565b508051620000959060019060208401906200012c565b505060016006555060408051606081019091526026808252620024b760208301398051620000cc916009916020909101906200012c565b506040518060600160405280602b8152602001620024dd602b91398051620000fd91600a916020909101906200012c565b506301e13380600b55600880546001600160a01b0319166001600160a01b039290921691909117905562000241565b8280546200013a9062000204565b90600052602060002090601f0160209004810192826200015e5760008555620001a9565b82601f106200017957805160ff1916838001178555620001a9565b82800160010185558215620001a9579182015b82811115620001a95782518255916020019190600101906200018c565b50620001b7929150620001bb565b5090565b5b80821115620001b75760008155600101620001bc565b600060208284031215620001e557600080fd5b81516001600160a01b0381168114620001fd57600080fd5b9392505050565b600181811c908216806200021957607f821691505b602082108114156200023b57634e487b7160e01b600052602260045260246000fd5b50919050565b61226680620002516000396000f3fe608060405234801561001057600080fd5b50600436106101585760003560e01c80636a627842116100c3578063a22cb4651161007c578063a22cb4651461031a578063b88d4fde1461032d578063be42675914610340578063c87b56dd14610353578063e985e9c514610366578063fa9500e8146103a257600080fd5b80636a627842146102af57806370a08231146102c25780637d51036d146102e3578063909cc032146102f657806395d89b41146102ff5780639e0d91891461030757600080fd5b806323b872dd1161011557806323b872dd14610200578063252498a2146102135780632e3405991461022657806342842e0e1461027657806342966c68146102895780636352211e1461029c57600080fd5b806301ffc9a71461015d57806306fdde0314610185578063081812fc1461019a578063095ea7b3146101c557806313007d55146101da57806319129e5a146101ed575b600080fd5b61017061016b366004611eb0565b6103b5565b60405190151581526020015b60405180910390f35b61018d610407565b60405161017c919061201d565b6101ad6101a8366004611f33565b610499565b6040516001600160a01b03909116815260200161017c565b6101d86101d3366004611e69565b6104c0565b005b6008546101ad906001600160a01b031681565b6101d86101fb366004611d2c565b6105db565b6101d861020e366004611d7a565b610696565b6101d8610221366004611eea565b6107dc565b610259610234366004611f33565b600c6020526000908152604090208054600182015460029092015460ff909116919083565b60408051931515845260208401929092529082015260600161017c565b6101d8610284366004611d7a565b610887565b6101d8610297366004611f33565b6109c6565b6101ad6102aa366004611f33565b6109f9565b6101d86102bd366004611d2c565b610a59565b6102d56102d0366004611d2c565b610c4e565b60405190815260200161017c565b6101d86102f1366004611f33565b610cd4565b6102d5600b5481565b61018d610d72565b6101d8610315366004611f4c565b610d81565b6101d8610328366004611e32565b610e94565b6101d861033b366004611db6565b610ea3565b6101d861034e366004611f71565b610feb565b61018d610361366004611f33565b6111f7565b610170610374366004611d47565b6001600160a01b03918216600090815260056020908152604080832093909416825291909152205460ff1690565b6101d86103b0366004611eea565b61133e565b60006001600160e01b031982166380ac58cd60e01b14806103e657506001600160e01b03198216635b5e139f60e01b145b8061040157506301ffc9a760e01b6001600160e01b03198316145b92915050565b606060008054610416906121bb565b80601f0160208091040260200160405190810160405280929190818152602001828054610442906121bb565b801561048f5780601f106104645761010080835404028352916020019161048f565b820191906000526020600020905b81548152906001019060200180831161047257829003601f168201915b5050505050905090565b60006104a4826113e9565b506000908152600460205260409020546001600160a01b031690565b60006104cb826109f9565b9050806001600160a01b0316836001600160a01b0316141561053e5760405162461bcd60e51b815260206004820152602160248201527f4552433732313a20617070726f76616c20746f2063757272656e74206f776e656044820152603960f91b60648201526084015b60405180910390fd5b336001600160a01b038216148061055a575061055a8133610374565b6105cc5760405162461bcd60e51b815260206004820152603d60248201527f4552433732313a20617070726f76652063616c6c6572206973206e6f7420746f60448201527f6b656e206f776e6572206f7220617070726f76656420666f7220616c6c0000006064820152608401610535565b6105d68383611448565b505050565b600854604051633f1e317960e11b81523360048201819052916001600160a01b031690637e3c62f29060240160206040518083038186803b15801561061f57600080fd5b505afa158015610633573d6000803e3d6000fd5b505050506040513d601f19601f820116820180604052508101906106579190611e93565b6106735760405162461bcd60e51b815260040161053590612114565b50600880546001600160a01b0319166001600160a01b0392909216919091179055565b600854604051636aacbfd760e11b81526001600160a01b0380861660048301528592169063d5597fae9060240160206040518083038186803b1580156106db57600080fd5b505afa1580156106ef573d6000803e3d6000fd5b505050506040513d601f19601f820116820180604052508101906107139190611e93565b156107305760405162461bcd60e51b81526004016105359061214b565b600854604051636aacbfd760e11b81526001600160a01b0380861660048301528592169063d5597fae9060240160206040518083038186803b15801561077557600080fd5b505afa158015610789573d6000803e3d6000fd5b505050506040513d601f19601f820116820180604052508101906107ad9190611e93565b156107ca5760405162461bcd60e51b81526004016105359061214b565b6107d58585856114b6565b5050505050565b600854604051633f1e317960e11b81523360048201819052916001600160a01b031690637e3c62f29060240160206040518083038186803b15801561082057600080fd5b505afa158015610834573d6000803e3d6000fd5b505050506040513d601f19601f820116820180604052508101906108589190611e93565b6108745760405162461bcd60e51b815260040161053590612114565b81516105d6906009906020850190611c01565b600854604051636aacbfd760e11b81526001600160a01b0380861660048301528592169063d5597fae9060240160206040518083038186803b1580156108cc57600080fd5b505afa1580156108e0573d6000803e3d6000fd5b505050506040513d601f19601f820116820180604052508101906109049190611e93565b156109215760405162461bcd60e51b81526004016105359061214b565b600854604051636aacbfd760e11b81526001600160a01b0380861660048301528592169063d5597fae9060240160206040518083038186803b15801561096657600080fd5b505afa15801561097a573d6000803e3d6000fd5b505050506040513d601f19601f8201168201806040525081019061099e9190611e93565b156109bb5760405162461bcd60e51b81526004016105359061214b565b6107d58585856114e6565b6109d1335b82611501565b6109ed5760405162461bcd60e51b815260040161053590612030565b6109f681611580565b50565b6000818152600260205260408120546001600160a01b0316806104015760405162461bcd60e51b8152602060048201526018602482015277115490cdcc8c4e881a5b9d985b1a59081d1bdad95b88125160421b6044820152606401610535565b600854604051636aacbfd760e11b81526001600160a01b0380841660048301528392169063d5597fae9060240160206040518083038186803b158015610a9e57600080fd5b505afa158015610ab2573d6000803e3d6000fd5b505050506040513d601f19601f82011682018060405250810190610ad69190611e93565b15610af35760405162461bcd60e51b81526004016105359061214b565b600854604051633f1e317960e11b81523360048201819052916001600160a01b031690637e3c62f29060240160206040518083038186803b158015610b3757600080fd5b505afa158015610b4b573d6000803e3d6000fd5b505050506040513d601f19601f82011682018060405250810190610b6f9190611e93565b610b8b5760405162461bcd60e51b815260040161053590612114565b610b93611615565b610ba1600780546001019055565b6000610bac60075490565b6040805160608101825260008082526020808301828152600b54848601908152868452600c909252939091209151825460ff19169015151782559151600182015590516002909101559050610c01848261166f565b604080516001600160a01b0386168152602081018390527f21494aec71b96ffeab05cf1050b0216e85cac622a7f6e60ef0feae8335812ecc910160405180910390a1506105d66001600655565b60006001600160a01b038216610cb85760405162461bcd60e51b815260206004820152602960248201527f4552433732313a2061646472657373207a65726f206973206e6f7420612076616044820152683634b21037bbb732b960b91b6064820152608401610535565b506001600160a01b031660009081526003602052604090205490565b600854604051633f1e317960e11b81523360048201819052916001600160a01b031690637e3c62f29060240160206040518083038186803b158015610d1857600080fd5b505afa158015610d2c573d6000803e3d6000fd5b505050506040513d601f19601f82011682018060405250810190610d509190611e93565b610d6c5760405162461bcd60e51b815260040161053590612114565b50600b55565b606060018054610416906121bb565b600854604051633f1e317960e11b81523360048201819052916001600160a01b031690637e3c62f29060240160206040518083038186803b158015610dc557600080fd5b505afa158015610dd9573d6000803e3d6000fd5b505050506040513d601f19601f82011682018060405250810190610dfd9190611e93565b610e195760405162461bcd60e51b815260040161053590612114565b6000610e24846109f9565b6001600160a01b03161415610e735760405162461bcd60e51b81526020600482015260156024820152742a37b5b2b7103237b2b9903737ba1032bc34b9ba1760591b6044820152606401610535565b506000918252600c6020526040909120805460ff1916911515919091179055565b610e9f338383611689565b5050565b600854604051636aacbfd760e11b81526001600160a01b0380871660048301528692169063d5597fae9060240160206040518083038186803b158015610ee857600080fd5b505afa158015610efc573d6000803e3d6000fd5b505050506040513d601f19601f82011682018060405250810190610f209190611e93565b15610f3d5760405162461bcd60e51b81526004016105359061214b565b600854604051636aacbfd760e11b81526001600160a01b0380871660048301528692169063d5597fae9060240160206040518083038186803b158015610f8257600080fd5b505afa158015610f96573d6000803e3d6000fd5b505050506040513d601f19601f82011682018060405250810190610fba9190611e93565b15610fd75760405162461bcd60e51b81526004016105359061214b565b610fe386868686611758565b505050505050565b600854604051633f1e317960e11b81523360048201819052916001600160a01b031690637e3c62f29060240160206040518083038186803b15801561102f57600080fd5b505afa158015611043573d6000803e3d6000fd5b505050506040513d601f19601f820116820180604052508101906110679190611e93565b6110835760405162461bcd60e51b815260040161053590612114565b600061108e846109f9565b6001600160a01b031614156110dd5760405162461bcd60e51b81526020600482015260156024820152742a37b5b2b7103237b2b9903737ba1032bc34b9ba1760591b6044820152606401610535565b600082116111385760405162461bcd60e51b815260206004820152602260248201527f5f7374616b696e67446179206d757374206265206174206c65617374207a6572604482015261379760f11b6064820152608401610535565b6000838152600c60205260409020805460ff16156111885760405162461bcd60e51b815260206004820152600d60248201526c20b63932b0b23c903232b0b21760991b6044820152606401610535565b80600201548160010154106111d85760405162461bcd60e51b8152602060048201526016602482015275082d8e4cac2c8f240e6e8c2d6d2dcce40ccd2dcd2e6d60531b6044820152606401610535565b828160010160008282546111ec9190612195565b909155505050505050565b60606000611204836109f9565b6001600160a01b0316141561125b5760405162461bcd60e51b815260206004820181905260248201527f55524920717565727920666f72206e6f6e6578697374656e7420746f6b656e2e6044820152606401610535565b6000828152600c60209081526040918290208251606081018452815460ff1615801582526001830154938201939093526002909101549281019290925261132f57600a80546112a9906121bb565b80601f01602080910402602001604051908101604052809291908181526020018280546112d5906121bb565b80156113225780601f106112f757610100808354040283529160200191611322565b820191906000526020600020905b81548152906001019060200180831161130557829003601f168201915b5050505050915050919050565b611337611790565b9392505050565b600854604051633f1e317960e11b81523360048201819052916001600160a01b031690637e3c62f29060240160206040518083038186803b15801561138257600080fd5b505afa158015611396573d6000803e3d6000fd5b505050506040513d601f19601f820116820180604052508101906113ba9190611e93565b6113d65760405162461bcd60e51b815260040161053590612114565b81516105d690600a906020850190611c01565b6000818152600260205260409020546001600160a01b03166109f65760405162461bcd60e51b8152602060048201526018602482015277115490cdcc8c4e881a5b9d985b1a59081d1bdad95b88125160421b6044820152606401610535565b600081815260046020526040902080546001600160a01b0319166001600160a01b038416908117909155819061147d826109f9565b6001600160a01b03167f8c5be1e5ebec7d5bd14f71427d1e84f3dd0314c0f7b2291e5b200ac8c7c3b92560405160405180910390a45050565b6114bf336109cb565b6114db5760405162461bcd60e51b815260040161053590612030565b6105d683838361179f565b6105d683838360405180602001604052806000815250610ea3565b60008061150d836109f9565b9050806001600160a01b0316846001600160a01b0316148061155457506001600160a01b0380821660009081526005602090815260408083209388168352929052205460ff165b806115785750836001600160a01b031661156d84610499565b6001600160a01b0316145b949350505050565b600061158b826109f9565b9050611596826109f9565b600083815260046020908152604080832080546001600160a01b03199081169091556001600160a01b0385168085526003845282852080546000190190558785526002909352818420805490911690555192935084927fddf252ad1be2c89b69c2b068fc378daa952ba7f163c4a11628f55a4df523b3ef908390a45050565b600260065414156116685760405162461bcd60e51b815260206004820152601f60248201527f5265656e7472616e637947756172643a207265656e7472616e742063616c6c006044820152606401610535565b6002600655565b610e9f828260405180602001604052806000815250611903565b816001600160a01b0316836001600160a01b031614156116eb5760405162461bcd60e51b815260206004820152601960248201527f4552433732313a20617070726f766520746f2063616c6c6572000000000000006044820152606401610535565b6001600160a01b03838116600081815260056020908152604080832094871680845294825291829020805460ff191686151590811790915591519182527f17307eab39ab6107e8899845ad3d59bd9653f200f220920489ca2b5937696c31910160405180910390a3505050565b6117623383611501565b61177e5760405162461bcd60e51b815260040161053590612030565b61178a84848484611936565b50505050565b606060098054610416906121bb565b826001600160a01b03166117b2826109f9565b6001600160a01b0316146117d85760405162461bcd60e51b8152600401610535906120cf565b6001600160a01b03821661183a5760405162461bcd60e51b8152602060048201526024808201527f4552433732313a207472616e7366657220746f20746865207a65726f206164646044820152637265737360e01b6064820152608401610535565b826001600160a01b031661184d826109f9565b6001600160a01b0316146118735760405162461bcd60e51b8152600401610535906120cf565b600081815260046020908152604080832080546001600160a01b03199081169091556001600160a01b0387811680865260038552838620805460001901905590871680865283862080546001019055868652600290945282852080549092168417909155905184937fddf252ad1be2c89b69c2b068fc378daa952ba7f163c4a11628f55a4df523b3ef91a4505050565b61190d8383611969565b61191a6000848484611af4565b6105d65760405162461bcd60e51b81526004016105359061207d565b61194184848461179f565b61194d84848484611af4565b61178a5760405162461bcd60e51b81526004016105359061207d565b6001600160a01b0382166119bf5760405162461bcd60e51b815260206004820181905260248201527f4552433732313a206d696e7420746f20746865207a65726f20616464726573736044820152606401610535565b6000818152600260205260409020546001600160a01b031615611a245760405162461bcd60e51b815260206004820152601c60248201527f4552433732313a20746f6b656e20616c7265616479206d696e746564000000006044820152606401610535565b6000818152600260205260409020546001600160a01b031615611a895760405162461bcd60e51b815260206004820152601c60248201527f4552433732313a20746f6b656e20616c7265616479206d696e746564000000006044820152606401610535565b6001600160a01b038216600081815260036020908152604080832080546001019055848352600290915280822080546001600160a01b0319168417905551839291907fddf252ad1be2c89b69c2b068fc378daa952ba7f163c4a11628f55a4df523b3ef908290a45050565b60006001600160a01b0384163b15611bf657604051630a85bd0160e11b81526001600160a01b0385169063150b7a0290611b38903390899088908890600401611fe0565b602060405180830381600087803b158015611b5257600080fd5b505af1925050508015611b82575060408051601f3d908101601f19168201909252611b7f91810190611ecd565b60015b611bdc573d808015611bb0576040519150601f19603f3d011682016040523d82523d6000602084013e611bb5565b606091505b508051611bd45760405162461bcd60e51b81526004016105359061207d565b805181602001fd5b6001600160e01b031916630a85bd0160e11b149050611578565b506001949350505050565b828054611c0d906121bb565b90600052602060002090601f016020900481019282611c2f5760008555611c75565b82601f10611c4857805160ff1916838001178555611c75565b82800160010185558215611c75579182015b82811115611c75578251825591602001919060010190611c5a565b50611c81929150611c85565b5090565b5b80821115611c815760008155600101611c86565b600067ffffffffffffffff80841115611cb557611cb56121f6565b604051601f8501601f19908116603f01168101908282118183101715611cdd57611cdd6121f6565b81604052809350858152868686011115611cf657600080fd5b858560208301376000602087830101525050509392505050565b80356001600160a01b0381168114611d2757600080fd5b919050565b600060208284031215611d3e57600080fd5b61133782611d10565b60008060408385031215611d5a57600080fd5b611d6383611d10565b9150611d7160208401611d10565b90509250929050565b600080600060608486031215611d8f57600080fd5b611d9884611d10565b9250611da660208501611d10565b9150604084013590509250925092565b60008060008060808587031215611dcc57600080fd5b611dd585611d10565b9350611de360208601611d10565b925060408501359150606085013567ffffffffffffffff811115611e0657600080fd5b8501601f81018713611e1757600080fd5b611e2687823560208401611c9a565b91505092959194509250565b60008060408385031215611e4557600080fd5b611e4e83611d10565b91506020830135611e5e8161220c565b809150509250929050565b60008060408385031215611e7c57600080fd5b611e8583611d10565b946020939093013593505050565b600060208284031215611ea557600080fd5b81516113378161220c565b600060208284031215611ec257600080fd5b81356113378161221a565b600060208284031215611edf57600080fd5b81516113378161221a565b600060208284031215611efc57600080fd5b813567ffffffffffffffff811115611f1357600080fd5b8201601f81018413611f2457600080fd5b61157884823560208401611c9a565b600060208284031215611f4557600080fd5b5035919050565b60008060408385031215611f5f57600080fd5b823591506020830135611e5e8161220c565b60008060408385031215611f8457600080fd5b50508035926020909101359150565b6000815180845260005b81811015611fb957602081850181015186830182015201611f9d565b81811115611fcb576000602083870101525b50601f01601f19169290920160200192915050565b6001600160a01b038581168252841660208201526040810183905260806060820181905260009061201390830184611f93565b9695505050505050565b6020815260006113376020830184611f93565b6020808252602d908201527f4552433732313a2063616c6c6572206973206e6f7420746f6b656e206f776e6560408201526c1c881bdc88185c1c1c9bdd9959609a1b606082015260800190565b60208082526032908201527f4552433732313a207472616e7366657220746f206e6f6e20455243373231526560408201527131b2b4bb32b91034b6b83632b6b2b73a32b960711b606082015260800190565b60208082526025908201527f4552433732313a207472616e736665722066726f6d20696e636f72726563742060408201526437bbb732b960d91b606082015260800190565b60208082526018908201527f556e7665726966696564206f776e657220616464726573730000000000000000604082015260600190565b6020808252602a908201527f5472616e73616374696f6e2064656e6965643a206164647265737320697320626040820152691b1858dadb1a5cdd195960b21b606082015260800190565b600082198211156121b657634e487b7160e01b600052601160045260246000fd5b500190565b600181811c908216806121cf57607f821691505b602082108114156121f057634e487b7160e01b600052602260045260246000fd5b50919050565b634e487b7160e01b600052604160045260246000fd5b80151581146109f657600080fd5b6001600160e01b0319811681146109f657600080fdfea2646970667358221220c1467da86109a9c8343ef1217f4715122da727f6d644fcac8f79deae4e0c3ae364736f6c6343000807003368747470733a2f2f696d672e63662d6e2e696f2f6a736f6e732f48656e2f68656e2e6a736f6e68747470733a2f2f696d672e63662d6e2e696f2f6a736f6e732f48656e2f646561746848656e2e6a736f6e",
  "immutableReferences": {},
  "source": "// SPDX-License-Identifier: MIT\npragma solidity ^0.8.1;\n\nimport \"@openzeppelin/contracts/token/ERC721/ERC721.sol\";\nimport \"@openzeppelin/contracts/utils/Counters.sol\";\nimport {ReentrancyGuard} from \"@openzeppelin/contracts/security/ReentrancyGuard.sol\";\n\nimport \"../interfaces/ICFNAccessControl.sol\";\n\ncontract Hen is ERC721, ReentrancyGuard {\n    using Counters for Counters.Counter;\n    using Strings for uint256;\n\n    Counters.Counter private _tokenIdCounter;\n\n    ICFNAccessControl public accessControl;\n\n    string private url;\n    string private deathUrl;\n    uint256 public maxDay;\n\n    mapping(uint256 => HenStaking) public info;\n    struct HenStaking {\n        bool isDead; // true -> die false -> live\n        uint256 eggStaking; // start with 0 day\n        uint256 maxDay; // maxDay start with 365 day\n    }\n\n    event HenMint(address _owner, uint256 _tokenId);\n\n    constructor(address _accessControl) ERC721(\"CFN Hen\", \"CFNH\") {\n        url = \"https://img.cf-n.io/jsons/Hen/hen.json\";\n        deathUrl = \"https://img.cf-n.io/jsons/Hen/deathHen.json\";\n        maxDay = 365 * 24 * 60 * 60; // 365 day\n        accessControl = ICFNAccessControl(_accessControl);\n    }\n\n    modifier isBlackListWallet(address _address) {\n        require(\n            !accessControl.blackListWallet(_address),\n            \"Transaction denied: address is blacklisted\"\n        );\n        _;\n    }\n\n    modifier isWhiteListControl(address _ca) {\n        require(\n            accessControl.whiteListControlAddress(_ca),\n            \"Unverified owner address\"\n        );\n        _;\n    }\n\n    function setAccessControl(\n        address _ca\n    ) public isWhiteListControl(msg.sender) {\n        accessControl = ICFNAccessControl(_ca);\n    }\n\n    function _baseURI() internal view override returns (string memory) {\n        return url;\n    }\n\n    function setUrl(string memory uri) public isWhiteListControl(msg.sender) {\n        url = uri;\n    }\n\n    function updateMaxDay(\n        uint256 _maxDay\n    ) public isWhiteListControl(msg.sender) {\n        maxDay = _maxDay;\n    }\n\n    function updateDeathUrl(\n        string memory _deathUri\n    ) public isWhiteListControl(msg.sender) {\n        deathUrl = _deathUri;\n    }\n\n    function updateStakingHen(\n        uint256 _tokenId,\n        uint256 _stakingDay\n    ) public isWhiteListControl(msg.sender) {\n        require(ownerOf(_tokenId) != address(0), \"Token does not exist.\");\n        require(_stakingDay > 0, \"_stakingDay must be at least zero.\");\n\n        HenStaking storage hen = info[_tokenId];\n        require(!hen.isDead, \"Already dead.\");\n        require(hen.eggStaking < hen.maxDay, \"Already staking finish\");\n\n        hen.eggStaking += _stakingDay;\n    }\n\n    function updateIsDead(\n        uint256 _tokenId,\n        bool _isDead\n    ) public isWhiteListControl(msg.sender) {\n        require(ownerOf(_tokenId) != address(0), \"Token does not exist.\");\n\n        HenStaking storage hen = info[_tokenId];\n        hen.isDead = _isDead;\n    }\n\n    function burn(uint256 _tokenId) public {\n        require(\n            _isApprovedOrOwner(_msgSender(), _tokenId),\n            \"ERC721: caller is not token owner or approved\"\n        );\n\n        _burn(_tokenId);\n    }\n\n    function mint(\n        address _to\n    )\n        public\n        isBlackListWallet(_to)\n        isWhiteListControl(msg.sender)\n        nonReentrant\n    {\n        _tokenIdCounter.increment();\n        uint256 tokenId = _tokenIdCounter.current();\n\n        info[tokenId] = HenStaking(false, 0, maxDay);\n\n        _safeMint(_to, tokenId);\n\n        emit HenMint(_to, tokenId);\n    }\n\n    function tokenURI(\n        uint256 tokenId\n    ) public view virtual override returns (string memory) {\n        require(\n            ownerOf(tokenId) != address(0),\n            \"URI query for nonexistent token.\"\n        );\n\n        HenStaking memory hen = info[tokenId];\n\n        if (hen.isDead) {\n            return deathUrl;\n        }\n\n        return _baseURI();\n    }\n\n    function transferFrom(\n        address from,\n        address to,\n        uint256 tokenId\n    ) public override isBlackListWallet(from) isBlackListWallet(to) {\n        super.transferFrom(from, to, tokenId);\n    }\n\n    function safeTransferFrom(\n        address from,\n        address to,\n        uint256 tokenId\n    ) public override isBlackListWallet(from) isBlackListWallet(to) {\n        super.safeTransferFrom(from, to, tokenId);\n    }\n\n    function safeTransferFrom(\n        address from,\n        address to,\n        uint256 tokenId,\n        bytes memory data\n    ) public override isBlackListWallet(from) isBlackListWallet(to) {\n        super.safeTransferFrom(from, to, tokenId, data);\n    }\n}\n",
  "sourcePath": "/Users/minki/Desktop/Codberg/cock-fight-network-contrats/cotract-test/contracts/cock-fight/erc721/Hen.sol",
  "compiler": {
    "name": "solc",
    "version": "0.8.7+commit.e28d00a7.Emscripten.clang"
  },
  "schemaVersion": "3.4.16",
  "updatedAt": "2024-09-09T05:33:58.300Z",
  "devdoc": {
    "kind": "dev",
    "methods": {
      "approve(address,uint256)": {
        "details": "See {IERC721-approve}."
      },
      "balanceOf(address)": {
        "details": "See {IERC721-balanceOf}."
      },
      "getApproved(uint256)": {
        "details": "See {IERC721-getApproved}."
      },
      "isApprovedForAll(address,address)": {
        "details": "See {IERC721-isApprovedForAll}."
      },
      "name()": {
        "details": "See {IERC721Metadata-name}."
      },
      "ownerOf(uint256)": {
        "details": "See {IERC721-ownerOf}."
      },
      "safeTransferFrom(address,address,uint256)": {
        "details": "See {IERC721-safeTransferFrom}."
      },
      "safeTransferFrom(address,address,uint256,bytes)": {
        "details": "See {IERC721-safeTransferFrom}."
      },
      "setApprovalForAll(address,bool)": {
        "details": "See {IERC721-setApprovalForAll}."
      },
      "supportsInterface(bytes4)": {
        "details": "See {IERC165-supportsInterface}."
      },
      "symbol()": {
        "details": "See {IERC721Metadata-symbol}."
      },
      "tokenURI(uint256)": {
        "details": "See {IERC721Metadata-tokenURI}."
      },
      "transferFrom(address,address,uint256)": {
        "details": "See {IERC721-transferFrom}."
      }
    },
    "version": 1
  },
  "userdoc": {
    "kind": "user",
    "methods": {},
    "version": 1
  }
}