{
  "contractName": "OwnerWhiteList",
  "abi": [
    {
      "inputs": [],
      "stateMutability": "nonpayable",
      "type": "constructor"
    },
    {
      "anonymous": false,
      "inputs": [
        {
          "indexed": true,
          "internalType": "address",
          "name": "previousOwner",
          "type": "address"
        },
        {
          "indexed": true,
          "internalType": "address",
          "name": "newOwner",
          "type": "address"
        }
      ],
      "name": "OwnershipTransferred",
      "type": "event"
    },
    {
      "anonymous": false,
      "inputs": [
        {
          "indexed": false,
          "internalType": "address",
          "name": "addr",
          "type": "address"
        }
      ],
      "name": "WhitelistedAddressAdded",
      "type": "event"
    },
    {
      "anonymous": false,
      "inputs": [
        {
          "indexed": false,
          "internalType": "address",
          "name": "addr",
          "type": "address"
        }
      ],
      "name": "WhitelistedAddressRemoved",
      "type": "event"
    },
    {
      "inputs": [],
      "name": "owner",
      "outputs": [
        {
          "internalType": "address",
          "name": "",
          "type": "address"
        }
      ],
      "stateMutability": "view",
      "type": "function"
    },
    {
      "inputs": [],
      "name": "renounceOwnership",
      "outputs": [],
      "stateMutability": "nonpayable",
      "type": "function"
    },
    {
      "inputs": [
        {
          "internalType": "address",
          "name": "newOwner",
          "type": "address"
        }
      ],
      "name": "transferOwnership",
      "outputs": [],
      "stateMutability": "nonpayable",
      "type": "function"
    },
    {
      "inputs": [
        {
          "internalType": "address",
          "name": "",
          "type": "address"
        }
      ],
      "name": "whitelist",
      "outputs": [
        {
          "internalType": "bool",
          "name": "",
          "type": "bool"
        }
      ],
      "stateMutability": "view",
      "type": "function"
    },
    {
      "inputs": [
        {
          "internalType": "address",
          "name": "addr",
          "type": "address"
        }
      ],
      "name": "addAddressToWhitelist",
      "outputs": [
        {
          "internalType": "bool",
          "name": "success",
          "type": "bool"
        }
      ],
      "stateMutability": "nonpayable",
      "type": "function"
    },
    {
      "inputs": [
        {
          "internalType": "address[]",
          "name": "addrs",
          "type": "address[]"
        }
      ],
      "name": "addAddressesToWhitelist",
      "outputs": [
        {
          "internalType": "bool",
          "name": "success",
          "type": "bool"
        }
      ],
      "stateMutability": "nonpayable",
      "type": "function"
    },
    {
      "inputs": [
        {
          "internalType": "address",
          "name": "addr",
          "type": "address"
        }
      ],
      "name": "removeAddressFromWhitelist",
      "outputs": [
        {
          "internalType": "bool",
          "name": "success",
          "type": "bool"
        }
      ],
      "stateMutability": "nonpayable",
      "type": "function"
    },
    {
      "inputs": [
        {
          "internalType": "address[]",
          "name": "addrs",
          "type": "address[]"
        }
      ],
      "name": "removeAddressesFromWhitelist",
      "outputs": [
        {
          "internalType": "bool",
          "name": "success",
          "type": "bool"
        }
      ],
      "stateMutability": "nonpayable",
      "type": "function"
    }
  ],
  "bytecode": "0x608060405234801561001057600080fd5b5061001a33610029565b61002333610079565b50610164565b600080546001600160a01b038381166001600160a01b0319831681178455604051919092169283917f8be0079c531659141344cd1fd0a4f28419497f9722a3daafe3b4186f6b6457e09190a35050565b6000610083610104565b6001600160a01b03821660009081526001602052604090205460ff166100ff576001600160a01b038216600081815260016020818152604092839020805460ff191690921790915590519182527fd1bba68c128cc3f427e5831b3c6f99f480b6efa6b9e80c757768f6124158cc3f910160405180910390a15060015b919050565b6000546001600160a01b031633146101625760405162461bcd60e51b815260206004820181905260248201527f4f776e61626c653a2063616c6c6572206973206e6f7420746865206f776e6572604482015260640160405180910390fd5b565b6105cb806101736000396000f3fe608060405234801561001057600080fd5b50600436106100885760003560e01c80638da5cb5b1161005b5780638da5cb5b146100e55780639b19251a14610100578063e2ec6ec314610123578063f2fde38b1461013657600080fd5b806324953eaa1461008d578063286dd3f5146100b5578063715018a6146100c85780637b9417c8146100d2575b600080fd5b6100a061009b366004610474565b610149565b60405190151581526020015b60405180910390f35b6100a06100c3366004610452565b6101a3565b6100d061022c565b005b6100a06100e0366004610452565b610240565b6000546040516001600160a01b0390911681526020016100ac565b6100a061010e366004610452565b60016020526000908152604090205460ff1681565b6100a0610131366004610474565b6102bf565b6100d0610144366004610452565b610313565b6000610153610391565b60005b825181101561019d5761018183828151811061017457610174610569565b60200260200101516101a3565b1561018b57600191505b8061019581610540565b915050610156565b50919050565b60006101ad610391565b6001600160a01b03821660009081526001602052604090205460ff1615610227576001600160a01b038216600081815260016020908152604091829020805460ff1916905590519182527ff1abf01a1043b7c244d128e8595cf0c1d10743b022b03a02dffd8ca3bf729f5a91015b60405180910390a15060015b919050565b610234610391565b61023e60006103eb565b565b600061024a610391565b6001600160a01b03821660009081526001602052604090205460ff16610227576001600160a01b038216600081815260016020818152604092839020805460ff191690921790915590519182527fd1bba68c128cc3f427e5831b3c6f99f480b6efa6b9e80c757768f6124158cc3f910161021b565b60006102c9610391565b60005b825181101561019d576102f78382815181106102ea576102ea610569565b6020026020010151610240565b1561030157600191505b8061030b81610540565b9150506102cc565b61031b610391565b6001600160a01b0381166103855760405162461bcd60e51b815260206004820152602660248201527f4f776e61626c653a206e6577206f776e657220697320746865207a65726f206160448201526564647265737360d01b60648201526084015b60405180910390fd5b61038e816103eb565b50565b6000546001600160a01b0316331461023e5760405162461bcd60e51b815260206004820181905260248201527f4f776e61626c653a2063616c6c6572206973206e6f7420746865206f776e6572604482015260640161037c565b600080546001600160a01b038381166001600160a01b0319831681178455604051919092169283917f8be0079c531659141344cd1fd0a4f28419497f9722a3daafe3b4186f6b6457e09190a35050565b80356001600160a01b038116811461022757600080fd5b60006020828403121561046457600080fd5b61046d8261043b565b9392505050565b6000602080838503121561048757600080fd5b823567ffffffffffffffff8082111561049f57600080fd5b818501915085601f8301126104b357600080fd5b8135818111156104c5576104c561057f565b8060051b604051601f19603f830116810181811085821117156104ea576104ea61057f565b604052828152858101935084860182860187018a101561050957600080fd5b600095505b838610156105335761051f8161043b565b85526001959095019493860193860161050e565b5098975050505050505050565b600060001982141561056257634e487b7160e01b600052601160045260246000fd5b5060010190565b634e487b7160e01b600052603260045260246000fd5b634e487b7160e01b600052604160045260246000fdfea2646970667358221220a5cff3d9acd168008d4558c6d5269fbae6716f5cb816d84159be34a783e1c4b064736f6c63430008070033",
  "immutableReferences": {},
  "source": "// SPDX-License-Identifier: MIT\npragma solidity ^0.8.1;\n\nimport \"@openzeppelin/contracts/access/Ownable.sol\";\n\nimport \"./interfaces/IOwnerWhiteList.sol\";\n\ncontract OwnerWhiteList is Ownable, IOwnableWhiteList {\n    mapping(address => bool) public whitelist;\n\n    event WhitelistedAddressAdded(address addr);\n    event WhitelistedAddressRemoved(address addr);\n\n    constructor() {\n        addAddressToWhitelist(msg.sender);\n    }\n\n    modifier onlyWhitelisted() {\n        require(whitelist[msg.sender]);\n        _;\n    }\n\n    function addAddressToWhitelist(\n        address addr\n    ) public override onlyOwner returns (bool success) {\n        if (!whitelist[addr]) {\n            whitelist[addr] = true;\n            emit WhitelistedAddressAdded(addr);\n            success = true;\n        }\n    }\n\n    function addAddressesToWhitelist(\n        address[] memory addrs\n    ) public override onlyOwner returns (bool success) {\n        for (uint256 i = 0; i < addrs.length; i++) {\n            if (addAddressToWhitelist(addrs[i])) {\n                success = true;\n            }\n        }\n    }\n\n    function removeAddressFromWhitelist(\n        address addr\n    ) public override onlyOwner returns (bool success) {\n        if (whitelist[addr]) {\n            whitelist[addr] = false;\n            emit WhitelistedAddressRemoved(addr);\n            success = true;\n        }\n    }\n\n    function removeAddressesFromWhitelist(\n        address[] memory addrs\n    ) public override onlyOwner returns (bool success) {\n        for (uint256 i = 0; i < addrs.length; i++) {\n            if (removeAddressFromWhitelist(addrs[i])) {\n                success = true;\n            }\n        }\n    }\n}\n",
  "sourcePath": "/Users/minki/Desktop/Codberg/cock-fight-network-contrats/cotract-test/contracts/egg/OwnerWhiteList.sol",
  "compiler": {
    "name": "solc",
    "version": "0.8.7+commit.e28d00a7.Emscripten.clang"
  },
  "schemaVersion": "3.4.16",
  "updatedAt": "2024-09-09T05:33:58.310Z",
  "devdoc": {
    "kind": "dev",
    "methods": {
      "owner()": {
        "details": "Returns the address of the current owner."
      },
      "renounceOwnership()": {
        "details": "Leaves the contract without owner. It will not be possible to call `onlyOwner` functions. Can only be called by the current owner. NOTE: Renouncing ownership will leave the contract without an owner, thereby disabling any functionality that is only available to the owner."
      },
      "transferOwnership(address)": {
        "details": "Transfers ownership of the contract to a new account (`newOwner`). Can only be called by the current owner."
      }
    },
    "version": 1
  },
  "userdoc": {
    "kind": "user",
    "methods": {},
    "version": 1
  }
}