{
  "contractName": "ProtocolEggExecutionManger",
  "abi": [
    {
      "inputs": [
        {
          "internalType": "address",
          "name": "_receiveWallet",
          "type": "address"
        },
        {
          "internalType": "address",
          "name": "_eggContract",
          "type": "address"
        },
        {
          "internalType": "address",
          "name": "_tokenContract",
          "type": "address"
        }
      ],
      "stateMutability": "nonpayable",
      "type": "constructor"
    },
    {
      "anonymous": false,
      "inputs": [
        {
          "indexed": true,
          "internalType": "address",
          "name": "buyer",
          "type": "address"
        },
        {
          "indexed": false,
          "internalType": "uint256",
          "name": "price",
          "type": "uint256"
        },
        {
          "indexed": false,
          "internalType": "uint256",
          "name": "counts",
          "type": "uint256"
        }
      ],
      "name": "BuyEgg",
      "type": "event"
    },
    {
      "anonymous": false,
      "inputs": [
        {
          "indexed": true,
          "internalType": "address",
          "name": "buyer",
          "type": "address"
        },
        {
          "indexed": false,
          "internalType": "uint256",
          "name": "price",
          "type": "uint256"
        },
        {
          "indexed": true,
          "internalType": "address",
          "name": "partner",
          "type": "address"
        },
        {
          "indexed": false,
          "internalType": "uint256",
          "name": "counts",
          "type": "uint256"
        }
      ],
      "name": "BuyEggWithPartner",
      "type": "event"
    },
    {
      "anonymous": false,
      "inputs": [
        {
          "indexed": true,
          "internalType": "address",
          "name": "eggContract",
          "type": "address"
        }
      ],
      "name": "NewEggContract",
      "type": "event"
    },
    {
      "anonymous": false,
      "inputs": [
        {
          "indexed": false,
          "internalType": "uint256",
          "name": "price",
          "type": "uint256"
        }
      ],
      "name": "NewPrice",
      "type": "event"
    },
    {
      "anonymous": false,
      "inputs": [
        {
          "indexed": true,
          "internalType": "address",
          "name": "receiveAddress",
          "type": "address"
        }
      ],
      "name": "NewReceiveWallet",
      "type": "event"
    },
    {
      "anonymous": false,
      "inputs": [
        {
          "indexed": true,
          "internalType": "address",
          "name": "tokenContract",
          "type": "address"
        }
      ],
      "name": "NewTokenContract",
      "type": "event"
    },
    {
      "anonymous": false,
      "inputs": [
        {
          "indexed": true,
          "internalType": "address",
          "name": "previousOwner",
          "type": "address"
        },
        {
          "indexed": true,
          "internalType": "address",
          "name": "newOwner",
          "type": "address"
        }
      ],
      "name": "OwnershipTransferred",
      "type": "event"
    },
    {
      "anonymous": false,
      "inputs": [
        {
          "indexed": true,
          "internalType": "address",
          "name": "walletAddress",
          "type": "address"
        },
        {
          "indexed": false,
          "internalType": "uint256",
          "name": "withdrawAmount",
          "type": "uint256"
        }
      ],
      "name": "Withdraw",
      "type": "event"
    },
    {
      "inputs": [],
      "name": "eggManager",
      "outputs": [
        {
          "internalType": "contract IEgg",
          "name": "",
          "type": "address"
        }
      ],
      "stateMutability": "view",
      "type": "function"
    },
    {
      "inputs": [],
      "name": "eggPrice",
      "outputs": [
        {
          "internalType": "uint256",
          "name": "",
          "type": "uint256"
        }
      ],
      "stateMutability": "view",
      "type": "function"
    },
    {
      "inputs": [],
      "name": "owner",
      "outputs": [
        {
          "internalType": "address",
          "name": "",
          "type": "address"
        }
      ],
      "stateMutability": "view",
      "type": "function"
    },
    {
      "inputs": [],
      "name": "renounceOwnership",
      "outputs": [],
      "stateMutability": "nonpayable",
      "type": "function"
    },
    {
      "inputs": [],
      "name": "tokenManager",
      "outputs": [
        {
          "internalType": "contract IERC20",
          "name": "",
          "type": "address"
        }
      ],
      "stateMutability": "view",
      "type": "function"
    },
    {
      "inputs": [
        {
          "internalType": "address",
          "name": "newOwner",
          "type": "address"
        }
      ],
      "name": "transferOwnership",
      "outputs": [],
      "stateMutability": "nonpayable",
      "type": "function"
    },
    {
      "inputs": [],
      "name": "getEggPrice",
      "outputs": [
        {
          "internalType": "uint256",
          "name": "",
          "type": "uint256"
        }
      ],
      "stateMutability": "view",
      "type": "function"
    },
    {
      "inputs": [
        {
          "internalType": "address",
          "name": "_eggContract",
          "type": "address"
        }
      ],
      "name": "updateEggContract",
      "outputs": [],
      "stateMutability": "nonpayable",
      "type": "function"
    },
    {
      "inputs": [
        {
          "internalType": "address",
          "name": "_tokenContract",
          "type": "address"
        }
      ],
      "name": "updateTokenContract",
      "outputs": [],
      "stateMutability": "nonpayable",
      "type": "function"
    },
    {
      "inputs": [
        {
          "internalType": "address",
          "name": "_receiveWallet",
          "type": "address"
        }
      ],
      "name": "updateReceiveWallet",
      "outputs": [],
      "stateMutability": "nonpayable",
      "type": "function"
    },
    {
      "inputs": [
        {
          "internalType": "uint256",
          "name": "_price",
          "type": "uint256"
        }
      ],
      "name": "updateEggPrice",
      "outputs": [],
      "stateMutability": "nonpayable",
      "type": "function"
    },
    {
      "inputs": [],
      "name": "withdrawAll",
      "outputs": [],
      "stateMutability": "nonpayable",
      "type": "function"
    },
    {
      "inputs": [
        {
          "internalType": "uint256",
          "name": "_amount",
          "type": "uint256"
        }
      ],
      "name": "withdraw",
      "outputs": [],
      "stateMutability": "nonpayable",
      "type": "function"
    },
    {
      "inputs": [],
      "name": "singleMint",
      "outputs": [],
      "stateMutability": "nonpayable",
      "type": "function"
    },
    {
      "inputs": [
        {
          "internalType": "address",
          "name": "_partner",
          "type": "address"
        }
      ],
      "name": "singleMintWithPartner",
      "outputs": [],
      "stateMutability": "nonpayable",
      "type": "function"
    },
    {
      "inputs": [
        {
          "internalType": "uint256",
          "name": "numberOfTokens",
          "type": "uint256"
        }
      ],
      "name": "batchMint",
      "outputs": [],
      "stateMutability": "nonpayable",
      "type": "function"
    },
    {
      "inputs": [
        {
          "internalType": "address",
          "name": "_partner",
          "type": "address"
        },
        {
          "internalType": "uint256",
          "name": "numberOfTokens",
          "type": "uint256"
        }
      ],
      "name": "batchMintWithPartner",
      "outputs": [],
      "stateMutability": "nonpayable",
      "type": "function"
    }
  ],
  "bytecode": "0x60806040526801158e460913d000006005553480156200001e57600080fd5b506040516200151b3803806200151b8339810160408190526200004191620001dc565b600160005562000051336200016d565b6001600160a01b0383166200009c5760405162461bcd60e51b81526020600482015260176024820152600080516020620014fb83398151915260448201526064015b60405180910390fd5b6001600160a01b038216620000e35760405162461bcd60e51b81526020600482015260176024820152600080516020620014fb833981519152604482015260640162000093565b6001600160a01b0381166200012a5760405162461bcd60e51b81526020600482015260176024820152600080516020620014fb833981519152604482015260640162000093565b600280546001600160a01b039485166001600160a01b03199182161790915560038054938516938216939093179092556004805491909316911617905562000226565b600180546001600160a01b038381166001600160a01b0319831681179093556040519116919082907f8be0079c531659141344cd1fd0a4f28419497f9722a3daafe3b4186f6b6457e090600090a35050565b80516001600160a01b0381168114620001d757600080fd5b919050565b600080600060608486031215620001f257600080fd5b620001fd84620001bf565b92506200020d60208501620001bf565b91506200021d60408501620001bf565b90509250925092565b6112c580620002366000396000f3fe608060405234801561001057600080fd5b506004361061010b5760003560e01c80638467be0d116100a25780639755556a116100715780639755556a146101e9578063989ced26146101fc578063ab51784f1461020f578063d8b203d514610222578063f2fde38b1461023557600080fd5b80638467be0d146101b5578063853828b6146101c85780638a4e6f2a146101d05780638da5cb5b146101d857600080fd5b8063514b1570116100de578063514b15701461017f57806353d18341146101875780636a252ed31461019a578063715018a6146101ad57600080fd5b806327af9285146101105780632a709b14146101255780632e1a7d4d14610155578063305e355214610168575b600080fd5b61012361011e366004611132565b610248565b005b600454610138906001600160a01b031681565b6040516001600160a01b0390911681526020015b60405180910390f35b61012361016336600461117e565b6103e6565b61017160055481565b60405190815260200161014c565b600554610171565b610123610195366004611110565b6105b6565b600354610138906001600160a01b031681565b6101236106e6565b6101236101c336600461117e565b6106fa565b61012361081b565b6101236109ea565b6001546001600160a01b0316610138565b6101236101f736600461117e565b610ab6565b61012361020a366004611110565b610b49565b61012361021d366004611110565b610bc1565b610123610230366004611110565b610c39565b610123610243366004611110565b610cb1565b610250610d27565b6001600160a01b0382166102ab5760405162461bcd60e51b815260206004820152601f60248201527f506172746e657220616464726573732063616e6e6f74206265206e756c6c2e0060448201526064015b60405180910390fd5b600081116102f35760405162461bcd60e51b815260206004820152601560248201527426bab9ba1031329030ba103632b0b9ba1037b7329760591b60448201526064016102a2565b61031a3330836005546103069190611236565b6004546001600160a01b0316929190610d81565b6003546040516343508b0560e01b8152336004820152602481018390526001600160a01b03909116906343508b0590604401600060405180830381600087803b15801561036657600080fd5b505af115801561037a573d6000803e3d6000fd5b50505050816001600160a01b0316336001600160a01b03167f3fd1562582fdbcf1b8a2aa108fce72779f36b8e2aeb83569d34903aa71a79d54836005546103c19190611236565b60408051918252602082018690520160405180910390a36103e26001600055565b5050565b6103ee610de1565b6002546001600160a01b03166104165760405162461bcd60e51b81526004016102a2906111ff565b600480546040516370a0823160e01b815230928101929092526000916001600160a01b03909116906370a082319060240160206040518083038186803b15801561045f57600080fd5b505afa158015610473573d6000803e3d6000fd5b505050506040513d601f19601f820116820180604052508101906104979190611197565b9050818110156104e55760405162461bcd60e51b81526020600482015260196024820152782737ba1032b737bab3b4103a37b5b2b7103130b630b731b29760391b60448201526064016102a2565b6004805460025460405163a9059cbb60e01b81526001600160a01b039182169381019390935260248301859052169063a9059cbb90604401602060405180830381600087803b15801561053757600080fd5b505af115801561054b573d6000803e3d6000fd5b505050506040513d601f19601f8201168201806040525081019061056f919061115c565b506002546040518381526001600160a01b03909116907f884edad9ce6fa2440d8a54cc123490eb96d2768479d49ff9c7366125a94243649060200160405180910390a25050565b6105be610d27565b6001600160a01b0381166106145760405162461bcd60e51b815260206004820152601f60248201527f506172746e657220616464726573732063616e6e6f74206265206e756c6c2e0060448201526064016102a2565b600554600454610633916001600160a01b039091169033903090610d81565b6003546040516335313c2160e11b81523360048201526001600160a01b0390911690636a62784290602401600060405180830381600087803b15801561067857600080fd5b505af115801561068c573d6000803e3d6000fd5b505060055460408051918252600160208301526001600160a01b03851693503392507f3fd1562582fdbcf1b8a2aa108fce72779f36b8e2aeb83569d34903aa71a79d54910160405180910390a36106e36001600055565b50565b6106ee610de1565b6106f86000610e3b565b565b610702610d27565b6000811161074a5760405162461bcd60e51b815260206004820152601560248201527426bab9ba1031329030ba103632b0b9ba1037b7329760591b60448201526064016102a2565b61075d3330836005546103069190611236565b6003546040516343508b0560e01b8152336004820152602481018390526001600160a01b03909116906343508b0590604401600060405180830381600087803b1580156107a957600080fd5b505af11580156107bd573d6000803e3d6000fd5b50505050336001600160a01b03167fa916333ba6ea619e9129b1910d3ed016e106f7ad7d60a611b9daada8d4842e06826005546107fa9190611236565b60408051918252602082018590520160405180910390a26106e36001600055565b610823610de1565b6002546001600160a01b031661084b5760405162461bcd60e51b81526004016102a2906111ff565b600480546040516370a0823160e01b815230928101929092526000916001600160a01b03909116906370a082319060240160206040518083038186803b15801561089457600080fd5b505afa1580156108a8573d6000803e3d6000fd5b505050506040513d601f19601f820116820180604052508101906108cc9190611197565b90506000811161091a5760405162461bcd60e51b81526020600482015260196024820152782737ba1032b737bab3b4103a37b5b2b7103130b630b731b29760391b60448201526064016102a2565b6004805460025460405163a9059cbb60e01b81526001600160a01b039182169381019390935260248301849052169063a9059cbb90604401602060405180830381600087803b15801561096c57600080fd5b505af1158015610980573d6000803e3d6000fd5b505050506040513d601f19601f820116820180604052508101906109a4919061115c565b506002546040518281526001600160a01b03909116907f884edad9ce6fa2440d8a54cc123490eb96d2768479d49ff9c7366125a94243649060200160405180910390a250565b6109f2610d27565b600554600454610a11916001600160a01b039091169033903090610d81565b6003546040516335313c2160e11b81523360048201526001600160a01b0390911690636a62784290602401600060405180830381600087803b158015610a5657600080fd5b505af1158015610a6a573d6000803e3d6000fd5b505060055460408051918252600160208301523393507fa916333ba6ea619e9129b1910d3ed016e106f7ad7d60a611b9daada8d4842e0692500160405180910390a26106f86001600055565b610abe610de1565b60008111610b0e5760405162461bcd60e51b815260206004820181905260248201527f5072696365206d7573742062652067726561746572207468616e207a65726f2e60448201526064016102a2565b60058190556040518181527f270b316b51ab2cf3a3bb8ca4d22e76a327d05e762fcaa8bd6afaf8cfde9270b79060200160405180910390a150565b610b51610de1565b6001600160a01b038116610b775760405162461bcd60e51b81526004016102a2906111ff565b600480546001600160a01b0319166001600160a01b0383169081179091556040517fbf9fef67ffd8ea04dea875b286d3ed5612299e3c87bf1381ab3430274a1b74a090600090a250565b610bc9610de1565b6001600160a01b038116610bef5760405162461bcd60e51b81526004016102a2906111ff565b600280546001600160a01b0319166001600160a01b0383169081179091556040517fc7e67d547461aeafc7b64aaeb676a0d3c004962710e706e26f11053dca76faa090600090a250565b610c41610de1565b6001600160a01b038116610c675760405162461bcd60e51b81526004016102a2906111ff565b600380546001600160a01b0319166001600160a01b0383169081179091556040517f48aca03160c827947ea160d313b1a383e93e2ce96f03d4ab333d800b96c354e390600090a250565b610cb9610de1565b6001600160a01b038116610d1e5760405162461bcd60e51b815260206004820152602660248201527f4f776e61626c653a206e6577206f776e657220697320746865207a65726f206160448201526564647265737360d01b60648201526084016102a2565b6106e381610e3b565b60026000541415610d7a5760405162461bcd60e51b815260206004820152601f60248201527f5265656e7472616e637947756172643a207265656e7472616e742063616c6c0060448201526064016102a2565b6002600055565b604080516001600160a01b0385811660248301528416604482015260648082018490528251808303909101815260849091019091526020810180516001600160e01b03166323b872dd60e01b179052610ddb908590610e8d565b50505050565b6001546001600160a01b031633146106f85760405162461bcd60e51b815260206004820181905260248201527f4f776e61626c653a2063616c6c6572206973206e6f7420746865206f776e657260448201526064016102a2565b600180546001600160a01b038381166001600160a01b0319831681179093556040519116919082907f8be0079c531659141344cd1fd0a4f28419497f9722a3daafe3b4186f6b6457e090600090a35050565b6000610ee2826040518060400160405280602081526020017f5361666545524332303a206c6f772d6c6576656c2063616c6c206661696c6564815250856001600160a01b0316610f679092919063ffffffff16565b9050805160001480610f03575080806020019051810190610f03919061115c565b610f625760405162461bcd60e51b815260206004820152602a60248201527f5361666545524332303a204552433230206f7065726174696f6e20646964206e6044820152691bdd081cdd58d8d9595960b21b60648201526084016102a2565b505050565b6060610f768484600085610f7e565b949350505050565b606082471015610fdf5760405162461bcd60e51b815260206004820152602660248201527f416464726573733a20696e73756666696369656e742062616c616e636520666f6044820152651c8818d85b1b60d21b60648201526084016102a2565b600080866001600160a01b03168587604051610ffb91906111b0565b60006040518083038185875af1925050503d8060008114611038576040519150601f19603f3d011682016040523d82523d6000602084013e61103d565b606091505b509150915061104e87838387611059565b979650505050505050565b606083156110c55782516110be576001600160a01b0385163b6110be5760405162461bcd60e51b815260206004820152601d60248201527f416464726573733a2063616c6c20746f206e6f6e2d636f6e747261637400000060448201526064016102a2565b5081610f76565b610f7683838151156110da5781518083602001fd5b8060405162461bcd60e51b81526004016102a291906111cc565b80356001600160a01b038116811461110b57600080fd5b919050565b60006020828403121561112257600080fd5b61112b826110f4565b9392505050565b6000806040838503121561114557600080fd5b61114e836110f4565b946020939093013593505050565b60006020828403121561116e57600080fd5b8151801515811461112b57600080fd5b60006020828403121561119057600080fd5b5035919050565b6000602082840312156111a957600080fd5b5051919050565b600082516111c2818460208701611263565b9190910192915050565b60208152600082518060208401526111eb816040850160208701611263565b601f01601f19169190910160400192915050565b60208082526017908201527f43616e6e6f74206265206e756c6c20616464726573732e000000000000000000604082015260600190565b600081600019048311821515161561125e57634e487b7160e01b600052601160045260246000fd5b500290565b60005b8381101561127e578181015183820152602001611266565b83811115610ddb575050600091015256fea2646970667358221220853d7366957472d1f76f12e93f2d74566ac7d24fa3b18719dd18486d40dedd3564736f6c6343000807003343616e6e6f74206265206e756c6c20616464726573732e000000000000000000",
  "immutableReferences": {},
  "source": "// SPDX-License-Identifier: MIT\npragma solidity ^0.8.1;\n\nimport {Ownable} from \"@openzeppelin/contracts/access/Ownable.sol\";\nimport {ReentrancyGuard} from \"@openzeppelin/contracts/security/ReentrancyGuard.sol\";\nimport {IERC20, SafeERC20} from \"@openzeppelin/contracts/token/ERC20/utils/SafeERC20.sol\";\n\nimport {IEgg} from \"./interfaces/IEgg.sol\";\nimport {IProtocolEggExecutionManager} from \"./interfaces/IProtocolEggExecutionManager.sol\";\n\ncontract ProtocolEggExecutionManger is\n    ReentrancyGuard,\n    Ownable,\n    IProtocolEggExecutionManager\n{\n    using SafeERC20 for IERC20;\n\n    event BuyEgg(address indexed buyer, uint256 price, uint256 counts);\n    event BuyEggWithPartner(\n        address indexed buyer,\n        uint256 price,\n        address indexed partner,\n        uint256 counts\n    );\n\n    event NewEggContract(address indexed eggContract);\n    event NewTokenContract(address indexed tokenContract);\n    event NewReceiveWallet(address indexed receiveAddress);\n    event NewPrice(uint256 price);\n\n    event Withdraw(address indexed walletAddress, uint256 withdrawAmount);\n\n    address receiveWallet;\n\n    IEgg public eggManager;\n    IERC20 public tokenManager;\n\n    uint256 public eggPrice = 20000000000000000000; // 20 tokens\n\n    constructor(\n        address _receiveWallet,\n        address _eggContract,\n        address _tokenContract\n    ) {\n        require(_receiveWallet != address(0), \"Cannot be null address.\");\n        require(_eggContract != address(0), \"Cannot be null address.\");\n        require(_tokenContract != address(0), \"Cannot be null address.\");\n\n        receiveWallet = _receiveWallet;\n        eggManager = IEgg(_eggContract);\n        tokenManager = IERC20(_tokenContract);\n    }\n\n    function getEggPrice() public view override returns (uint256) {\n        return eggPrice;\n    }\n\n    function updateEggContract(address _eggContract) public override onlyOwner {\n        require(_eggContract != address(0), \"Cannot be null address.\");\n\n        eggManager = IEgg(_eggContract);\n\n        emit NewEggContract(_eggContract);\n    }\n\n    function updateTokenContract(\n        address _tokenContract\n    ) public override onlyOwner {\n        require(_tokenContract != address(0), \"Cannot be null address.\");\n\n        tokenManager = IERC20(_tokenContract);\n\n        emit NewTokenContract(_tokenContract);\n    }\n\n    function updateReceiveWallet(\n        address _receiveWallet\n    ) public override onlyOwner {\n        require(_receiveWallet != address(0), \"Cannot be null address.\");\n\n        receiveWallet = _receiveWallet;\n\n        emit NewReceiveWallet(_receiveWallet);\n    }\n\n    function updateEggPrice(uint256 _price) public override onlyOwner {\n        require(_price > 0, \"Price must be greater than zero.\");\n\n        eggPrice = _price;\n\n        emit NewPrice(_price);\n    }\n\n    function withdrawAll() public override onlyOwner {\n        require(receiveWallet != address(0), \"Cannot be null address.\");\n\n        uint256 tokenAmount = tokenManager.balanceOf(address(this));\n        require(tokenAmount > 0, \"Not enough token balance.\");\n\n        tokenManager.transfer(receiveWallet, tokenAmount);\n\n        emit Withdraw(receiveWallet, tokenAmount);\n    }\n\n    function withdraw(uint256 _amount) public override onlyOwner {\n        require(receiveWallet != address(0), \"Cannot be null address.\");\n\n        uint256 tokenAmount = tokenManager.balanceOf(address(this));\n        require(tokenAmount >= _amount, \"Not enough token balance.\");\n\n        tokenManager.transfer(receiveWallet, _amount);\n\n        emit Withdraw(receiveWallet, _amount);\n    }\n\n    function singleMint() public override nonReentrant {\n        tokenManager.safeTransferFrom(msg.sender, address(this), eggPrice);\n\n        eggManager.mint(msg.sender);\n\n        emit BuyEgg(msg.sender, eggPrice, 1);\n    }\n\n    function singleMintWithPartner(\n        address _partner\n    ) public override nonReentrant {\n        require(_partner != address(0), \"Partner address cannot be null.\");\n\n        tokenManager.safeTransferFrom(msg.sender, address(this), eggPrice);\n\n        eggManager.mint(msg.sender);\n\n        emit BuyEggWithPartner(msg.sender, eggPrice, _partner, 1);\n    }\n\n    function batchMint(uint256 numberOfTokens) public override nonReentrant {\n        require(numberOfTokens > 0, \"Must be at least one.\");\n\n        tokenManager.safeTransferFrom(\n            msg.sender,\n            address(this),\n            eggPrice * numberOfTokens\n        );\n\n        eggManager.batchMint(msg.sender, numberOfTokens);\n\n        emit BuyEgg(msg.sender, eggPrice * numberOfTokens, numberOfTokens);\n    }\n\n    function batchMintWithPartner(\n        address _partner,\n        uint256 numberOfTokens\n    ) public override nonReentrant {\n        require(_partner != address(0), \"Partner address cannot be null.\");\n        require(numberOfTokens > 0, \"Must be at least one.\");\n\n        tokenManager.safeTransferFrom(\n            msg.sender,\n            address(this),\n            eggPrice * numberOfTokens\n        );\n\n        eggManager.batchMint(msg.sender, numberOfTokens);\n\n        emit BuyEggWithPartner(\n            msg.sender,\n            eggPrice * numberOfTokens,\n            _partner,\n            numberOfTokens\n        );\n    }\n}\n",
  "sourcePath": "/Users/minki/Desktop/Codberg/cock-fight-network-contrats/cotract-test/contracts/egg/ProtocolEggExecutionManger.sol",
  "compiler": {
    "name": "solc",
    "version": "0.8.7+commit.e28d00a7.Emscripten.clang"
  },
  "schemaVersion": "3.4.16",
  "updatedAt": "2024-09-09T05:33:58.311Z",
  "devdoc": {
    "kind": "dev",
    "methods": {
      "owner()": {
        "details": "Returns the address of the current owner."
      },
      "renounceOwnership()": {
        "details": "Leaves the contract without owner. It will not be possible to call `onlyOwner` functions. Can only be called by the current owner. NOTE: Renouncing ownership will leave the contract without an owner, thereby disabling any functionality that is only available to the owner."
      },
      "transferOwnership(address)": {
        "details": "Transfers ownership of the contract to a new account (`newOwner`). Can only be called by the current owner."
      }
    },
    "version": 1
  },
  "userdoc": {
    "kind": "user",
    "methods": {},
    "version": 1
  }
}